:020000040800F2
:1000000000500020FD270008790300087B0300084A
:100010007D0300087F030008810300080000000042
:100020000000000000000000000000008303000842
:10003000850300080000000087030008890300080A
:1000400045280008452800084528000845280008DC
:1000500045280008452800084528000845280008CC
:1000600045280008452800084528000845280008BC
:1000700045280008452800084528000845280008AC
:10008000452800084528000845280008452800089C
:10009000452800084528000845280008452800088C
:1000A000452800084528000845280008452800087C
:1000B000452800084528000845280008452800086C
:1000C000452800084528000845280008452800085C
:1000D000452800084528000845280008452800084C
:1000E00045280008452800084528000800000000B1
:1000F0000000000000000000000000000000000000
:0C01000000000000000000005FF808F1A3
:10010C00034613F8012B002AFBD1181A013870474B
:10011C0010B5054C237833B9044B13B10448AFF335
:10012C0000800123237010BD5C0000200000000043
:10013C00A831000808B5034B1BB103490348AFF3C2
:10014C00008008BD0000000060000020A8310008FD
:10015C0038B54FF40051214801F00AFA642000F040
:10016C00BFFD1F4C01220821204601F0FBF90022A3
:10017C001021204601F0F6F91A4D00224FF40041EF
:10018C00284601F0EFF9642000F0AAFD01220821B5
:10019C00204601F0E7F901221021204601F0E2F996
:1001AC0000224FF40041284601F0DCF9642000F0F5
:1001BC0097FD01220821204601F0D4F900221021DC
:1001CC00204601F0CFF901224FF40041284601F0FE
:1001DC00C9F9642000F084FD38BD00BF0010014057
:1001EC00000C0140000801402DE9F04F87B001F0F0
:1001FC0038FC074601F03CFC064601F040FC054685
:10020C0001F028FC01F04DFC804601F053FC8146C6
:10021C0001F057FC824601F0FEFB834601F001FC25
:10022C000E4C0590CDF810B0CDF80CA0CDF8089080
:10023C00CDF80480009733462A460949204602F03F
:10024C00FDFA2046FFF75CFF4FF47A7382B2214629
:10025C00044800F09DFC07B0BDE8F08F780000204A
:10026C00C03100088C01002072B6FEE710B590B0CA
:10027C0006AC28220021204602F002FB0023019349
:10028C0002930393049305930223069301230A9389
:10029C0010230B93204600F04DFD60B90F23019302
:1002AC000021029103910491059101A800F074FFC3
:1002BC0018B910B010BDFFF7D7FFFFF7D5FF00003E
:1002CC0008B500F0E9FC0021082001F0AFFB1D206F
:1002DC0001F018FC022001F01DFC4FF4FD6001F050
:1002EC0021FC042001F006FC172001F033FC3B201C
:1002FC0001F03AFC1E2001F03FFC0021194800F0EF
:10030C00EBFAFFF7B3FF01F0CDF901F0D9FA01F0E8
:10031C0045FA01F061FA02F015FA134801F06AFB94
:10032C000021082001F082FB122001F0EBFB0820D9
:10033C0001F0F0FB4FF4FD6001F0F4FB072001F03D
:10034C00D9FB012001F006FC012001F00DFC1E2060
:10035C0001F012FCFFF7FCFEFFF746FF642000F0F3
:10036C00BFFCF7E7D8010020E4000020FEE7FEE721
:10037C00FEE7FEE7FEE770477047704708B500F0F0
:10038C009DFC08BD82B00E4B9A6942F001029A6145
:10039C009A6902F001020092009ADA6942F08052E6
:1003AC00DA61DB6903F080530193019B054A5368C2
:1003BC0023F0E06343F00073536002B0704700BF5A
:1003CC00001002400000014030B4026A036A23F0BE
:1003DC00010303624568836923F073030C681C43B3
:1003EC0022F002028B6813430B4A904206D0456000
:1003FC0084614A684263036230BC704723F008038F
:10040C00CA681A4322F0040325F440754A692A434A
:10041C008D691543EBE700BF002C014030B4036A33
:10042C00026A22F4807202624468C26922F073028A
:10043C000D68154323F400738A6843EA02230D4ABE
:10044C00904206D04460C5614A68C263036230BC06
:10045C00704723F40063CA6843EA022323F48063E1
:10046C0024F440544A6944EA02148A6944EA0214A6
:10047C00E8E700BF002C014030B4036A026A22F4A2
:10048C00805202624468C26922F4E6420D6842EA74
:10049C00052223F400538D6843EA0533074DA84227
:1004AC0006D04460C2614A680264036230BC704783
:1004BC0024F480444D6944EA8514F2E7002C014091
:1004CC0010B4036A046A24F001040462846924F001
:1004DC00F00C4CEA021223F00A030B438261036214
:1004EC0010BC704710B4036A046A24F01004046250
:1004FC00846924F4704C4CEA023223F0A00343EAE2
:10050C0001138261036210BC7047836823F070038F
:10051C000B4343F0070383607047704703681B4A23
:10052C0090420AD0B0F1804F07D0A2F5943290429D
:10053C0003D002F58062904203D123F070034A6825
:10054C001343124A90420AD0B0F1804F07D0A2F563
:10055C009432904203D002F58062904203D123F48E
:10056C004073CA68134323F080034A691343036042
:10057C008B68C3620B688362044B984202D00123E0
:10058C00436170470B690363F9E700BF002C01401E
:10059C0040B310B5044690F83D30F3B1022384F813
:1005AC003D30214651F8040BFFF7B8FF012384F8C6
:1005BC00463084F83E3084F83F3084F8403084F87C
:1005CC00413084F8423084F8433084F8443084F865
:1005DC00453084F83D30002010BD80F83C3002F0EE
:1005EC0077F8DBE70120704740B310B5044690F86C
:1005FC003D30F3B1022384F83D30214651F8040B11
:10060C00FFF78CFF012384F8463084F83E3084F8E1
:10061C003F3084F8403084F8413084F8423084F81C
:10062C00433084F8443084F8453084F83D30002061
:10063C0010BD80F83C30FFF770FFDBE701207047FE
:10064C0030B4036A026A22F01002026244688269C2
:10065C0022F4E6420D6842EA052223F020038D685D
:10066C0043EA05130C4DA84206D0446082614A68E7
:10067C008263036230BC704723F08003CD6843EA89
:10068C00051323F0400324F440644D6944EA8504C7
:10069C008D6944EA8504E8E7002C014038B590F8F0
:1006AC003C30012B7BD004460D46012380F83C30B6
:1006BC000C2A6FD801A353F822F000BFFD060008E6
:1006CC00A1070008A1070008A107000825070008DA
:1006DC00A1070008A1070008A10700084F070008A0
:1006EC00A1070008A1070008A10700087707000868
:1006FC000068FFF769FE2268936943F00803936171
:10070C002268936923F00403936122689369296931
:10071C000B43936100203EE00068FFF791FF2268D5
:10072C00936943F4006393612268936923F48063B3
:10073C00936122689369296943EA0123936100203C
:10074C0029E00068FFF76AFE2268D36943F00803CA
:10075C00D3612268D36923F00403D3612268D3697F
:10076C0029690B43D361002015E00068FFF784FE74
:10077C002268D36943F40063D3612268D36923F4FC
:10078C008063D3612268D369296943EA0123D36169
:10079C00002000E00120002384F83C3038BD02200A
:1007AC00FCE700BF10B4846824F47F4C42EA0322B7
:1007BC000A4342EA0C02826010BC704790F83C304D
:1007CC00012B78D010B50446012380F83C3002236D
:1007DC0080F83D300268936823F47F4323F077035D
:1007EC0093600B68602B4CD023D8402B54D011D87D
:1007FC00202B03D00AD80BB1102B05D11946206839
:10080C00FFF783FE002028E0012026E0302BF5D0F6
:10081C00012022E0502B0AD1CA6849680068FFF712
:10082C004FFE50212068FFF770FE002015E00120DC
:10083C0013E0B3F5805F3AD0B3F5005F14D0702BA2
:10084C0037D1CB684A6889680068FFF7ABFF22682C
:10085C00936843F0770393600020012384F83D30C4
:10086C00002384F83C3010BDCB684A688968006866
:10087C00FFF798FF2268936843F48043936000204D
:10088C00EBE7CA6849680068FFF72CFE6021206816
:10089C00FFF73BFE0020E0E7CA6849680068FFF7F5
:1008AC000FFE40212068FFF730FE0020D5E7002026
:1008BC00D3E70120D1E70220704701F01F014FF070
:1008CC00010C0CFA01FC036A23EA0C030362036AB1
:1008DC008A4013430362704710B50446084649BB6F
:1008EC0094F83E30013B18BF0123002B58D100284F
:1008FC0036D1022384F83E30012201462068FFF7EE
:10090C00DCFF2368284A93423AD02368264A934254
:10091C003BD0B3F1804F38D0A2F59432934234D00F
:10092C0002F58062934230D01A6842F001021A60DC
:10093C00002036E0042907D008290BD094F8413068
:10094C00013B18BF0123D0E794F83F30013B18BF9F
:10095C000123CAE794F84030013B18BF0123C4E7D8
:10096C00042805D0082807D0022384F84130C3E7B7
:10097C00022384F83F30BFE7022384F84030BBE702
:10098C005A6C42F400425A64BFE79A6802F00702BC
:10099C00062A07D01A6842F001021A60002000E013
:1009AC00012010BD0020FCE7002C014090F83C20F9
:1009BC00012A2CD010B40346012280F83C200222DC
:1009CC0080F83D2002685068946820F0700C08682C
:1009DC0040EA0C0050601A680E4882420AD0B2F10C
:1009EC00804F07D0A0F59430824203D000F5806090
:1009FC00824204D124F08004496821439160012291
:100A0C0083F83D20002083F83C0010BC7047022086
:100A1C00704700BF002C014010B5044602681369F2
:100A2C0023F44053C1680B43136183680269134379
:100A3C0042691A430168CB6823F4B05323F00C03CA
:100A4C001343CB600268536923F4407381690B43F1
:100A5C0053610268134B9A4220D000F059FC0246B5
:100A6C0002EB820202EB820263689B00B2FBF3F2A0
:100A7C000D48A0FB02314909642303FB11231B0120
:100A8C003233A0FB03035B0903F0F00202EB01120B
:100A9C0003F00F03216813448B6010BD00F048FC79
:100AAC000246DDE7003801401F85EB512DE9F84384
:100ABC0005460F4616469946DDF820802B681C68C3
:100ACC0037EA04040CBF01240024B4422DD1B8F140
:100ADC00FF3FF3D0B8F1000F05D000F0FBF8A0EB0E
:100AEC0009004045EAD92A6802F10C0353E8003F9B
:100AFC0023F4D0730C3242E800310029F3D12A6878
:100B0C0002F1140353E8003F23F00103143242E8CE
:100B1C0000310029F3D1202385F8413085F842308B
:100B2C00002385F84030032000E00020BDE8F88366
:100B3C0060B310B5044690F8413013B3242384F805
:100B4C0041302268D36823F40053D3602046FFF76A
:100B5C0063FF2268136923F490431361226853697D
:100B6C0023F02A0353612268D36843F40053D36003
:100B7C0000206064202384F8413084F842306063A4
:100B8C0010BD80F8403000F0B5FED7E7012070476B
:100B9C002DE9F04182B01E4690F84130202B4BD10C
:100BAC0004460D46904600294AD00AB9012044E07B
:100BBC0000234364212380F8413000F08BF8074672
:100BCC00A4F82480A4F82680A368B3F5805F02D033
:100BDC004FF000080FE02369FBB14FF000080AE06A
:100BEC0038F8023B2268C3F308035360E28C92B2DC
:100BFC00013A92B2E284E38C9BB28BB100963B46F5
:100C0C00002280212046FFF751FFD8B9002DE7D0F4
:100C1C0015F8012B23685A60E8E7A8460025EAE797
:100C2C0000963B46002240212046FFF73FFF58B973
:100C3C00202384F8413000E0022002B0BDE8F081AE
:100C4C000120FAE70320F8E70320F6E710B5044685
:100C5C000E4B1A784FF47A73B3FBF2F30C4A10680C
:100C6C00B0FBF3F000F0E4FC68B90F2C01D90120C3
:100C7C000AE0002221464FF0FF3000F0C9FC054B82
:100C8C001C60002000E0012010BD00BF000000200F
:100C9C00080000200400002008B5074A136843F040
:100CAC0010031360032000F0A1FC0F20FFF7CEFF10
:100CBC00FFF768FB002008BD00200240034A1168C2
:100CCC00034B1B780B441360704700BFDC00002003
:100CDC0000000020014B1868704700BFDC000020AA
:100CEC0038B50446FFF7F6FF0546B4F1FF3F02D0D6
:100CFC00044B1B781C44FFF7EDFF401BA042FAD3BA
:100D0C0038BD00BF0000002082B0084B1B68084AA9
:100D1C00A2FB03235B0A00FB03F3019300BF019BBF
:100D2C005A1E0192002BF9D102B070470800002026
:100D3C00D34D6210002800F0F18170B582B00446EA
:100D4C00036813F0010F2CD0994B5B6803F00C0374
:100D5C00042B1DD0964B5B6803F00C03082B12D0B0
:100D6C006368B3F5803F41D0002B55D103F180432C
:100D7C0003F504331A6822F480321A601A6822F4DC
:100D8C0080221A6037E08A4B5B6813F4803FE7D00F
:100D9C00874B1B6813F4003F03D06368002B00F0F3
:100DAC00BF81236813F0020F75D0814B5B6813F081
:100DBC000C0F5FD07E4B5B6803F00C03082B54D0F8
:100DCC002369002B00F08A807A4B01221A60FFF70E
:100DDC0081FF0546764B1B6813F0020F75D1FFF7A8
:100DEC0079FF401B0228F5D903209EE1704A136855
:100DFC0043F480331360636843B3FFF76BFF05461E
:100E0C006B4B1B6813F4003FCBD1FFF763FF401B08
:100E1C006428F5D9032088E1B3F5A02F09D0644BE1
:100E2C001A6822F480321A601A6822F480221A603E
:100E3C00E1E703F18043A3F53C331A6842F48022C6
:100E4C001A601A6842F480321A60D4E7FFF742FF46
:100E5C000546574B1B6813F4003FA2D0FFF73AFF2F
:100E6C00401B6428F5D903205FE1514B5B6813F4F8
:100E7C00803FA5D14E4B1B6813F0020F03D02369A2
:100E8C00012B40F04F814A4A136823F0F803616943
:100E9C0043EAC1031360236813F0080F33D0A3692E
:100EAC00002B5CD0434B0122C3F88024FFF712FFC8
:100EBC0005463F4B5B6A13F0020F21D1FFF70AFF87
:100ECC00401B0228F5D903202FE1394A136823F07F
:100EDC00F803616943EAC1031360DCE7354B002278
:100EEC001A60FFF7F7FE0546314B1B6813F0020F33
:100EFC00D1D0FFF7EFFE401B0228F5D9032014E1F7
:100F0C000120FFF701FF236813F0040F00F0968017
:100F1C00274BDB6913F0805F34D1254BDA6942F043
:100F2C008052DA61DB6903F080530193019B012548
:100F3C00214B1B6813F4807F26D0E368012B3DD036
:100F4C00002B53D103F1804303F504331A6A22F0CA
:100F5C0001021A621A6A22F004021A6233E0154B7B
:100F6C000022C3F88024FFF7B5FE0546104B5B6AE0
:100F7C0013F0020FC7D0FFF7ADFE401B0228F5D9C6
:100F8C000320D2E00025D3E70B4A136843F48073A7
:100F9C001360FFF79FFE0646074B1B6813F4807F18
:100FAC00CBD1FFF797FE801B6428F5D90320BCE05A
:100FBC000010024000004242007000405F4A136A79
:100FCC0043F001031362E36833B3FFF783FE064675
:100FDC005A4B1B6A13F0020F2FD1FFF77BFE801BBD
:100FEC0041F288339842F3D903209EE0052B09D0B7
:100FFC00524B1A6A22F001021A621A6A22F0040297
:10100C001A62E0E74D4B1A6A42F004021A621A6A3D
:10101C0042F001021A62D6E7FFF75CFE0646474B28
:10102C001B6A13F0020F08D0FFF754FE801B41F22D
:10103C0088339842F3D9032077E0E5B9E369002BB4
:10104C0072D03E4A526802F00C02082A56D0022B8B
:10105C0017D03B4B00221A66FFF73CFE0446374B79
:10106C001B6813F0007F47D0FFF734FE001B0228EB
:10107C00F5D9032059E0314AD36923F08053D36169
:10108C00DCE72F4B00221A66FFF724FE05462B4B9C
:10109C001B6813F0007F06D0FFF71CFE401B0228D4
:1010AC00F5D9032041E0236AB3F5803F1AD02349D8
:1010BC004B6823F47413226A606A024313434B6037
:1010CC001F4B01221A66FFF705FE04461B4B1B68DB
:1010DC0013F0007F0ED1FFF7FDFD001B0228F5D9A0
:1010EC00032022E0154A536823F40033A1680B4314
:1010FC005360DCE7002018E0002016E0012B16D02E
:10110C000E4B5B6803F48031226A914211D103F4D7
:10111C007013626A93420ED1002006E001207047E2
:10112C00012002E0012000E0002002B070BD01208F
:10113C00FBE70120F9E70120F7E700BF00100240B0
:10114C00000042420F4B5B6803F00C02082A01D0EE
:10115C000D487047C3F383420C49885C13F4803FFD
:10116C000BD0084B5B68C3F34043094AD35C064A77
:10117C0002FB00F0B0FBF3F07047064B03FB00F0F2
:10118C00704700BF0010024000127A0000320008C5
:10119C00FC31000800093D00002800F0A08070B56B
:1011AC000D460446524B1B6803F007038B420BD2CF
:1011BC004F4A136823F007030B431360136803F0C3
:1011CC0007038B4240F08D80236813F0020F17D079
:1011DC0013F0040F04D0474A536843F4E0635360A0
:1011EC00236813F0080F04D0424A536843F4605349
:1011FC005360404A536823F0F003A1680B435360DB
:10120C00236813F0010F31D06368012B20D0022B1F
:10121C0025D0384A126812F0020F64D035494A685A
:10122C0022F0030213434B60FFF754FD0646314B8B
:10123C005B6803F00C036268B3EB820F16D0FFF708
:10124C0049FD801B41F288339842F0D9032045E0D8
:10125C00284A126812F4003FE0D101203EE0254AF2
:10126C00126812F0007FD9D1012037E0204B1B68A7
:10127C0003F00703AB420AD91D4A136823F0070396
:10128C002B431360136803F00703AB422DD1236883
:10129C0013F0040F06D0174A536823F4E063E16897
:1012AC000B435360236813F0080F07D0114A53689F
:1012BC0023F46053216943EAC1035360FFF742FFF3
:1012CC000C4B5B68C3F303130B4AD35CD8400B4B3A
:1012DC0018600B4B1868FFF7B9FC002070BD01209B
:1012EC0070470120FAE70120F8E70120F6E700BF7C
:1012FC0000200240001002401832000808000020B4
:10130C0004000020014B1868704700BF0800002043
:10131C0008B5FFF7F7FF044B5B68C3F30223034ADE
:10132C00D35CD84008BD00BF00100240103200084A
:10133C0008B5FFF7E7FF044B5B68C3F3C223034A0E
:10134C00D35CD84008BD00BF00100240103200082A
:10135C0070B582B00024A4469EE07C4DAB4214D004
:10136C000CD8A5F58015AB420FD005F57025AB4216
:10137C000BD0A5F58015AB421FD106E0744DAB42E6
:10138C0003D005F58035AB4217D18B68A3B1012B87
:10139C000DD04261082410E0CC680EE0CC68043417
:1013AC000BE0CC68083408E0CC680C3405E0026132
:1013BC00082402E0002400E00424BEF1FF0F37D81B
:1013CC0006464FEA8C0233680F25954023EA050345
:1013DC0004FA02F2134333604B6813F0805F59D068
:1013EC005C4B9A6942F001029A619B6903F001031C
:1013FC000193019B4FEA9C02951C574B53F82560B7
:10140C000CF00305AD000F23AB4026EA0306534B4B
:10141C00984214D003F58063984279D003F5806329
:10142C00984277D003F58063984206D0042307E0F6
:10143C00061DACF108029200C5E7032300E000236F
:10144C00AB4033430232444D45F822304B6813F421
:10145C00801F61D0424A936843EA0E0393604B6845
:10146C0013F4001F5ED03E4AD36843EA0E03D360E8
:10147C004B6813F4003F5BD0394A536843EA0E03C0
:10148C0053604B6813F4803F58D0354A136843EAD5
:10149C000E0313600CF1010C0B6833FA0CF253D0F1
:1014AC00012202FA0CF203EA020E32EA0303F1D132
:1014BC004B68122B3FF651AF122B3FF67EAF01A5B6
:1014CC0055F823F097130008A5130008AF13000874
:1014DC00C1130008C7130008C7130008C71300087E
:1014EC00C7130008C7130008C7130008C713000868
:1014FC00C7130008C7130008C7130008C713000858
:10150C00C7130008C7130008A9130008B513000877
:10151C00012395E7022393E7114A936823EA0E030C
:10152C0093609CE70E4AD36823EA0E03D3609FE7CF
:10153C000B4A536823EA0E035360A2E7084A136868
:10154C0023EA0E031360A5E702B070BD0000221061
:10155C000000311000100240000001400008014062
:10156C00000401400AB10161704709040161704730
:10157C00C36801EA030221EA030141EA0241016165
:10158C0070470000002808DB0901C9B200F1604077
:10159C0000F5614080F80013704700F00F0009015E
:1015AC00C9B2014B1954704714ED00E000B500F0BE
:1015BC000700C0F1070CBCF1040F28BF4FF0040C5E
:1015CC00031D062B0FD9C31E4FF0FF3E0EFA0CF075
:1015DC0021EA000199400EFA03FE22EA0E0241EACA
:1015EC0002005DF804FB0023EEE70000074AD36815
:1015FC0023F4E0631B041B0C000200F4E0600343C3
:10160C0043F0BF6343F40033D360704700ED00E058
:10161C0010B50446054BD868C0F30220FFF7C6FF8F
:10162C0001462046FFF7AEFF10BD00BF00ED00E005
:10163C000138B0F1807F0BD24FF0E0235861054A9E
:10164C00F02182F823100020986107221A6170475C
:10165C000120704700ED00E07047000010B5034614
:10166C000C4A0D490D48006840B10C480068034411
:10167C00521A934206D8094A136010BD0748084C09
:10168C000460F2E701F004F90C2303604FF0FF3023
:10169C00F3E700BF0050002000040000E000002031
:1016AC00680300202DE9F04788B004AD00240494B1
:1016BC00059406940794354B9A6942F010029A618E
:1016CC009A6902F010020092009A9A6942F0200284
:1016DC009A619A6902F020020192019A9A6942F089
:1016EC0004029A619A6902F004020292029A9A69BF
:1016FC0042F008029A619B6903F008030393039B71
:10170C00DFF88CA022464FF400515046FFF72AFF19
:10171C00DFF8809022464FF400414846FFF722FF45
:10172C001D4E224618213046FFF71CFF4FF4005384
:10173C0004934FF00108CDF8148006940227079704
:10174C0029465046FFF704FE4FF400430493CDF8AE
:10175C0014800694079729464846FFF7F9FD18238D
:10176C000493CDF814800694079729463046FFF76A
:10177C00EFFD4FF4407304930594069429463046CC
:10178C00FFF7E6FD08B0BDE8F08700BF001002408F
:10179C000010014000080140000C014008B50B4846
:1017AC000B4B03600B4B436000238360C3604FF40F
:1017BC008042026143618361C361036200F046FCB5
:1017CC0000B908BDFEF750FDFBE700BF3801002053
:1017DC0000540040A086010008B50B480B4B036079
:1017EC000B4B436000238360C3604FF48042026163
:1017FC0043618361C361036200F028FC00B908BD3A
:10180C00FEF732FDFBE700BFE4000020005800406B
:10181C00A086010010B588B00023049305930693AD
:10182C0007930368224A934204D0224A93421FD062
:10183C0008B010BD204CA36943F00803A361A36951
:10184C0003F008030093009BC02304931223059319
:10185C000323079304A91948FFF77AFDE36943F4BE
:10186C000013E361E36903F400130193019BDFE7C9
:10187C00114CA36943F00803A361A36903F00803A7
:10188C000293029B4FF440630493122305930323AA
:10189C00079304A90948FFF75BFDE36943F4800350
:1018AC00E361E36903F480030393039BC0E700BF88
:1018BC00005400400058004000100240000C014051
:1018CC0008B50A480A4B03604FF4165343600023D3
:1018DC008360C36003610C2242618361C361FFF7C3
:1018EC0027F900B908BDFEF7BFFCFBE78C0100200F
:1018FC000038014030B587B0002302930393049362
:10190C0005930268184B9A4201D007B030BD03F51D
:10191C0058439A6942F480429A619A6902F480426F
:10192C000092009A9A6942F004029A619B6903F052
:10193C0004030193019B4FF400730293022303935E
:10194C000323059302AD094C29462046FFF700FD01
:10195C004FF480630293002303930493294620469B
:10196C00FFF7F6FCD1E700BF00380140000801404A
:10197C0000B585B08DF80C008DF80D104FF47A730E
:10198C000093022303AAD0210348006800F03CFC1A
:10199C0005B05DF804FB00BFD401002030B587B062
:1019AC008DF80F000B4C4FF47A75009501230DF157
:1019BC000F02D021206800F027FC009501230DF1C7
:1019CC001702D021206800F0D9FC9DF8170007B051
:1019DC0030BD00BFD401002010B5044600B18024F6
:1019EC000020FFF7DBFF00F07F0121430020FFF711
:1019FC00BFFF10BD08B5034B18600020FFF7ECFFCC
:101A0C0008BD00BFD401002008B50020FFF7C6FFB9
:101A1C00C0F3C01008BD08B50820FFF7BFFF40B2E7
:101A2C0008BD08B50920FFF7B9FF08BD10B50C4675
:101A3C00C1B20820FFF79CFF21460920FFF798FF51
:101A4C0010BD030900F00F0003EB830300EB430010
:101A5C00C0B2704708B50320FFF7A0FFFFF7F1FFF6
:101A6C0008BD08B50420FFF799FFFFF7EAFF08BD92
:101A7C0008B50520FFF792FFFFF7E3FF08BD10B58F
:101A8C001020FFF78BFF00EB800000EB8000840040
:101A9C00A4B20620FFF782FFFFF7D3FF204480B2E9
:101AAC0010BD08B50220FFF779FF00F03F00FFF7EB
:101ABC00C8FF08BD08B50120FFF770FFFFF7C1FF95
:101ACC0008BD08B50020FFF769FF00F07F00FFF7A5
:101ADC00B8FF08BD064BA3FB0023DB081A01D2B2EA
:101AEC0003EB8303A0EB43001044C0B2704700BF6C
:101AFC00CDCCCCCC08B5FFF7EDFF01460320FFF7AA
:101B0C0037FF08BD08B5FFF7E5FF01460420FFF7D6
:101B1C002FFF08BD08B5FFF7DDFF01460520FFF7D5
:101B2C0027FF08BD38B504460949A1FB00314D0912
:101B3C00C1F347111020FFF71BFF642303FB154073
:101B4C00C0B2FFF7C7FF01460620FFF711FF38BDF3
:101B5C001F85EB5108B500F03F00FFF7BBFF0146B6
:101B6C000220FFF705FF08BD08B5FFF7B3FF0146DC
:101B7C000120FFF7FDFE08BD10B50446FFF744FF3A
:101B8C002043C0B2FFF7A6FF01460020FFF7F0FE8E
:101B9C0010BD03685A6912F4806F01D100207047A0
:101BAC006FF480625A6100230363202280F83D2089
:101BBC0080F83E30026C42F00402026480F83C3043
:101BCC00012070472DE9F04106460C461746984611
:101BDC003BE0FFF77FF8069BC01A404502D8B8F1EE
:101BEC00000F32D1012D18D033689B6924EA03030E
:101BFC009BB2B3FA83F35B099F4226D10023336374
:101C0C00202286F83D2086F83E30326C42F02002CD
:101C1C00326486F83C30012027E033685B6924EAA3
:101C2C0003039BB2B3FA83F35B09E5E733685B69A3
:101C3C0024EA030C1FFA8CFCBCFA8CFC4FEA5C1CEB
:101C4C00674511D1B8F1FF3FC3D1C4F30745012D4E
:101C5C00ECD033689B6924EA030C1FFA8CFCBCFAA9
:101C6C008CFC4FEA5C1CEBE70020BDE8F0812DE911
:101C7C00F84305460E469046994653E01A6842F4DE
:101C8C0000721A602B686FF480625A6100232B6318
:101C9C00202285F83D2085F83E302A6C42F0040263
:101CAC002A6485F83C3001204AE0FFF713F8A0EBDA
:101CBC000900404502D8B8F1000F33D1012F17D0DD
:101CCC002B689B6926EA03039BB2003B18BF0123D8
:101CDC0043B300232B63202285F83D2085F83E304A
:101CEC002A6C42F020022A6485F83C30012027E05F
:101CFC002B685B6926EA03039BB2003B18BF0123E8
:101D0C00E6E72B689C6926EA0404A4B2003C18BFE1
:101D1C000124A4B12B685A6912F4806FAED1B8F1CA
:101D2C00FF3FC2D1C6F30747012FEAD12B685C698C
:101D3C0026EA0404A4B2003C18BF0124E9E7002001
:101D4C00BDE8F883F0B583B004460D4616461F4631
:101D5C00C36A082B0DD0012B0BD013F5803F08D094
:101D6C00036B122B0AD10268136843F4807313605F
:101D7C0004E02268136843F48073136000973346C1
:101D8C0000224FF001112046FFF71CFF80B9236998
:101D9C00B3F5804F16D1236805F0FE051D613B4657
:101DAC00324613492046FFF762FFF8B903B0F0BD85
:101DBC0023681B6813F4807F02D04FF400732364F4
:101DCC000320F3E7EB11226803F0060343F0F00362
:101DDC0013613B46324607492046FFF748FF18B9C6
:101DEC002368EDB21D61DAE70120DFE70120DDE7B2
:101DFC0002000100080001002DE9F04184B0044606
:101E0C000D4616461F46C26A01680B6843F4806390
:101E1C000B60082A0DD0012A0BD012F5803F08D098
:101E2C00036B112B0AD10268136843F4807313609F
:101E3C0004E02268136843F4807313600097334600
:101E4C0000224FF001112046FFF7BCFE98B9236920
:101E5C00B3F5804F19D1236845F00105EDB21D6132
:101E6C003B4632462A492046FFF701FF00284CD159
:101E7C0004B0BDE8F08123681B6813F4807F02D0A6
:101E8C004FF4007323640320F2E74FEAE51808F0DF
:101E9C000608236848F0F0021A613B4632461D4999
:101EAC002046FFF7E4FE08B10120E1E72368EDB21C
:101EBC001D613B46324616492046FFF7D8FE08B155
:101ECC000120D5E70022039223685969039199698F
:101EDC0003910399196841F4807119600097334696
:101EEC004FF001112046FFF76DFE20B9226848F033
:101EFC00F1031361B4E723681B6813F4807F02D0ED
:101F0C004FF4007323640320B2E70120B0E700BF55
:101F1C00020001000800010070B504460D4616468B
:101F2C0023685B6913F0800F21D12046FFF731FE47
:101F3C00F8B9B5F1FF3FF3D0FEF7CCFE801BA842F9
:101F4C0001D8002DECD123685B6913F0800FE7D129
:101F5C0000232363202284F83D2084F83E30226C39
:101F6C0042F02002226484F83C30012000E0002082
:101F7C0070BD0120FCE770B504460D46164623687B
:101F8C005B6913F0040F21D12046FFF702FEF8B96C
:101F9C00B5F1FF3FF3D0FEF79DFE801BA84201D8A0
:101FAC00002DECD123685B6913F0040FE7D10023FB
:101FBC002363202284F83D2084F83E30226C42F0CA
:101FCC002002226484F83C30012000E0002070BD27
:101FDC000120FCE770B504460D46164614E06FF080
:101FEC0010025A6100232363202284F83D2084F8D8
:101FFC003E30226C226484F83C30012025E02368BA
:10200C005B6913F0400F10D02368586910F0400F33
:10201C001AD1586910F0100FE1D1FEF75BFE801B4E
:10202C00A842ECD8002DEFD1E9E70023236320224E
:10203C0084F83D2084F83E30226C42F02002226469
:10204C0084F83C30012000E0002070BD002800F036
:10205C00CC8070B5044690F83D30002B77D024230B
:10206C0084F83D302268136823F001031360226862
:10207C00136843F4004313602268136823F400438D
:10208C001360FFF745F962685A4B9A4264D85A4B71
:10209C0098428CBF00230123002B40F0A8805749A5
:1020AC00A1FB00318B0C25686A6822F03F0242EAE2
:1020BC0091426A6021680A6A22F03F0266684D4DBF
:1020CC00AE424FD8013313430B622168CA6922F424
:1020DC004F4222F0FF026568464B9D424CD8431E8E
:1020EC006D00B3FBF5F3013340F6FC70034278D07E
:1020FC00C3F30B031A43CA6121680B6823F0C003B6
:10210C00E269206A024313430B6021688B6823F455
:10211C00034323F0FF032269E068024313438B60FF
:10212C002168CB6823F0FF036269A0690243134363
:10213C00CB602268136843F0010313600020206415
:10214C00202384F83D30206384F83E0070BD80F875
:10215C003C30FFF75FFB82E7294B98428CBF002392
:10216C00012399E74FF4967505FB03F3254DA5FB69
:10217C0003539B090133A6E7A668BEB9431E05EBC2
:10218C00450CB3FBFCF30133C3F30B03B3FA83F33A
:10219C005B0943BBC6B9431E05EB4505B3FBF5F321
:1021AC000133C3F30B0343F40043A3E7431E05EBD6
:1021BC00850C0CEB8C0CB3FBFCF30133C3F30B035E
:1021CC00B3FA83F35B09E4E7431E05EB850505EBE6
:1021DC008505B3FBF5F30133C3F30B0343F4404321
:1021EC0088E7042386E7012384E701207047012058
:1021FC00ACE700BFA08601007F841E0083DE1B437A
:10220C00FF083D00D34D62102DE9F04385B0044624
:10221C000F46904699460C9EFEF75CFD94F83D10D7
:10222C00202904D00227384605B0BDE8F0830546C6
:10223C000090192301224F492046FFF7C3FC0028C8
:10224C0040F0928094F83C30012B00F08F800123F9
:10225C0084F83C3023681A6812F0010F03D11A6815
:10226C0042F001021A602268136823F400631360C1
:10227C00212384F83D30102384F83E30002323645E
:10228C00C4F82480A4F82A90638D23853A4BE3622A
:10229C002B46324639462046FFF754FD07460028A8
:1022AC0066D10023039323685A6903929B690393B5
:1022BC00039B11E0236C042B01D00127B3E72268A8
:1022CC00136843F400731360F7E72A46314620463F
:1022DC00FFF751FE00282ED1238D002B36D02A4635
:1022EC0031462046FFF718FE0028E3D1626A2368C6
:1022FC0012781A61606A431C6362618D89B201397C
:10230C0089B26185238D013B9BB22385226851697B
:10231C0011F0040FD9D0002BD7D043781361636A26
:10232C0001336362638D9BB2013B9BB26385238D4A
:10233C00013B2385C9E7236C042B01D0012772E7ED
:10234C002268136843F400731360F7E7226813687C
:10235C0043F400731360202384F83D30002384F889
:10236C003E3084F83C305EE702275CE702275AE7F0
:10237C00012758E7020010000000FFFF2DE9F04391
:10238C0089B004460F4691469846109E0023079349
:10239C00FEF7A0FC94F83D30202B04D002273846E1
:1023AC0009B0BDE8F08305460090192301229E492F
:1023BC002046FFF707FC002840F07D8194F83C3064
:1023CC00012B00F07A81012384F83C3023681A68D1
:1023DC0012F0010F03D11A6842F001021A60226850
:1023EC00136823F400631360222384F83D30102318
:1023FC0084F83E3000232364C4F82490A4F82A8087
:10240C00638D2385894BE3622B4632463946204641
:10241C00FFF7F2FC0746002840F05181238D5BB991
:10242C00039323685A6903929A690392039A1A6870
:10243C0042F400721A6076E0012B0FD0022B21D0EF
:10244C002268136843F480631360002306932368A7
:10245C005A6906929B690693069B64E0226813688E
:10246C0023F48063136072B60023049323685A69C3
:10247C0004929A690492049A1A6842F400721A60DF
:10248C0062B650E02268136843F40063136072B6BE
:10249C000023059323685A6905929A690592059A57
:1024AC001A6822F480621A6062B63CE02A46314611
:1024BC002046FFF78FFD002840F0038123681A693E
:1024CC00636A1A70636A01336362238D013B23854F
:1024DC00638D9BB2013B9BB2638524E072B622688C
:1024EC00136843F40073136023681A69636A1A70E3
:1024FC00636A01336362238D013B2385638D9BB239
:10250C00013B9BB2638562B623681A69636A1A70D1
:10251C00636A01336362238D013B2385638D9BB218
:10252C00013B9BB26385218D002900F0BB80032900
:10253C0000F284800129B9D002290AD100953346D2
:10254C0000223B492046FFF73DFB0028C6D001275F
:10255C0025E700953346002235492046FFF732FB2C
:10256C00002840F0B0802268136823F48063136065
:10257C0072B623681A69636A1A70636A01336362FC
:10258C00238D013B2385638D9BB2013B9BB26385FD
:10259C00284B1B68DB08284AA2FB03231B0A03EB0E
:1025AC008303C3EBC3030793079901390791079979
:1025BC00002928D023685A6912F0040FF4D01A6845
:1025CC0042F400721A6023681A69636A1A70636AAB
:1025DC0001336362238D013B2385638D9BB2013BE9
:1025EC009BB2638562B623681A69636A1A70636A60
:1025FC0001336362238D013B2385638D9BB2013BC9
:10260C009BB263858FE700232363202284F83D204F
:10261C0084F83E30226C42F02002226462B684F8C8
:10262C003C300127BBE600BF020010000000FFFF9A
:10263C00040001000800002089B5F8142A46314630
:10264C002046FFF7C7FC00283FD123681A69636A4C
:10265C001A70636A01336362228D013A92B2228549
:10266C00638D9BB2013B9BB263852368596911F062
:10267C00040F3FF458AF032A0FD023681A69636A1A
:10268C001A70636A01336362238D013B2385638D6A
:10269C009BB2013B9BB2638545E71A6822F48062CA
:1026AC001A60EAE7202384F83D30002384F83E309A
:1026BC0084F83C3073E6022771E602276FE60127A7
:1026CC006DE601276BE6012769E6012767E600BF87
:1026DC000368B3F1804F00D0704782B003F5043328
:1026EC00DA6942F00102DA61DB6903F0010301935C
:1026FC00019B02B07047000000B587B00023029325
:10270C000393049305930368B3F1804F02D007B091
:10271C005DF804FB03F504339A6942F004029A61F4
:10272C009B6903F004030193019B01230293022391
:10273C000393059302A90248FEF70AFEE7E700BFE0
:10274C000008014000B58FB000230A930B930C9343
:10275C000D930893099301930293039304930593A8
:10276C000693079321484FF0804202600722426093
:10277C00836040F2E732C260036180238361FDF71E
:10278C0007FF20BB4FF480530A930AA91748FEF7A2
:10279C0015F8F8B91548FDF727FFF0B90023089391
:1027AC00099308A91148FEF701F9C8B960230193F0
:1027BC00002202920392059201A90C48FDF76EFFCC
:1027CC0088B90A48FFF798FF0FB05DF804FBFDF7D6
:1027DC004BFDD7E7FDF748FDDCE7FDF745FDDDE7F1
:1027EC00FDF742FDE2E7FDF73FFDEAE7D8010020E7
:1027FC00FEF732FF0B480C490C4A002302E0D45878
:10280C00C4500433C4188C42F9D3094A094C002330
:10281C0001E013600432A242FBD300F03FF8FDF755
:10282C004FFD7047000000205C0000206C32000857
:10283C005C00002068030020FEE700000EB46FF07F
:10284C00004110B500249DB01FAB0290069007917B
:10285C0004910948094953F8042B0591006802A911
:10286C0001931B9400F092F9029B1C701DB0BDE803
:10287C00104003B0704700BF0C0000200802FFFF9F
:10288C0003460244934200D1704703F8011BF9E759
:10289C00014B1868704700BF0C00002070B5002673
:1028AC000C4D0D4C641BA410A64209D100F076FC13
:1028BC0000260A4D0A4C641BA410A64205D170BD1B
:1028CC0055F8043B98470136EEE755F8043B98471A
:1028DC000136F2E764320008643200086432000802
:1028EC00683200087047704738B50546002940D05B
:1028FC0051F8043C0C1F002BB8BFE41800F0DEF8B4
:10290C001C4A136833B9636014602846BDE838402C
:10291C0000F0DAB8A34208D9206821188B4201BF15
:10292C0019685B6809182160EDE71A465B680BB102
:10293C00A342FAD911685018A0420BD12068014467
:10294C00501883421160E0D118685B68084410602D
:10295C005360DAE702D90C232B60D6E720682118E4
:10296C008B4201BF19685B68091821606360546071
:10297C00CBE738BD6403002070B50F4E0C463168B0
:10298C00054611B900F0A8FB30602146284600F03E
:10299C00A3FB431C03D14FF0FF34204670BDC41C75
:1029AC0024F00304A042F8D0211A284600F094FB2E
:1029BC000130F2D1EFE700BF600300202DE9F843AE
:1029CC00CD1C25F0030508350C2D38BF0C25002D2A
:1029DC00064601DBA94204D90C2333600020BDE874
:1029EC00F883DFF8D48000F069F8D8F800301C4682
:1029FC0044BB29463046FFF7BFFF431C044658D161
:102A0C00D8F800402746002F43D1002C4BD0236828
:102A1C003946304604EB030900F05EFB814542D198
:102A2C00216830466D1A2946FFF7A6FF01303AD0CF
:102A3C0023682B442360D8F800305A6862BBC8F86E
:102A4C0000700FE02268521B20D40B2A17D9611991
:102A5C00A342256018BF5960636808BFC8F800100E
:102A6C0062514B60304600F02FF804F10B00231D2F
:102A7C0020F00700C21A1CBF1B1AA350AFE76268F4
:102A8C00A3420CBFC8F800205A60EBE723466468E9
:102A9C00AEE73C467F68B6E71A465B68A342FBD1BB
:102AAC0000235360DEE70C233046336000F00CF853
:102ABC0094E70560D6E700BF640300200148FFF7E8
:102ACC0011BF00BF5C0300200148FFF70CBF00BF23
:102ADC005C0300202DE9F0471F468E688246BE42FB
:102AEC000C4690460B682DD8B1F90C2012F4906F5F
:102AFC0026D06569096905EB4505A3EB010905EBD2
:102B0C00D5757B1C4B446D109D4238BF1D4653053B
:102B1C0027D52946FFF752FF064660B34A4621697E
:102B2C0000F0F8FAA38923F4906343F08003A381A7
:102B3C0026614E4426603E466561A5EB0905A560FD
:102B4C00BE4200D93E4632464146206800F0AAFA01
:102B5C000020A3689B1BA360236833442360BDE85B
:102B6C00F0872A4600F0E4FA06460028E0D15046E9
:102B7C002169FFF7B9FE0C23CAF80030A3894FF086
:102B8C00FF3043F04003A381E9E700002DE9F04F4B
:102B9C0098468B8907461B060D4614469DB010D5EA
:102BAC000B6973B94021FFF709FF2860286130B920
:102BBC000C233B604FF0FF301DB0BDE8F08F40237D
:102BCC006B610023099320238DF8293030234FF0BB
:102BDC000109CDF80C80DFF898818DF82A30234656
:102BEC009A4613F8012B0AB1252AF9D1BAEB040B3A
:102BFC000BD05B46224629463846FFF76BFF013067
:102C0C0000F0A780099A5A4409929AF80030002BD8
:102C1C0000F09F8000234FF0FF32CDE905230AF12D
:102C2C00010A049307938DF853301A9354460522E6
:102C3C0014F8011B4E4800F05FFA049AD8B9D0067C
:102C4C0044BF20238DF85330110744BF2B238DF83C
:102C5C0053309AF800302A2B15D0544600204FF0F0
:102C6C000A0C079A214611F8013B303B092B4BD932
:102C7C00B0B1079214E0A0EB080309FA03F3134375
:102C8C00A2460493D2E7039B191D1B680391002BEA
:102C9C00BBBF5B4242F0020207930793B8BF04929A
:102CAC0023782E2B0AD163782A2B32D1039B023442
:102CBC001A1D1B68039243EAE3730593DFF8B4A073
:102CCC0003225046217800F017FA38B14022049BB9
:102CDC00A0EB0A00824013430134049314F8011B47
:102CEC00062225488DF8281000F006FA002836D068
:102CFC00224B1BBB039B073323F0070308330393BF
:102D0C00099B334409936AE70C4601200CFB023201
:102D1C00A8E700234FF00A0C19460134059320460E
:102D2C0010F8012B303A092A03D9002BC6D0059193
:102D3C00C4E7044601230CFB0121F0E703AB00932D
:102D4C002A4638460E4B04A9AFF30080421C0646B7
:102D5C00D6D1AB895B063FF52DAF09982CE703ABB9
:102D6C0000932A463846064B04A900F07DF8EDE79F
:102D7C00283200082E320008323200080000000011
:102D8C00E12A00082DE9F047164698468A680B6937
:102D9C0007469342B8BF1346336091F843200C4664
:102DAC00DDF820900AB1013333602368990642BFE5
:102DBC00336802333360256815F0060506D104F13B
:102DCC00190AE36832689B1AAB422BDC94F8433047
:102DDC002268003B18BF0123920630D44146384686
:102DEC0004F14302C847013023D02368226903F061
:102DFC000603042B14BF002533684FF0000608BFF0
:102E0C00E56804F11A0408BFED1A54F8123C08BF27
:102E1C0025EAE5759342C4BF9B1AED18B5421AD149
:102E2C00002008E00123524641463846C84701308D
:102E3C0003D14FF0FF30BDE8F0870135C1E73020FA
:102E4C00E11881F843005A1C94F8451022440233CF
:102E5C0082F84310C2E70123224641463846C84750
:102E6C000130E6D00136D9E72DE9FF470F7E9146B8
:102E7C00782F80460C469A460C9E01F1430207D8E7
:102E8C00622F0AD8002F00F0D180582F00F0B880A4
:102E9C0004F1420684F842703AE0A7F16303152B63
:102EAC00F6D801A151F823F00D2F0008212F0008AE
:102EBC009D2E00089D2E00089D2E00089D2E0008BA
:102ECC00212F00089D2E00089D2E00089D2E000825
:102EDC009D2E00081F3000084B2F0008D92F00082A
:102EEC009D2E00089D2E0008413000089D2E0008E4
:102EFC004B2F00089D2E00089D2E0008E12F000886
:102F0C0033681A1D1B68326004F1420684F84230A3
:102F1C0001239CE033682068191D3160060601D539
:102F2C001D6803E04506FBD5B3F90050002D03DA0C
:102F3C002D236D4284F843300A23584811E0216850
:102F4C003368080653F8045B02D4490648BFADB297
:102F5C006F2F336014BF0A2308235048002184F8D4
:102F6C0043106668002EA66005DB21682E4321F015
:102F7C00040121604BD01646B5FBF3F103FB11574E
:102F8C00C75D06F8017D2F46BB420D46F4D9082BD0
:102F9C000BD12368DF0708D5236961689942DEBF2E
:102FAC00302306F8013C06F1FF36921B22614B469A
:102FBC0021464046CDF800A003AAFFF7E3FE0130FE
:102FCC004AD14FF0FF3004B0BDE8F087236843F0DE
:102FDC00200323607827324884F8457023683168D1
:102FEC001F0651F8045B02D45F0648BFADB23160D6
:102FFC00D90744BF43F0200323601DB11023ADE774
:10300C002648E9E7236823F020032360F6E71646F9
:10301C00BDE733682568181D616930602E061B6892
:10302C0001D5196002E06806FBD51980002316460D
:10303C002361BCE7336800211A1D32601E68626888
:10304C00304600F059F808B1801B6060636823615A
:10305C00002384F84330AAE73246494640462369A8
:10306C00D0470130ADD023689B0713D4E068039B95
:10307C009842B8BF1846A6E7012332464946404657
:10308C00D04701309DD00135E36803995B1AAB4200
:10309C00F2DCEBE7002504F11906F5E739320008FC
:1030AC004A320008884210B501EB020402D984426E
:1030BC00234607D8431EA14208D011F8012B03F870
:1030CC00012FF8E7014602448A4200D110BD13F8E3
:1030DC00014D02F8014DF7E738B50023054D0446C4
:1030EC0008462B60FEF7BAFA431C02D12B6803B1D9
:1030FC00236038BD58030020034610B5C9B2024402
:10310C009342184601D1002003E0047801338C422D
:10311C00F6D110BD0A44914200F1FF3300D1704743
:10312C0010B511F8014B914203F8014FF9D110BDC4
:10313C002DE9F041074614460D4621B91146BDE86C
:10314C00F041FFF73BBC2AB9FFF7CEFB25462846DA
:10315C00BDE8F08100F01AF88442064602D8B4EBC0
:10316C00500FF4D821463846FFF728FC804608B9A2
:10317C004546ECE7B4422246294628BF3246FFF7C3
:10318C00C9FF29463846FFF7AFFBF1E751F8043C7D
:10319C00181F002BBCBF0B58C0187047F8B500BFE8
:1031AC00F8BC08BC9E467047F8B500BFF8BC08BC1C
:0431BC009E46704774
:1031C00049534F3836303120464F524D41543A2002
:1031D000253034642D253032642D25303264542559
:1031E0003032643A253032643A25303264252B304F
:1031F00033643A25303264200A200D0001020000B9
:1032000002030405060708090A0B0C0D0E0F101027
:1032100000000000010203040000000000000000A4
:103220000102030406070809232D302B2000686CD7
:103230004C006566674546470030313233343536D9
:103240003738394142434445460030313233343512
:0C3250003637383961626364656600003F
:08325C00B0CEFF7F010000006D
:04326400410100081C
:043268001D0100083C
:10326C0001000000100000000024F40010000020F9
:10327C00000000002002002088020020F002002044
:10328C000000000000000000000000000000000032
:10329C000000000000000000000000000000000022
:1032AC000000000000000000000000000000000012
:0C32BC0000000000000000000000000006
:04000005080027FDCB
:00000001FF
