:020000040800F2
:100000000050002061440008D1100008D3100008FF
:10001000D5100008D7100008D91000080000000013
:10002000000000000000000000000000DB100008DD
:10003000DD10000800000000DF100008E1100008DB
:10004000A9440008A9440008A9440008A9440008DC
:10005000A9440008A9440008A9440008A9440008CC
:10006000A9440008A9440008A9440008A9440008BC
:10007000A9440008A9440008A9440008A9440008AC
:10008000A9440008A9440008A9440008A94400089C
:10009000A9440008A9440008A9440008A94400088C
:1000A000A9440008A9440008A9440008A94400087C
:1000B000A9440008A9440008A9440008A94400086C
:1000C000A9440008A9440008A9440008A94400085C
:1000D000A9440008A9440008A9440008A94400084C
:1000E000A9440008A9440008A94400080000000031
:1000F0000000000000000000000000000000000000
:0C01000000000000000000005FF808F1A3
:10011000034613F8012B002AFBD1181A0138704747
:1001200081F0004102E000BF83F0004330B54FEAA8
:1001300041044FEA430594EA050F08BF90EA020F15
:100140001FBF54EA000C55EA020C7FEA645C7FEAA8
:10015000655C00F0E2804FEA5454D4EB5555B8BFCB
:100160006D420CDD2C4480EA020281EA030382EA3C
:10017000000083EA010180EA020281EA0303362DCE
:1001800088BF30BD11F0004F4FEA01314FF4801CA1
:100190004CEA113102D0404261EB410113F0004FB3
:1001A0004FEA03334CEA133302D0524263EB43036A
:1001B00094EA050F00F0A780A4F10104D5F1200E08
:1001C0000DDB02FA0EFC22FA05F2801841F1000163
:1001D00003FA0EF2801843FA05F359410EE0A5F137
:1001E00020050EF1200E012A03FA0EFC28BF4CF068
:1001F000020C43FA05F3C01851EBE37101F000451E
:1002000007D54FF0000EDCF1000C7EEB00006EEB2A
:100210000101B1F5801F1BD3B1F5001F0CD34908B4
:100220005FEA30004FEA3C0C04F101044FEA44520B
:1002300012F5800F80F09A80BCF1004F08BF5FEA92
:10024000500C50F1000041EB045141EA050130BD72
:100250005FEA4C0C404141EB0101013C28BFB1F584
:10026000801FE9D291F0000F04BF01460020B1FACF
:1002700081F308BF2033A3F10B03B3F120020CDAA2
:100280000C3208DD02F1140CC2F10C0201FA0CF080
:1002900021FA02F10CE002F11402D8BFC2F1200CE5
:1002A00001FA02F120FA0CFCDCBF41EA0C0190409B
:1002B000E41AA2BF01EB0451294330BD6FEA0404E4
:1002C0001F3C1CDA0C340EDC04F11404C4F12002CF
:1002D00020FA04F001FA02F340EA030021FA04F3E1
:1002E00045EA030130BDC4F10C04C4F1200220FA38
:1002F00002F001FA04F340EA0300294630BD21FA76
:1003000004F0294630BD94F0000F83F4801306BF3B
:1003100081F480110134013D4EE77FEA645C18BF2F
:100320007FEA655C29D094EA050F08BF90EA020FC6
:1003300005D054EA000C04BF1946104630BD91EABE
:10034000030F1EBF0021002030BD5FEA545C05D1C1
:100350004000494128BF41F0004130BD14F5800400
:100360003CBF01F5801130BD01F0004545F0FE4174
:1003700041F470014FF0000030BD7FEA645C1ABFA9
:10038000194610467FEA655C1CBF0B46024650EAE0
:10039000013406BF52EA033591EA030F41F400210C
:1003A00030BD00BF90F0000F04BF0021704730B592
:1003B0004FF4806404F132044FF000054FF0000167
:1003C00050E700BF90F0000F04BF0021704730B528
:1003D0004FF4806404F1320410F0004548BF4042FD
:1003E0004FF000013EE700BF42004FEAE2014FEA52
:1003F00031014FEA02701FBF12F07F4393F07F4F2D
:1004000081F06051704732F07F4208BF704793F02F
:100410007F4F04BF41F40021704730B54FF4607442
:1004200001F0004521F000411CE700BF50EA010245
:1004300008BF704730B54FF000050AE050EA0102EE
:1004400008BF704730B511F0004502D5404261EB5E
:1004500041014FF4806404F132045FEA915C3FF49F
:10046000D8AE4FF003025FEADC0C18BF03325FEA3C
:10047000DC0C18BF033202EBDC02C2F1200300FAED
:1004800003FC20FA02F001FA03FE40EA0E0021FA12
:1004900002F11444BDE600BF70B54FF0FF0C4CF400
:1004A000E06C1CEA11541DBF1CEA135594EA0C0FB2
:1004B00095EA0C0F00F0DEF82C4481EA030621EAED
:1004C0004C5123EA4C5350EA013518BF52EA033528
:1004D00041F4801143F4801338D0A0FB02CE4FF0DA
:1004E0000005E1FB02E506F00042E0FB03E54FF00A
:1004F0000006E1FB03569CF0000F18BF4EF0010E02
:10050000A4F1FF04B6F5007F64F5407404D25FEAFD
:100510004E0E6D4146EB060642EAC62141EA5551B0
:100520004FEAC52040EA5E504FEACE2EB4F1FD0CF2
:1005300088BFBCF5E06F1ED8BEF1004F08BF5FEA70
:10054000500E50F1000041EB045170BD06F0004622
:1005500046EA010140EA020081EA0301B4EB5C04CF
:10056000C2BFD4EB0C0541EA045170BD41F48011C7
:100570004FF0000E013C00F3AB8014F1360FDEBFEC
:10058000002001F0004170BDC4F10004203C35DAC8
:100590000C341BDC04F11404C4F1200500FA05F34B
:1005A00020FA04F001FA05F240EA020001F00042EC
:1005B00021F0004110EBD37021FA04F642EB060162
:1005C0005EEA430E08BF20EAD37070BDC4F10C048C
:1005D000C4F1200500FA04F320FA05F001FA04F250
:1005E00040EA020001F0004110EBD37041F100013C
:1005F0005EEA430E08BF20EAD37070BDC4F1200547
:1006000000FA05F24EEA020E20FA04F301FA05F2AE
:1006100043EA020321FA04F001F0004121FA04F256
:1006200020EA020000EBD3705EEA430E08BF20EA26
:10063000D37070BD94F0000F0FD101F00046400060
:1006400041EB010111F4801F08BF013CF7D041EAE2
:10065000060195F0000F18BF704703F000465200E6
:1006600043EB030313F4801F08BF013DF7D043EAB7
:100670000603704794EA0C0F0CEA135518BF95EA6D
:100680000C0F0CD050EA410618BF52EA4306D1D1F4
:1006900081EA030101F000414FF0000070BD50EA13
:1006A000410606BF1046194652EA430619D094EA9D
:1006B0000C0F02D150EA013613D195EA0C0F05D187
:1006C00052EA03361CBF104619460AD181EA0301DB
:1006D00001F0004141F0FE4141F470014FF0000093
:1006E00070BD41F0FE4141F4780170BD70B54FF02E
:1006F000FF0C4CF4E06C1CEA11541DBF1CEA1355AE
:1007000094EA0C0F95EA0C0F00F0A7F8A4EB05048F
:1007100081EA030E52EA03354FEA013100F0888086
:100720004FEA03334FF0805545EA131343EA12634F
:100730004FEA022245EA111545EA10654FEA002604
:100740000EF000419D4208BF964244F1FD0404F5BD
:10075000407402D25B084FEA3202B61A65EB030519
:100760005B084FEA32024FF480104FF4002CB6EBD6
:10077000020E75EB030E22BFB61A754640EA0C0056
:100780005B084FEA3202B6EB020E75EB030E22BF96
:10079000B61A754640EA5C005B084FEA3202B6EBD7
:1007A000020E75EB030E22BFB61A754640EA9C0096
:1007B0005B084FEA3202B6EB020E75EB030E22BF66
:1007C000B61A754640EADC0055EA060E18D04FEA24
:1007D000051545EA16754FEA06164FEAC30343EAC4
:1007E00052734FEAC2025FEA1C1CC0D111F4801F91
:1007F0000BD141EA00014FF000004FF0004CB6E78A
:1008000011F4801F04BF01430020B4F1FD0C88BF28
:10081000BCF5E06F3FF6AFAEB5EB030C04BFB6EB33
:10082000020C5FEA500C50F1000041EB045170BD26
:100830000EF0004E4EEA113114EB5C04C2BFD4EB53
:100840000C0541EA045170BD41F480114FF0000ED7
:10085000013C90E645EA060E8DE60CEA135594EA53
:100860000C0F08BF95EA0C0F3FF43BAF94EA0C0F56
:100870000AD150EA01347FF434AF95EA0C0F7FF4CB
:1008800025AF104619462CE795EA0C0F06D152EA1F
:1008900003353FF4FDAE1046194622E750EA410603
:1008A00018BF52EA43067FF4C5AE50EA41047FF414
:1008B0000DAF52EA43057FF4EBAE12E74FF0FF3C79
:1008C00006E000BF4FF0010C02E000BF4FF0010C4A
:1008D0004DF804CD4FEA410C7FEA6C5C4FEA430CC3
:1008E00018BF7FEA6C5C1BD001B050EA410C0CBF12
:1008F00052EA430C91EA030F02BF90EA020F002074
:10090000704710F1000F91EA030F58BF994208BFDA
:1009100090422CBFD8176FEAE37040F00100704797
:100920004FEA410C7FEA6C5C02D150EA013C07D1EE
:100930004FEA430C7FEA6C5CD6D152EA033CD3D039
:100940005DF8040B704700BF8446104662468C4633
:100950001946634600E000BF01B5FFF7B7FF002866
:1009600048BF10F1000F01BD4DF808EDFFF7F4FF8F
:100970000CBF012000205DF808FB00BF4DF808ED1A
:10098000FFF7EAFF34BF012000205DF808FB00BF3D
:100990004DF808EDFFF7E0FF94BF012000205DF85F
:1009A00008FB00BF4DF808EDFFF7CEFF94BF012014
:1009B00000205DF808FB00BF4DF808EDFFF7C4FF0D
:1009C00034BF012000205DF808FB00BF4FEA410C56
:1009D0007FEA6C5C02D150EA013C0AD14FEA430C39
:1009E0007FEA6C5C02D152EA033C02D14FF0000076
:1009F00070474FF0010070474FEA410212F50012B4
:100A000015D211D56FF47873B3EB625212D94FEA55
:100A1000C12343F0004343EA505311F0004F23FA3F
:100A200002F018BF404270474FF00000704750EA94
:100A3000013005D111F0004008BF6FF00040704751
:100A40004FF00000704700BF4A0011D212F50012AB
:100A500011D20DD56FF47873B3EB62520ED44FEA16
:100A6000C12343F0004343EA505323FA02F0704796
:100A70004FF00000704750EA013002D14FF0FF30D4
:100A800070474FF0000070474FEA4102B2F1E04377
:100A900024BFB3F5001CDCF1FE5C0DD901F0004C65
:100AA0004FEAC0024CEA5070B2F1004F40EB8300B5
:100AB00008BF20F00100704711F0804F21D113F1E1
:100AC0003872BCBF01F00040704741F480114FEA1A
:100AD0005252C2F11802C2F1200C10FA0CF320FAA3
:100AE00002F018BF40F001004FEAC1234FEAD323C0
:100AF00003FA0CFC40EA0C0023FA02F34FEA43032A
:100B0000CCE77FEA625307D150EA01331EBF4FF0B2
:100B1000FE4040F44000704701F0004040F0FE40CD
:100B200040F40000704700BF80F0004002E000BFCA
:100B300081F0004142001FBF5FEA410392EA030FC8
:100B40007FEA226C7FEA236C6AD04FEA1262D2EB12
:100B50001363C1BFD218414048404140B8BF5B4217
:100B6000192B88BF704710F0004F40F4000020F0B0
:100B70007F4018BF404211F0004F41F4000121F0C6
:100B80007F4118BF494292EA030F3FD0A2F1010210
:100B900041FA03FC10EB0C00C3F1200301FA03F14E
:100BA00000F0004302D5494260EB4000B0F5000F71
:100BB00013D3B0F1807F06D340084FEA310102F130
:100BC0000102FE2A51D2B1F1004F40EBC25008BFE2
:100BD00020F0010040EA03007047490040EB0000AC
:100BE000013A28BFB0F5000FEDD2B0FA80FCACF1AD
:100BF000080CB2EB0C0200FA0CF0AABF00EBC250DA
:100C000052421843BCBFD0401843704792F0000FC7
:100C100081F4000106BF80F400000132013BB5E71A
:100C20004FEA41037FEA226C18BF7FEA236C21D090
:100C300092EA030F04D092F0000F08BF08467047F5
:100C400090EA010F1CBF0020704712F07F4F04D1C3
:100C5000400028BF40F00040704712F100723CBFD6
:100C600000F50000704700F0004343F0FE4040F400
:100C7000000070477FEA226216BF08467FEA2363BE
:100C80000146420206BF5FEA412390EA010F40F4A9
:100C9000800070474FF0000304E000BF10F00043F5
:100CA00048BF40425FEA000C08BF704743F09643DC
:100CB00001464FF000001CE050EA010208BF7047F7
:100CC0004FF000030AE000BF50EA010208BF70477E
:100CD00011F0004302D5404261EB41015FEA010C93
:100CE00002BF84460146002043F0B64308BFA3F18B
:100CF0008053A3F50003BCFA8CF2083AA3EBC2536D
:100D000010DB01FA02FC634400FA02FCC2F120028B
:100D1000BCF1004F20FA02F243EB020008BF20F0C2
:100D20000100704702F1200201FA02FCC2F1200228
:100D300050EA4C0021FA02F243EB020008BF20EA1D
:100D4000DC7070474FF0FF0C1CEAD0521EBF1CEA4B
:100D5000D15392EA0C0F93EA0C0F6FD01A4480EA39
:100D6000010C400218BF5FEA41211ED04FF0006322
:100D700043EA501043EA5111A0FB01310CF000404E
:100D8000B1F5000F3EBF490041EAD3715B0040EA74
:100D9000010062F17F02FD2A1DD8B3F1004F40EB44
:100DA000C25008BF20F00100704790F0000F0CF017
:100DB000004C08BF49024CEA502040EA51207F3ADB
:100DC000C2BFD2F1FF0340EAC250704740F40000B6
:100DD0004FF00003013A5DDC12F1190FDCBF00F0A7
:100DE00000407047C2F10002410021FA02F1C2F155
:100DF000200200FA02FC5FEA310040F1000053EAF1
:100E00004C0308BF20EADC70704792F0000F00F03E
:100E1000004C02BF400010F4000F013AF9D040EA44
:100E20000C0093F0000F01F0004C02BF490011F4D8
:100E3000000F013BF9D041EA0C018FE70CEAD153D6
:100E400092EA0C0F18BF93EA0C0F0AD030F0004C56
:100E500018BF31F0004CD8D180EA010000F000400A
:100E6000704790F0000F17BF90F0004F084691F0C8
:100E7000000F91F0004F14D092EA0C0F01D1420202
:100E80000FD193EA0C0F03D14B0218BF084608D1CB
:100E900080EA010000F0004040F0FE4040F4000015
:100EA000704740F0FE4040F4400070474FF0FF0CA8
:100EB0001CEAD0521EBF1CEAD15392EA0C0F93EAEF
:100EC0000C0F69D0A2EB030280EA010C49024FEA41
:100ED000402037D04FF0805343EA111143EA1013FA
:100EE0000CF000408B4238BF5B0042F17D024FF4B2
:100EF000000C8B4224BF5B1A40EA0C00B3EB510F8D
:100F000024BFA3EB510340EA5C00B3EB910F24BF75
:100F1000A3EB910340EA9C00B3EBD10F24BFA3EBFA
:100F2000D10340EADC001B0118BF5FEA1C1CE0D1C2
:100F3000FD2A3FF650AF8B4240EBC25008BF20F075
:100F4000010070470CF0004C4CEA50207F32C2BFC9
:100F5000D2F1FF0340EAC250704740F400004FF066
:100F60000003013A37E792F0000F00F0004C02BF97
:100F7000400010F4000F013AF9D040EA0C0093F061
:100F8000000F01F0004C02BF490011F4000F013BBB
:100F9000F9D041EA0C0195E70CEAD15392EA0C0F23
:100FA00008D142027FF47DAF93EA0C0F7FF470AF5B
:100FB000084676E793EA0C0F04D14B023FF44CAF9E
:100FC00008466EE730F0004C18BF31F0004CCAD133
:100FD00030F000427FF45CAF31F000437FF43CAF6F
:100FE0005FE700BF10B5054C237833B9044B13B14C
:100FF0000448AFF300800123237010BD6802002075
:1010000000000000B092000808B5034B1BB1034973
:101010000348AFF3008008BD000000006C02002010
:10102000B092000872B6FEE710B590B006AC282268
:101030000021204604F0CBF900230193029303938F
:10104000049305930223069301230A9310230B9321
:10105000204600F021FD60B90F2301930021029189
:1010600003910491059101A800F048FF18B910B050
:1010700010BDFFF7D7FFFFF7D5FF08B500F0BEFCA6
:10108000FFF7D2FF02F008FB02F014FC02F080FB35
:1010900002F09CFB02F0A0FC03F0A4F803F0CAF8F5
:1010A000642000F0CFFC03F0CBF8642000F0CAFC11
:1010B00003F012F9642000F0C5FC03F031F964205C
:1010C00000F0C0FC03F06AF9642000F0BBFCE5E727
:1010D000FEE7FEE7FEE7FEE7FEE770477047704772
:1010E00008B500F09DFC08BD82B00E4B9A6942F035
:1010F00001029A619A6902F001020092009ADA698B
:1011000042F08052DA61DB6903F080530193019B66
:10111000054A536823F0E06343F00073536002B064
:10112000704700BF001002400000014030B4026A66
:10113000036A23F0010303624568836923F07303A4
:101140000C681C4322F002028B6813430B4A904246
:1011500006D0456084614A684263036230BC7047D0
:1011600023F00803CA681A4322F0040325F44075EB
:101170004A692A438D691543EBE700BF002C014003
:1011800030B4036A026A22F4807202624468C2695F
:1011900022F073020D68154323F400738A6843EA52
:1011A00002230D4A904206D04460C5614A68C2637A
:1011B000036230BC704723F40063CA6843EA022329
:1011C00023F4806324F440544A6944EA02148A698F
:1011D00044EA0214E8E700BF002C014030B4036A7F
:1011E000026A22F4805202624468C26922F4E64232
:1011F0000D6842EA052223F400538D6843EA053363
:10120000074DA84206D04460C2614A680264036286
:1012100030BC704724F480444D6944EA8514F2E7F9
:10122000002C014010B4036A046A24F00104046233
:10123000846924F0F00C4CEA021223F00A030B43F9
:101240008261036210BC704710B4036A046A24F020
:1012500010040462846924F4704C4CEA023223F0D6
:10126000A00343EA01138261036210BC70478368E4
:1012700023F070030B4343F007038360704770470C
:1012800003681B4A90420AD0B0F1804F07D0A2F504
:101290009432904203D002F58062904203D123F051
:1012A00070034A681343124A90420AD0B0F1804F4B
:1012B00007D0A2F59432904203D002F580629042AA
:1012C00003D123F44073CA68134323F080034A69AF
:1012D000134303608B68C3620B688362044B9842BC
:1012E00002D00123436170470B690363F9E700BF34
:1012F000002C014040B310B5044690F83D30F3B1E6
:10130000022384F83D30214651F8040BFFF7B8FF63
:10131000012384F8463084F83E3084F83F3084F866
:10132000403084F8413084F8423084F8433084F807
:10133000443084F8453084F83D30002010BD80F8FA
:101340003C3002F00FFBDBE70120704740B310B5E3
:10135000044690F83D30F3B1022384F83D30214635
:1013600051F8040BFFF78CFF012384F8463084F812
:101370003E3084F83F3084F8403084F8413084F8BF
:10138000423084F8433084F8443084F8453084F89F
:101390003D30002010BD80F83C30FFF770FFDBE7E8
:1013A0000120704730B4036A026A22F01002026220
:1013B0004468826922F4E6420D6842EA052223F07D
:1013C00020038D6843EA05130C4DA84206D0446003
:1013D00082614A688263036230BC704723F08003F5
:1013E000CD6843EA051323F0400324F440644D69BB
:1013F00044EA85048D6944EA8504E8E7002C01404D
:1014000038B590F83C30012B7BD004460D460123C3
:1014100080F83C300C2A6FD801A353F822F000BFAB
:1014200055140008F9140008F9140008F91400080C
:101430007D140008F9140008F9140008F9140008D4
:10144000A7140008F9140008F9140008F91400089A
:10145000CF1400080068FFF769FE2268936943F023
:10146000080393612268936923F00403936122685F
:10147000936929690B43936100203EE00068FFF700
:1014800091FF2268936943F4006393612268936932
:1014900023F48063936122689369296943EA0123F5
:1014A0009361002029E00068FFF76AFE2268D36993
:1014B00043F00803D3612268D36923F00403D361A6
:1014C0002268D36929690B43D361002015E00068C5
:1014D000FFF784FE2268D36943F40063D361226876
:1014E000D36923F48063D3612268D369296943EA0D
:1014F0000123D361002000E00120002384F83C3068
:1015000038BD0220FCE700BF10B4846824F47F4C8F
:1015100042EA03220A4342EA0C02826010BC70478E
:1015200090F83C30012B78D010B50446012380F8A8
:101530003C30022380F83D300268936823F47F43F7
:1015400023F0770393600B68602B4CD023D8402B9B
:1015500054D011D8202B03D00AD80BB1102B05D1B1
:1015600019462068FFF783FE002028E0012026E0CE
:10157000302BF5D0012022E0502B0AD1CA684968EF
:101580000068FFF74FFE50212068FFF770FE002033
:1015900015E0012013E0B3F5805F3AD0B3F5005FAA
:1015A00014D0702B37D1CB684A6889680068FFF780
:1015B000ABFF2268936843F0770393600020012318
:1015C00084F83D30002384F83C3010BDCB684A6875
:1015D00089680068FFF798FF2268936843F48043A6
:1015E00093600020EBE7CA6849680068FFF72CFEAB
:1015F00060212068FFF73BFE0020E0E7CA684968E9
:101600000068FFF70FFE40212068FFF730FE002042
:10161000D5E70020D3E70120D1E70220704701F091
:101620001F014FF0010C0CFA01FC036A23EA0C03C2
:101630000362036A8A4013430362704710B504468D
:10164000084649BB94F83E30013B18BF0123002BEC
:1016500058D1002836D1022384F83E3001220146B9
:101660002068FFF7DCFF2368284A93423AD02368BA
:10167000264A93423BD0B3F1804F38D0A2F5943242
:10168000934234D002F58062934230D01A6842F01F
:1016900001021A60002036E0042907D008290BD087
:1016A00094F84130013B18BF0123D0E794F83F3054
:1016B000013B18BF0123CAE794F84030013B18BF33
:1016C0000123C4E7042805D0082807D0022384F8A2
:1016D0004130C3E7022384F83F30BFE7022384F898
:1016E0004030BBE75A6C42F400425A64BFE79A6844
:1016F00002F00702062A07D01A6842F001021A60B7
:10170000002000E0012010BD0020FCE7002C01407B
:1017100090F83C20012A2CD010B40346012280F816
:101720003C20022280F83D2002685068946820F036
:10173000700C086840EA0C0050601A680E4882423B
:101740000AD0B2F1804F07D0A0F59430824203D086
:1017500000F58060824204D124F08004496821436E
:101760009160012283F83D20002083F83C0010BCEA
:1017700070470220704700BF002C014010B504469E
:101780000268136923F44053C1680B4313618368F3
:101790000269134342691A430168CB6823F4B053CA
:1017A00023F00C031343CB600268536923F44073A6
:1017B00081690B4353610268134B9A4220D000F0B9
:1017C00059FC024602EB820202EB820263689B0034
:1017D000B2FBF3F20D48A0FB02314909642303FB7D
:1017E00011231B013233A0FB03035B0903F0F0025A
:1017F00002EB011203F00F03216813448B6010BD4C
:1018000000F048FC0246DDE7003801401F85EB513F
:101810002DE9F84305460F4616469946DDF8208027
:101820002B681C6837EA04040CBF01240024B4426E
:101830002DD1B8F1FF3FF3D0B8F1000F05D000F083
:10184000FBF8A0EB09004045EAD92A6802F10C0335
:1018500053E8003F23F4D0730C3242E800310029F2
:10186000F3D12A6802F1140353E8003F23F0010387
:10187000143242E800310029F3D1202385F84130A9
:1018800085F84230002385F84030032000E0002036
:10189000BDE8F88360B310B5044690F8413013B347
:1018A000242384F841302268D36823F40053D360A2
:1018B0002046FFF763FF2268136923F49043136106
:1018C0002268536923F02A0353612268D36843F4E2
:1018D0000053D36000206064202384F8413084F8F2
:1018E0004230606310BD80F8403001F0FDFFD7E763
:1018F000012070472DE9F04182B01E4690F841303A
:10190000202B4BD104460D46904600294AD00AB9F7
:10191000012044E000234364212380F8413000F09B
:101920008BF80746A4F82480A4F82680A368B3F5B2
:10193000805F02D04FF000080FE02369FBB14FF049
:1019400000080AE038F8023B2268C3F3080353603A
:10195000E28C92B2013A92B2E284E38C9BB28BB1F8
:1019600000963B46002280212046FFF751FFD8B960
:10197000002DE7D015F8012B23685A60E8E7A84648
:101980000025EAE700963B46002240212046FFF76B
:101990003FFF58B9202384F8413000E0022002B014
:1019A000BDE8F0810120FAE70320F8E70320F6E71D
:1019B00010B504460E4B1A784FF47A73B3FBF2F36A
:1019C0000C4A1068B0FBF3F000F0EAFC68B90F2C89
:1019D00001D901200AE0002221464FF0FF3000F03B
:1019E000CFFC054B1C60002000E0012010BD00BFB3
:1019F00000000020080000200400002008B5074A6D
:101A0000136843F010031360032000F0A7FC0F20BD
:101A1000FFF7CEFFFFF768FB002008BD0020024063
:101A2000034A1168034B1B780B441360704700BFD7
:101A30008402002000000020014B1868704700BF9E
:101A40008402002038B50446FFF7F6FF0546B4F1DE
:101A5000FF3F02D0044B1B781C44FFF7EDFF401BF7
:101A6000A042FAD338BD00BF0000002082B0084B6E
:101A70001B68084AA2FB03235B0A00FB03F30193E4
:101A800000BF019B5A1E0192002BF9D102B0704792
:101A900008000020D34D6210002800F0F18170B5DD
:101AA00082B00446036813F0010F2CD0994B5B6899
:101AB00003F00C03042B1DD0964B5B6803F00C0362
:101AC000082B12D06368B3F5803F41D0002B55D16D
:101AD00003F1804303F504331A6822F480321A605C
:101AE0001A6822F480221A6037E08A4B5B6813F48C
:101AF000803FE7D0874B1B6813F4003F03D0636837
:101B0000002B00F0BF81236813F0020F75D0814BCA
:101B10005B6813F00C0F5FD07E4B5B6803F00C0327
:101B2000082B54D02369002B00F08A807A4B0122C5
:101B30001A60FFF781FF0546764B1B6813F0020F12
:101B400075D1FFF779FF401B0228F5D903209EE1EC
:101B5000704A136843F480331360636843B3FFF73C
:101B60006BFF05466B4B1B6813F4003FCBD1FFF7AF
:101B700063FF401B6428F5D9032088E1B3F5A02F4B
:101B800009D0644B1A6822F480321A601A6822F471
:101B900080221A60E1E703F18043A3F53C331A6821
:101BA00042F480221A601A6842F480321A60D4E744
:101BB000FFF742FF0546574B1B6813F4003FA2D0C6
:101BC000FFF73AFF401B6428F5D903205FE1514B32
:101BD0005B6813F4803FA5D14E4B1B6813F0020FD6
:101BE00003D02369012B40F04F814A4A136823F048
:101BF000F803616943EAC1031360236813F0080F17
:101C000033D0A369002B5CD0434B0122C3F880245E
:101C1000FFF712FF05463F4B5B6A13F0020F21D11D
:101C2000FFF70AFF401B0228F5D903202FE1394AAC
:101C3000136823F0F803616943EAC1031360DCE72A
:101C4000354B00221A60FFF7F7FE0546314B1B6843
:101C500013F0020FD1D0FFF7EFFE401B0228F5D999
:101C6000032014E10120FFF701FF236813F0040FA4
:101C700000F09680274BDB6913F0805F34D1254B51
:101C8000DA6942F08052DA61DB6903F08053019334
:101C9000019B0125214B1B6813F4807F26D0E3684C
:101CA000012B3DD0002B53D103F1804303F50433C6
:101CB0001A6A22F001021A621A6A22F004021A62F7
:101CC00033E0154B0022C3F88024FFF7B5FE05462C
:101CD000104B5B6A13F0020FC7D0FFF7ADFE401B3D
:101CE0000228F5D90320D2E00025D3E70B4A136878
:101CF00043F480731360FFF79FFE0646074B1B6893
:101D000013F4807FCBD1FFF797FE801B6428F5D9B1
:101D10000320BCE00010024000004242007000407E
:101D20005F4A136A43F001031362E36833B3FFF7BA
:101D300083FE06465A4B1B6A13F0020F2FD1FFF7A2
:101D40007BFE801B41F288339842F3D903209EE04A
:101D5000052B09D0524B1A6A22F001021A621A6A44
:101D600022F004021A62E0E74D4B1A6A42F00402C4
:101D70001A621A6A42F001021A62D6E7FFF75CFEA5
:101D80000646474B1B6A13F0020F08D0FFF754FEBC
:101D9000801B41F288339842F3D9032077E0E5B9FC
:101DA000E369002B72D03E4A526802F00C02082A06
:101DB00056D0022B17D03B4B00221A66FFF73CFE91
:101DC0000446374B1B6813F0007F47D0FFF734FE03
:101DD000001B0228F5D9032059E0314AD36923F0CA
:101DE0008053D361DCE72F4B00221A66FFF724FEF5
:101DF00005462B4B1B6813F0007F06D0FFF71CFE37
:101E0000401B0228F5D9032041E0236AB3F5803F47
:101E10001AD023494B6823F47413226A606A024380
:101E200013434B601F4B01221A66FFF705FE044661
:101E30001B4B1B6813F0007F0ED1FFF7FDFD001B4D
:101E40000228F5D9032022E0154A536823F4003311
:101E5000A1680B435360DCE7002018E0002016E087
:101E6000012B16D00E4B5B6803F48031226A91423D
:101E700011D103F47013626A93420ED1002006E080
:101E800001207047012002E0012000E0002002B0A4
:101E900070BD0120FBE70120F9E70120F7E700BF53
:101EA00000100240000042420F4B5B6803F00C023E
:101EB000082A01D00D487047C3F383420C49885C5F
:101EC00013F4803F0BD0084B5B68C3F34043094ACF
:101ED000D35C064A02FB00F0B0FBF3F07047064B00
:101EE00003FB00F0704700BF0010024000127A00B0
:101EF000CC920008C892000800093D00002800F0BC
:101F0000A08070B50D460446524B1B6803F00703D2
:101F10008B420BD24F4A136823F007030B43136025
:101F2000136803F007038B4240F08D80236813F0A1
:101F3000020F17D013F0040F04D0474A536843F43C
:101F4000E0635360236813F0080F04D0424A5368DB
:101F500043F460535360404A536823F0F003A16890
:101F60000B435360236813F0010F31D06368012BDA
:101F700020D0022B25D0384A126812F0020F64D00C
:101F800035494A6822F0030213434B60FFF754FDC2
:101F90000646314B5B6803F00C036268B3EB820FBB
:101FA00016D0FFF749FD801B41F288339842F0D9E3
:101FB000032045E0284A126812F4003FE0D10120D6
:101FC0003EE0254A126812F0007FD9D1012037E0A7
:101FD000204B1B6803F00703AB420AD91D4A136864
:101FE00023F007032B431360136803F00703AB428E
:101FF0002DD1236813F0040F06D0174A536823F439
:10200000E063E1680B435360236813F0080F07D0C7
:10201000114A536823F46053216943EAC1035360B2
:10202000FFF742FF0C4B5B68C3F303130B4AD35C0F
:10203000D8400B4B18600B4B1868FFF7B9FC002019
:1020400070BD012070470120FAE70120F8E7012068
:10205000F6E700BF0020024000100240E4920008B2
:102060000800002004000020014B1868704700BFE2
:102070000800002008B5FFF7F7FF044B5B68C3F3C7
:102080000223034AD35CD84008BD00BF00100240C1
:10209000DC92000808B5FFF7E7FF044B5B68C3F369
:1020A000C223034AD35CD84008BD00BF00100240E1
:1020B000DC92000870B582B00024A4469EE07C4DFE
:1020C000AB4214D00CD8A5F58015AB420FD005F566
:1020D0007025AB420BD0A5F58015AB421FD106E0B1
:1020E000744DAB4203D005F58035AB4217D18B68F8
:1020F000A3B1012B0DD04261082410E0CC680EE0A2
:10210000CC6804340BE0CC68083408E0CC680C34AC
:1021100005E00261082402E0002400E00424BEF18E
:10212000FF0F37D806464FEA8C0233680F259540DB
:1021300023EA050304FA02F2134333604B6813F0F9
:10214000805F59D05C4B9A6942F001029A619B69A9
:1021500003F001030193019B4FEA9C02951C574B2E
:1021600053F825600CF00305AD000F23AB4026EAC1
:102170000306534B984214D003F58063984279D0FC
:1021800003F58063984277D003F58063984206D0C8
:10219000042307E0061DACF108029200C5E7032303
:1021A00000E00023AB4033430232444D45F8223077
:1021B0004B6813F4801F61D0424A936843EA0E03D0
:1021C00093604B6813F4001F5ED03E4AD36843EA25
:1021D0000E03D3604B6813F4003F5BD0394A536859
:1021E00043EA0E0353604B6813F4803F58D0354ADE
:1021F000136843EA0E0313600CF1010C0B6833FA09
:102200000CF253D0012202FA0CF203EA020E32EA77
:102210000303F1D14B68122B3FF651AF122B3FF65F
:102220007EAF01A555F823F0EF200008FD2000083F
:1022300007210008192100081F2100081F2100089C
:102240001F2100081F2100081F2100081F2100086E
:102250001F2100081F2100081F2100081F2100085E
:102260001F2100081F2100081F210008012100086C
:102270000D210008012395E7022393E7114A936893
:1022800023EA0E0393609CE70E4AD36823EA0E0309
:10229000D3609FE70B4A536823EA0E035360A2E71B
:1022A000084A136823EA0E031360A5E702B070BD65
:1022B0000000221000003110001002400000014018
:1022C00000080140000401408368194201D0012048
:1022D0007047002070470AB101617047090401612D
:1022E0007047C36801EA030221EA030141EA02419F
:1022F00001617047002808DB0901C9B200F16040A4
:1023000000F5614080F80013704700F00F000901EC
:10231000C9B2014B1954704714ED00E000B500F04C
:102320000700C0F1070CBCF1040F28BF4FF0040CEC
:10233000031D062B0FD9C31E4FF0FF3E0EFA0CF003
:1023400021EA000199400EFA03FE22EA0E0241EA58
:1023500002005DF804FB0023EEE70000074AD368A3
:1023600023F4E0631B041B0C000200F4E060034351
:1023700043F0BF6343F40033D360704700ED00E0E7
:1023800010B50446054BD868C0F30220FFF7C6FF1E
:1023900001462046FFF7AEFF10BD00BF00ED00E094
:1023A0000138B0F1807F0BD24FF0E0235861054A2D
:1023B000F02182F823100020986107221A617047EB
:1023C0000120704700ED00E003685A6912F4806F45
:1023D00001D1002070476FF480625A6100230363CB
:1023E000202280F83D2080F83E30026C42F004024A
:1023F000026480F83C30012070472DE9F041064628
:102400000C46174698463BE0FFF716FB069BC01AA2
:10241000404502D8B8F1000F32D1012D18D03368F1
:102420009B6924EA03039BB2B3FA83F35B099F42DF
:1024300026D100233363202286F83D2086F83E30E3
:10244000326C42F02002326486F83C30012027E0F2
:1024500033685B6924EA03039BB2B3FA83F35B0935
:10246000E5E733685B6924EA030C1FFA8CFCBCFACD
:102470008CFC4FEA5C1C674511D1B8F1FF3FC3D11A
:10248000C4F30745012DECD033689B6924EA030CA3
:102490001FFA8CFCBCFA8CFC4FEA5C1CEBE70020BA
:1024A000BDE8F0812DE9F84305460E469046994671
:1024B00053E01A6842F400721A602B686FF480626D
:1024C0005A6100232B63202285F83D2085F83E3099
:1024D0002A6C42F004022A6485F83C3001204AE06C
:1024E000FFF7AAFAA0EB0900404502D8B8F1000FA7
:1024F00033D1012F17D02B689B6926EA03039BB2C7
:10250000003B18BF012343B300232B63202285F82F
:102510003D2085F83E302A6C42F020022A6485F87E
:102520003C30012027E02B685B6926EA03039BB25D
:10253000003B18BF0123E6E72B689C6926EA0404E8
:10254000A4B2003C18BF0124A4B12B685A6912F44C
:10255000806FAED1B8F1FF3FC2D1C6F30747012F5C
:10256000EAD12B685C6926EA0404A4B2003C18BFD7
:102570000124E9E70020BDE8F8830000F0B583B04E
:1025800004460D4616461F46C36A082B0DD0012B84
:102590000BD013F5803F08D0036B122B0AD10268D1
:1025A000136843F48073136004E02268136843F4F3
:1025B000807313600097334600224FF001112046CC
:1025C000FFF71BFF80B92369B3F5804F16D123684D
:1025D00005F0FE051D613B46324613492046FFF7D4
:1025E00061FFF8B903B0F0BD23681B6813F4807F66
:1025F00002D04FF4007323640320F3E7EB11226849
:1026000003F0060343F0F00313613B4632460749EB
:102610002046FFF747FF18B92368EDB21D61DAE7DE
:102620000120DFE70120DDE70200010008000100D2
:102630002DE9F04184B004460D4616461F46C26A95
:1026400001680B6843F480630B60082A0DD0012AEF
:102650000BD012F5803F08D0036B112B0AD1026812
:10266000136843F48073136004E02268136843F432
:10267000807313600097334600224FF0011120460B
:10268000FFF7BBFE98B92369B3F5804F19D12368D2
:1026900045F00105EDB21D613B4632462A49204610
:1026A000FFF700FF00284CD104B0BDE8F08123689B
:1026B0001B6813F4807F02D04FF40073236403205F
:1026C000F2E74FEAE51808F00608236848F0F00240
:1026D0001A613B4632461D492046FFF7E3FE08B12A
:1026E0000120E1E72368EDB21D613B463246164901
:1026F0002046FFF7D7FE08B10120D5E7002203925C
:10270000236859690391996903910399196841F400
:1027100080711960009733464FF001112046FFF792
:102720006CFE20B9226848F0F1031361B4E7236816
:102730001B6813F4807F02D04FF4007323640320DE
:10274000B2E70120B0E700BF02000100080001006D
:1027500070B504460D46164623685B6913F0800F7A
:1027600021D12046FFF730FEF8B9B5F1FF3FF3D095
:10277000FFF762F9801BA84201D8002DECD1236835
:102780005B6913F0800FE7D100232363202284F8D4
:102790003D2084F83E30226C42F02002226484F80E
:1027A0003C30012000E0002070BD0120FCE700006B
:1027B0002DE9F04385B004460D4691461F46DDF8ED
:1027C00030800D9E0368196841F48071196000968D
:1027D000434600224FF00111FFF70FFE60B9236856
:1027E00005F0FE051D613346424626492046FFF7A7
:1027F00059FE68B1012008E023681B6813F4807F4C
:1028000002D04FF400732364032005B0BDE8F083C9
:102810000023039323685A6903929B690393039BE4
:10282000324641462046FFF793FF30B9012F0FD1C2
:1028300023685FFA89F61E61E7E7236C042B01D059
:102840000120E2E72268136843F400731360F7E79E
:1028500023684FEA19221A61324641462046FFF7A3
:1028600077FF20B923685FFA89F61E61CDE7236CF4
:10287000042B01D00120C8E72268136843F40073D9
:102880001360F7E7020001002DE9F04784B0044629
:102890000D46164699460C9FDDF834800268136891
:1028A00043F4806313600368196841F48071196010
:1028B000CDF800803B4600224FF00111FFF79DFD4F
:1028C00070B95FFA85FA236805F0FE051D6143467D
:1028D0003A4641492046FFF7E5FD68B1012008E08E
:1028E00023681B6813F4807F02D04FF400732364C5
:1028F000032004B0BDE8F0870023039323685A69DE
:1029000003929B690393039B424639462046FFF797
:102910001FFF80B9B9F1010F18D12368F6B21E610B
:10292000424639462046FFF713FF68B3236C042B59
:1029300024D00120DDE7236C042B01D00120D8E74F
:102940002268136843F400731360F7E72368320AC0
:102950001A61424639462046FFF7FAFE18B9236845
:10296000F6B21E61DCE7236C042B01D00120C0E726
:102970002268136843F400731360F7E72268136852
:1029800043F400731360D4E72268136843F4807340
:102990001360CDF800803B4600224FF00111204625
:1029A000FFF72BFD68B922684AF001031361434623
:1029B0003A4609492046FFF775FD002899D00120C5
:1029C00097E723681B6813F4807F02D04FF40073ED
:1029D000236403208DE700BF0200010070B50446A8
:1029E0000D46164623685B6913F0040F21D120467B
:1029F000FFF7EAFCF8B9B5F1FF3FF3D0FFF71CF899
:102A0000801BA84201D8002DECD123685B6913F02C
:102A1000040FE7D100232363202284F83D2084F8AB
:102A20003E30226C42F02002226484F83C300120C7
:102A300000E0002070BD0120FCE770B504460D46A3
:102A4000164614E06FF010025A610023236320221F
:102A500084F83D2084F83E30226C226484F83C30B7
:102A6000012025E023685B6913F0400F10D0236834
:102A7000586910F0400F1AD1586910F0100FE1D1C9
:102A8000FEF7DAFF801BA842ECD8002DEFD1E9E772
:102A900000232363202284F83D2084F83E30226CFA
:102AA00042F02002226484F83C30012000E0002043
:102AB00070BD0000002800F0CC8070B5044690F88E
:102AC0003D30002B77D0242384F83D3022681368F2
:102AD00023F0010313602268136843F4004313607A
:102AE0002268136823F400431360FFF7C3FA626897
:102AF0005A4B9A4264D85A4B98428CBF0023012308
:102B0000002B40F0A8805749A1FB00318B0C2568B1
:102B10006A6822F03F0242EA91426A6021680A6ACA
:102B200022F03F0266684D4DAE424FD80133134349
:102B30000B622168CA6922F44F4222F0FF026568E5
:102B4000464B9D424CD8431E6D00B3FBF5F3013359
:102B500040F6FC70034278D0C3F30B031A43CA61FA
:102B600021680B6823F0C003E269206A0243134323
:102B70000B6021688B6823F4034323F0FF03226971
:102B8000E068024313438B602168CB6823F0FF03A6
:102B90006269A06902431343CB602268136843F063
:102BA0000103136000202064202384F83D3020635B
:102BB00084F83E0070BD80F83C3000F025FE82E7CE
:102BC000294B98428CBF0023012399E74FF4967557
:102BD00005FB03F3254DA5FB03539B090133A6E732
:102BE000A668BEB9431E05EB450CB3FBFCF30133ED
:102BF000C3F30B03B3FA83F35B0943BBC6B9431EAC
:102C000005EB4505B3FBF5F30133C3F30B0343F4C5
:102C10000043A3E7431E05EB850C0CEB8C0CB3FBC8
:102C2000FCF30133C3F30B03B3FA83F35B09E4E76B
:102C3000431E05EB850505EB8505B3FBF5F3013375
:102C4000C3F30B0343F4404388E7042386E70123DF
:102C500084E7012070470120ACE700BFA086010097
:102C60007F841E0083DE1B43FF083D00D34D6210AE
:102C70002DE9F04385B004460F46904699460C9ED8
:102C8000FEF7DAFE94F83D10202904D002273846DA
:102C900005B0BDE8F08305460090192301224F4995
:102CA0002046FFF7AAFB002840F0928094F83C30C1
:102CB000012B00F08F80012384F83C3023681A68D0
:102CC00012F0010F03D11A6842F001021A60226863
:102CD000136823F400631360212384F83D3010232C
:102CE00084F83E3000232364C4F82480A4F82A909A
:102CF000638D23853A4BE3622B46324639462046A4
:102D0000FFF73CFC0746002866D1002303932368A5
:102D10005A6903929B690393039B11E0236C042B74
:102D200001D00127B3E72268136843F400731360EE
:102D3000F7E72A4631462046FFF750FE00282ED1FD
:102D4000238D002B36D02A4631462046FFF700FD62
:102D50000028E3D1626A236812781A61606A431C12
:102D60006362618D89B2013989B26185238D013B2E
:102D70009BB223852268516911F0040FD9D0002B32
:102D8000D7D043781361636A01336362638D9BB26A
:102D9000013B9BB26385238D013B2385C9E7236CEF
:102DA000042B01D0012772E72268136843F40073F3
:102DB0001360F7E72268136843F40073136020235D
:102DC00084F83D30002384F83E3084F83C305EE7E0
:102DD00002275CE702275AE7012758E702001000A4
:102DE0000000FFFF2DE9F04389B004460F469146ED
:102DF0009846109E00230793FEF71EFE94F83D3080
:102E0000202B04D00227384609B0BDE8F0830546E0
:102E10000090192301229E492046FFF7EEFA002870
:102E200040F07D8194F83C30012B00F07A81012341
:102E300084F83C3023681A6812F0010F03D11A6835
:102E400042F001021A602268136823F400631360E1
:102E5000222384F83D30102384F83E30002323647D
:102E6000C4F82490A4F82A80638D2385894BE362FB
:102E70002B46324639462046FFF7DAFB0746002844
:102E800040F05181238D5BB9039323685A69039203
:102E90009A690392039A1A6842F400721A6076E003
:102EA000012B0FD0022B21D02268136843F48063DA
:102EB00013600023069323685A6906929B69069360
:102EC000069B64E02268136823F48063136072B683
:102ED0000023049323685A6904929A690492049A1D
:102EE0001A6842F400721A6062B650E022681368F1
:102EF00043F40063136072B60023059323685A6994
:102F000005929A690592059A1A6822F480621A60FD
:102F100062B63CE02A4631462046FFF78EFD002887
:102F200040F0038123681A69636A1A70636A013387
:102F30006362238D013B2385638D9BB2013B9BB272
:102F4000638524E072B62268136843F4007313604B
:102F500023681A69636A1A70636A01336362238D96
:102F6000013B2385638D9BB2013B9BB2638562B6B7
:102F700023681A69636A1A70636A01336362238D76
:102F8000013B2385638D9BB2013B9BB26385218D01
:102F9000002900F0BB80032900F284800129B9D008
:102FA00002290AD10095334600223B492046FFF70B
:102FB00024FA0028C6D0012725E7009533460022D1
:102FC00035492046FFF719FA002840F0B080226802
:102FD000136823F48063136072B623681A69636A06
:102FE0001A70636A01336362238D013B2385638D0D
:102FF0009BB2013B9BB26385284B1B68DB08284AC8
:10300000A2FB03231B0A03EB8303C3EBC303079356
:103010000799013907910799002928D023685A692F
:1030200012F0040FF4D01A6842F400721A60236898
:103030001A69636A1A70636A01336362238D013B04
:103040002385638D9BB2013B9BB2638562B6236887
:103050001A69636A1A70636A01336362238D013BE4
:103060002385638D9BB2013B9BB263858FE7002371
:103070002363202284F83D2084F83E30226C42F005
:103080002002226462B684F83C300127BBE600BF10
:10309000020010000000FFFF0400010008000020F3
:1030A00089B5F8142A4631462046FFF7C6FC0028A9
:1030B0003FD123681A69636A1A70636A01336362D5
:1030C000228D013A92B22285638D9BB2013B9BB265
:1030D00063852368596911F0040F3FF458AF032A40
:1030E0000FD023681A69636A1A70636A01336362D6
:1030F000238D013B2385638D9BB2013B9BB263858E
:1031000045E71A6822F480621A60EAE7202384F80F
:103110003D30002384F83E3084F83C3073E60227CB
:1031200071E602276FE601276DE601276BE60127AE
:1031300069E6012767E600BF2DE9F04383B0044646
:103140000F46904699460C9EFEF776FC94F83D207B
:10315000202A03D0022003B0BDE8F083054600908A
:10316000192301224A492046FFF747F9002840F079
:10317000898094F83C30012B00F08680012384F88C
:103180003C3023681A6812F0010F03D11A6842F02C
:1031900001021A602268136823F40063136021237C
:1031A00084F83D30402384F83E30002323640A9B9A
:1031B0006362BDF82C306385638D2385354BE362F4
:1031C000019500964B46424639462046FFF7F0FAF5
:1031D00000285BD1238D002B35D02A46314620466E
:1031E000FFF7B6FA20BB626A236812781A61626A36
:1031F000531C6362218D013989B22185638D9BB295
:10320000013B9BB263852368586910F0040FE1D03D
:103210000029DFD052781A61636A01336362238D1B
:10322000013B2385638D9BB2013B9BB26385D1E754
:10323000236C042B01D001208DE72268136843F42E
:1032400000731360F7E72A4631462046FFF7C6FBB6
:1032500050B1236C042B01D001207CE72268136855
:1032600043F400731360F7E72268136843F40073B4
:103270001360202384F83D30002384F83E3084F826
:103280003C3068E7022066E7022064E7012062E73D
:10329000020010000000FFFF2DE9F04389B0044652
:1032A0000F4690469946129E00230793FEF7C4FBF3
:1032B00094F83D30202B04D00227384609B0BDE8F1
:1032C000F083054600901923012297492046FFF715
:1032D00094F8002840F0748194F83C30012B00F001
:1032E0007181012384F83C3023681A6812F0010FC1
:1032F00003D11A6842F001021A602268136823F4AD
:1033000000631360222384F83D30402384F83E306C
:1033100000232364109B6362BDF844306385638D92
:103320002385824BE362019500964B46424639461F
:103330002046FFF7A9FA0746002840F04581238D73
:103340005BB9039323685A6903929A690392039ABB
:103350001A6842F400721A6076E0012B0FD0022B3B
:1033600021D02268136843F480631360002306931E
:1033700023685A6906929B690693069B64E022685B
:10338000136823F48063136072B6002304932368E8
:103390005A6904929A690492049A1A6842F4007273
:1033A0001A6062B650E02268136843F40063136049
:1033B00072B60023059323685A6905929A690592AB
:1033C000059A1A6822F480621A6062B63CE02A46C6
:1033D00031462046FFF731FB002840F0F780236894
:1033E0001A69636A1A70636A01336362238D013B51
:1033F0002385638D9BB2013B9BB2638524E072B64B
:103400002268136843F40073136023681A69636ABF
:103410001A70636A01336362238D013B2385638DD8
:103420009BB2013B9BB2638562B623681A69636AEB
:103430001A70636A01336362238D013B2385638DB8
:103440009BB2013B9BB26385238D002B00F0AF80C4
:10345000032B00F28280012BB9D0022B0AD10095F8
:103460003346002232492046FEF7C7FF0028C6D067
:10347000012722E70095334600222D492046FEF71A
:10348000BCFF002840F0A4802268136823F4806306
:10349000136072B623681A69636A1A70636A01332B
:1034A0006362238D013B2385638D9BB2013B9BB2FD
:1034B0006385204B1B68DB081F4AA2FB03231B0A02
:1034C00003EB8303C3EBC3030793079B013B079302
:1034D000079B002B32D023685A6912F0040FF4D0F6
:1034E0001A6842F400721A6023681A69636A1A70D3
:1034F000636A01336362238D013B2385638D9BB235
:10350000013B9BB2638562B623681A69636A1A70CD
:10351000636A01336362238D013B2385638D9BB214
:10352000013B9BB263858FE7020010000000FFFFA4
:10353000040001000800002089B5F814236320224C
:1035400084F83D2084F83E30226C42F02002226450
:1035500062B684F83C300127AFE62A463146204661
:10356000FFF76BFA002835D123681A69636A1A706D
:10357000626A531C6362238D013B2385638D9BB27A
:10358000013B9BB263852368596911F0040F3FF436
:103590005BAF1B695370636A01336362238D013B28
:1035A0002385638D9BB2013B9BB263854CE720234F
:1035B00084F83D30002384F83E3084F83C307CE6CB
:1035C00002277AE6022778E6012776E6012774E6E5
:1035D000012772E6012770E67047000010B5034628
:1035E0000C4A0D490D48006840B10C48006803447E
:1035F000521A934206D8094A136010BD0748084C76
:103600000460F2E701F036FF0C2303604FF0FF3057
:10361000F3E700BF005000200004000088020020F3
:10362000180500200120704708B501F023FF16237C
:1036300003604FF0FF3008BD08B54FF0FF31FFF7D2
:10364000F3FFFEE770B50C461646002506E0AFF323
:103650000080214601F8010B01350C46B542F6DB2E
:10366000304670BD70B50C461646002504E014F8CF
:10367000010BAFF300800135B542F8DB304670BD79
:103680004FF0FF3070474FF400534B6000207047FD
:1036900001207047002070472DE9F04788B004AD45
:1036A00000240494059406940794354B9A6942F0DB
:1036B00010029A619A6902F010020092009A9A69C7
:1036C00042F020029A619A6902F020020192019A66
:1036D0009A6942F004029A619A6902F00402029225
:1036E000029A9A6942F008029A619B6903F0080302
:1036F0000393039BDFF88CA022464FF40051504601
:10370000FEF7E9FDDFF8809022464FF4004148467D
:10371000FEF7E1FD1D4E224618213046FEF7DBFD87
:103720004FF4005304934FF00108CDF81480069431
:103730000227079729465046FEF7BCFC4FF400438A
:103740000493CDF814800694079729464846FEF75F
:10375000B1FC18230493CDF81480069407972946EA
:103760003046FEF7A7FC4FF440730493059406948B
:1037700029463046FEF79EFC08B0BDE8F08700BF42
:10378000001002400010014000080140000C014000
:1037900008B50B480B4B03600B4B43600023836061
:1037A000C3604FF48042026143618361C36103627D
:1037B000FFF780F900B908BDFDF734FCFBE700BF57
:1037C000E002002000540040A086010008B50B482C
:1037D0000B4B03600B4B436000238360C3604FF4CB
:1037E0008042026143618361C3610362FFF762F952
:1037F00000B908BDFDF716FCFBE700BF8C020020F6
:1038000000580040A086010010B588B00023049342
:103810000593069307930368224A934204D0224AF1
:1038200093421FD008B010BD204CA36943F0080399
:10383000A361A36903F008030093009BC0230493D2
:10384000122305930323079304A91948FEF732FCBA
:10385000E36943F40013E361E36903F400130193A4
:10386000019BDFE7114CA36943F00803A361A3693F
:1038700003F008030293029B4FF440630493122366
:1038800005930323079304A90948FEF713FCE36992
:1038900043F48003E361E36903F480030393039B30
:1038A000C0E700BF00540040005800400010024034
:1038B000000C014008B50A480A4B03604FF4165348
:1038C000436000238360C36003610C224261836113
:1038D000C361FDF7DFFF00B908BDFDF7A3FBFBE700
:1038E000340300200038014030B587B00023029334
:1038F0000393049305930268184B9A4201D007B0D2
:1039000030BD03F558439A6942F480429A619A693E
:1039100002F480420092009A9A6942F004029A618D
:103920009B6903F004030193019B4FF4007302931E
:10393000022303930323059302AD094C2946204635
:10394000FEF7B8FB4FF480630293002303930493C4
:1039500029462046FEF7AEFBD1E700BF0038014004
:10396000000801400368B3F1804F00D0704782B077
:1039700003F50433DA6942F00102DA61DB6903F02E
:1039800001030193019B02B07047000000B587B0AE
:10399000002302930393049305930368B3F1804FCC
:1039A00002D007B05DF804FB03F504339A6942F0D6
:1039B00004029A619B6903F004030193019B0123B4
:1039C000029302230393059302A90248FEF772FBB8
:1039D000E7E700BF0008014000B58FB000230A935D
:1039E0000B930C930D930893099301930293039304
:1039F000049305930693079321484FF08042026099
:103A000007224260836040F2E732C2600361802394
:103A10008361FDF76FFC20BB4FF480530A930AA922
:103A20001748FDF77DFDF8B91548FDF78FFCF0B993
:103A300000230893099308A91148FDF769FEC8B946
:103A400060230193002202920392059201A90C487F
:103A5000FDF7D6FC88B90A48FFF798FF0FB05DF86C
:103A600004FBFDF7DFFAD7E7FDF7DCFADCE7FDF74B
:103A7000D9FADDE7FDF7D6FAE2E7FDF7D3FAEAE790
:103A80007C03002000B585B08DF80C008DF80D107A
:103A90004FF47A730093022303AAD02103480068ED
:103AA000FFF7E6F805B05DF804FB00BFC403002093
:103AB00030B587B08DF80F000B4C4FF47A75009538
:103AC00001230DF10F02D0212068FFF7D1F80095F6
:103AD00001230DF11702D0212068FFF783F99DF82B
:103AE000170007B030BD00BFC403002010B5044666
:103AF00000B180240020FFF7DBFF00F07F012143AD
:103B00000020FFF7BFFF10BD08B5034B1860002071
:103B1000FFF7ECFF08BD00BFC403002008B500207C
:103B2000FFF7C6FFC0F3C01008BD08B50820FFF7B7
:103B3000BFFF40B208BD08B50920FFF7B9FF08BDB7
:103B400010B50C46C1B20820FFF79CFF21460920A2
:103B5000FFF798FF10BD030900F00F0003EB83038C
:103B600000EB4300C0B2704708B50320FFF7A0FF89
:103B7000FFF7F1FF08BD08B50420FFF799FFFFF735
:103B8000EAFF08BD08B50520FFF792FFFFF7E3FF46
:103B900008BD10B51020FFF78BFF00EB800000EB95
:103BA00080008400A4B20620FFF782FFFFF7D3FF56
:103BB000204480B210BD08B50220FFF779FF00F065
:103BC0003F00FFF7C8FF08BD08B50120FFF770FFF1
:103BD000FFF7C1FF08BD08B50020FFF769FF00F03F
:103BE0007F00FFF7B8FF08BD064BA3FB0023DB08EF
:103BF0001A01D2B203EB8303A0EB43001044C0B21E
:103C0000704700BFCDCCCCCC08B5FFF7EDFF014627
:103C10000320FFF737FF08BD08B5FFF7E5FF0146B2
:103C20000420FFF72FFF08BD08B5FFF7DDFF0146B1
:103C30000520FFF727FF08BD38B504460949A1FB59
:103C400000314D09C1F347111020FFF71BFF64231A
:103C500003FB1540C0B2FFF7C7FF01460620FFF780
:103C600011FF38BD1F85EB5108B500F03F00FFF78D
:103C7000BBFF01460220FFF705FF08BD08B5FFF7AF
:103C8000B3FF01460120FFF7FDFE08BD10B5044655
:103C9000FFF744FF2043C0B2FFF7A6FF0146002014
:103CA000FFF7F0FE10BD2DE9F04186B00546642314
:103CB0000293012301930DF1170200927522D02186
:103CC000FFF7EAFA9DF81730682B03D0012006B001
:103CD000BDE8F08100248DF816404FF06408CDF85F
:103CE0000880012601960DF11607009733466B22D6
:103CF000D0212846FFF720FA07238DF81630CDF89B
:103D000008800196009733461922D0212846FFF7F4
:103D100013FA8DF81640CDF80880019600973346C7
:103D20001C22D0212846FFF707FA8DF81640CDF85F
:103D300008800196009733461B22D0212846FFF7C2
:103D4000FBF92046C3E72DE9F04792B08246CDE962
:103D50000C23D0E90834CDE904341A462346DDE9C2
:103D60001A01FCF7E1F9DAE90645DDE91C23FCF765
:103D700093FB02460B4620462946FCF7D7F9064638
:103D80000F46CDE90667CAE90667DAE90A89DAE982
:103D900010120C461546DDE91C23CDE900452046EE
:103DA0002946FCF779FB02460B46CDE90223DAE906
:103DB0000C6732463B46FCF7B7F9DAE90E45224676
:103DC0002B46FCF7B1F9DAE90023FCF7AFF9DDE99E
:103DD0001C23FCF761FB02460B4640464946FCF7B4
:103DE000A5F980468946CAE90A89DDE902233046F9
:103DF0003946FCF799F90A460146CDE90812CAE9A5
:103E00000C12DDE9022320462946FCF78DF9034612
:103E10000C46CDE90234CAE90E34DDE91C23DAE9A7
:103E20000201FCF739FB02460B46DDE90001FCF715
:103E30007DF905460E46CDE90A56CAE91056DAE97B
:103E4000042340464946FCF771F906460F460246F0
:103E50000B4640464946FCF749FC04460D46CDE971
:103E60000E4532463B46DDE90201FCF73FFC0646C3
:103E70000F46CDE90067CDE91067DDE906673246F8
:103E80003B46DDE90C01FCF74FF902460B46CDE954
:103E9000062320462946FCF7FFFA02460B46304629
:103EA0003946FCF743F906460F46CAE90667DDE9DD
:103EB0000623DDE90001FCF7EFFA02460B46DDE9D7
:103EC0000401FCF733F9CAE9080122462B464046B3
:103ED0004946FCF7E1FA02460B4640464946FCF7E4
:103EE00023F9CAE90A0122462B46DDE908452046A6
:103EF0002946FCF7D1FA02460B4620462946FCF734
:103F000013F9CAE90C01DDE9002340464946FCF7F4
:103F1000C3FA02460B46DDE90201FCF705F9CAE9DE
:103F20000E01DDE9002320462946FCF7B5FA0246DA
:103F30000B46DDE90A01FCF7F7F8CAE91001304643
:103F4000394612B0BDE8F0872DE9F04F89B00C4634
:103F5000642302930E23019304AB009301233B22BD
:103F6000D021FFF799F99DF810309DF8110040EA33
:103F7000032000B220809DF812309DF8138048EA9B
:103F800003280FFA88F8A4F802809DF814309DF8F1
:103F9000157047EA03273FB2A7809DF816502D02FF
:103FA0002DB29DF817301D439DF818309DF819A0CB
:103FB0004AEA032A0FFA8AFAA4F820A09DF81A30D8
:103FC0009DF81B9049EA03290FFA89F9A4F8229079
:103FD0009DF81C309DF81D6046EA032636B2A68483
:103FE000FCF7F0F90022764BFCF756FAC4E902011F
:103FF0004046FCF7E7F90022714BFCF74DFAC4E9A3
:1040000004013846FCF7DEF967A3D3E90023FCF787
:104010006DFBC4E906012846FCF740FE6949FCF740
:1040200045FF6949FCF786FD20645046FCF7CAF954
:104030005FA3D3E90023FCF759FBC4E90A01484612
:10404000FCF7C0F95AA3D3E90023FCF74FFBC4E9FE
:104050000C013046FCF7B6F955A3D3E90023FCF771
:1040600045FBC4E90E01FDF7E7FC584D2B68C01A6B
:10407000FCF798F90022564BFCF738FB804689463E
:10408000FDF7DAFC2860B4F90050B4F9046006FBCF
:1040900006F005FB0500FCF795F904F055FD824696
:1040A0008B4600220023FCF75FFC002866D1B4F9A0
:1040B0000200FCF787F952465B46FCF717FB04F059
:1040C0006BFD3DA3D3E90023FCF7E6F982468B465E
:1040D0006D423046FCF776F906460F462846FCF757
:1040E00071F932463B4604F02DFD33A3D3E900239A
:1040F000FCF7D2F906460F460022364BFCF73EFC91
:1041000030B10022344BD4E91401FCF755FC78B9E6
:104110000022314B30463946FCF74EFC002832D0A5
:1041200000222C4BD4E91401FCF728FC00282AD0EB
:104130002A4BC3E90667C4E91467D4E9142310467F
:1041400023F000410022244BFCF736FC30B1D4E9C7
:104150000A23104603F10041C4E90A01CDE90289AE
:10416000D4E90A23CDE9002352465B461C48FFF7F9
:10417000EAFDC4E9120109B0BDE8F08F4FF0000A72
:104180004FF0000BA4E7CDE90289D4E90C23CDE977
:10419000002332463B461148FFF7D5FDC4E9140120
:1041A000CBE700BFAFF30080000000000029CC4047
:1041B0000000000000606040F8C1631ADCA54C40BC
:1041C0000000103F0000AA43B81E1242C80300209E
:1041D00000408F40008056C00080564010000020F4
:1041E0005800002008B504211048FDF727FA1048B0
:1041F000FFF78AFC00210820FFF7A2FC1220FFF73E
:104200000BFD0820FFF710FD4FF4FD60FFF714FDD4
:104210000720FFF7F9FC0120FFF726FD0120FFF73B
:104220002DFD1E20FFF732FD08BD00BF7C030020DE
:104230008C0200204FF0804332225A637047000006
:1042400038B54FF400512148FEF74BF86420FDF7D4
:10425000F9FB1F4C012208212046FEF73CF8002202
:1042600010212046FEF737F81A4D00224FF4004186
:104270002846FEF730F86420FDF7E4FB0122082110
:104280002046FEF728F8012210212046FEF723F8E9
:1042900000224FF400412846FEF71DF86420FDF788
:1042A000D1FB012208212046FEF715F8002210213B
:1042B0002046FEF710F801224FF400412846FEF791
:1042C0000AF86420FDF7BEFB38BD00BF00100140B6
:1042D000000C01400008014030B58FB00D4D4FF487
:1042E00080712846FDF7F0FF04464FF40071284620
:1042F000FDF7EAFF034601AD22460749284601F0D3
:1043000001F86423322229460448FDF7F3FA0FB07E
:1043100030BD00BF000C0140F492000834030020BF
:104320002DE9F04FA1B0FFF726FC0746FFF72AFC66
:104330000646FFF72EFC0546FFF716FCFFF73BFC91
:104340008046FFF741FC8146FFF745FC8246FFF7B8
:10435000ECFB8346FFF7EFFB07AC0590CDF810B000
:10436000CDF80CA0CDF80890CDF804800097334626
:104370002A460849204600F0C5FF2046FBF7C8FE44
:104380004FF47A7382B221460348FDF7B3FA21B0A5
:10439000BDE8F08F20930008340300202DE9F04F92
:1043A000BBB02C48FFF77FFC0128FAD024A929488C
:1043B000FFF7CAFDDDE92601FCF766FB0446DDE9EF
:1043C0002801FCF761FB0546DDE92A01FCF75CFBEF
:1043D0008046DDE92E01FCF757FB8146DDE930011F
:1043E000FCF752FB8246DDE93201FCF74DFB8346C8
:1043F0002046FBF7F9FF06460F460BAC5846FBF785
:10440000F3FFCDE908015046FBF7EEFFCDE90601C9
:104410004846FBF7E9FFCDE904014046FBF7E4FF1E
:10442000CDE902012846FBF7DFFFCDE90001324666
:104430003B460949204600F065FF2046FBF768FE31
:104440004FF47A7382B221460448FDF753FA3BB029
:10445000BDE8F08FE00200205C93000834030020E8
:10446000FFF7BAF80B480C490C4A002302E0D45875
:10447000C4500433C4188C42F9D3094A094C0023B0
:1044800001E013600432A242FBD300F0F9FFFCF715
:10449000F4FD70470000002068020020209800080A
:1044A0006802002018050020FEE7002B2DE9F047E8
:1044B0001D46BBBF03F100431D4600232D2388B0DA
:1044C0001446B8BF1446129A109E1370149BDDF860
:1044D0004CA023F02008B8F1460F05D0B8F1450FE5
:1044E00000D10136022300E0032307AA049206AAA2
:1044F000CDE902A2CDE9003622462B4601F084F830
:10450000B8F1470F074619D1119BDB070ED500EB19
:1045100006090022002320462946FCF725FA08B1A7
:10452000CDF81C903022079B4B451ED33846079B85
:10453000159ADB1B136008B0BDE8F087B8F1460F91
:1045400000EB0609E5D10378302B0AD100220023C5
:1045500020462946FCF708FA18B9C6F10106CAF840
:104560000060DAF800309944D3E7591C07911A70BB
:10457000D9E7F7B50029B6BF2D232B2349420929D6
:104580000270437029DD0DF107031D460A27B1FBB8
:10459000F7F61A4607FB1614303402F8014C0C46A5
:1045A000632C314603F1FF33F1DC3031941E03F804
:1045B000011C2346411CAB420AD30DF109039B1A8F
:1045C000AC4288BF002302330344181A03B0F0BD85
:1045D00013F8016B01F8016FEDE730233031837080
:1045E000C170031DF1E700002DE9F04F91B00C46BA
:1045F000DDF8688016461F46054600F0F1FE0368A8
:1046000018460893FBF784FD00230E93D8F800307A
:104610000990073323F0070303F1080294F818A068
:10462000D4F800B0C8F80020D3E9008929F000438D
:104630000B93CDF828804FF0FF32DDE90A01C4E981
:1046400012899C4BFCF7C2F970BBDDE90A014FF0FF
:10465000FF32984BFCF79CF930BB00220023404608
:104660004946FCF78BF910B12D2384F84330924A68
:10467000924BBAF1470F8CBF9046984603234FF0F8
:10468000000923612BF004032360334621462846AA
:1046900000970FAA00F0D4F9013040F090804FF05D
:1046A000FF3011B0BDE8F08F42464B4640464946C8
:1046B000FCF78CF948B14B46002BB8BF2D23804A3C
:1046C000B8BF84F843307F4BD3E763680AF0DF015B
:1046D0005A1C3FD10623636000224BF480632360A1
:1046E00006920EAACDE904A20DAA03920DF133029F
:1046F000CDE9013263684246009328464B460A9151
:10470000FFF7D3FE0A99804647290D9928D1C81C86
:1047100002DB6368994240DDAAF1020A5FFA8AFA75
:104720005246013904F150000D91FFF722FF0E9A15
:1047300081461318012A236102DC2268D20701D5C1
:10474000013323619DF83330002B9ED02D2384F854
:1047500043309AE74729BFD1002BBDD10123BAE7E7
:10476000BAF1650FDCD9BAF1660F18D10029636878
:104770000BDD216113B92268D00702D501330B4448
:1047800023614FF00009A165DCE713B92268D20765
:1047900001D50233F4E70123F2E74FF0670A0E9BDD
:1047A000994205DB23682161D807EAD54B1CE7E76E
:1047B0000029CCBF0122C1F102021344E0E72368C3
:1047C0005A0507D42369424631462846B847013086
:1047D0002BD164E7BAF1650F40F2DC80D4E9120115
:1047E00000220023FCF7C0F8002833D00123314613
:1047F0002846354AB84701303FF451AFDDE90D385E
:10480000434502DB2368D8070FD5DDE9082331468D
:104810002846B84701303FF442AF4FF0000908F195
:10482000FF3804F11A0AC84509DC23689B0700F128
:104830000281E0680F9B9842B8BF184631E7012318
:10484000524631462846B84701303FF428AF09F1B7
:104850000109E8E70D9B002B38DC0123314628468F
:10486000194AB84701303FF41AAFDDE90D3959EA6A
:10487000030302D12368D907D7D5DDE908233146E0
:104880002846B84701303FF40AAF4FF0000A04F160
:104890001A0B0D9B5B42534501DC4B4693E701230A
:1048A0005A4631462846B84701303FF4F8AE0AF17F
:1048B000010AEEE7FFFFEF7FA9930008A593000828
:1048C000B1930008AD930008B5930008A36DDDF81F
:1048D00038A05345A8BF5346002B994636DC4FF00D
:1048E000000B29EAE97904F11A02A36D0A93A3EBFC
:1048F00009035B4531DC0D9B9A453ADC2368DA07F6
:1049000037D40D9BAAEB03090A9BAAEB0303994535
:10491000A8BF9946B9F1000F33DC4FF0000829EA2F
:10492000E97904F11A0B0D9BAAEB0303A3EB09032E
:1049300043457FF77AAF01235A4631462846B847A8
:1049400001303FF4ACAE08F10108ECE742463146D5
:104950002846B8470130C2D1A1E601233146284696
:104960000A92B84701303FF49AAE0A9A0BF1010B54
:10497000BBE73146DDE908232846B8470130C0D1FE
:104980008DE60A9A4B46314628464244B8470130E4
:10499000C3D184E6DDF838A0BAF1010F01DCDB07F2
:1049A00036D50123424631462846B84701303FF408
:1049B00076AEDDE9082331462846B84701303FF49A
:1049C0006EAED4E91201002200230AF1FF3AFBF790
:1049D000CBFFC0B9534608F1010231462846B8471B
:1049E00001300CD15BE601235A4631462846B847D0
:1049F00001303FF454AE08F10108D045F3DB4B46DB
:104A000004F15002E0E64FF0000804F11A0BF4E75D
:104A100001234246E1E701234A4631462846B8478A
:104A200001303FF43CAE08F10108E3680F995B1ACE
:104A30004345F0DCFDE64FF0000804F11909F4E706
:104A40002DE9F047164698468A680B690746934257
:104A5000B8BF1346336091F843200C46DDF8209030
:104A60000AB1013333602368990642BF33680233C9
:104A70003360256815F0060506D104F1190AE368CC
:104A800032689B1AAB422BDC94F843302268003B1F
:104A900018BF0123920630D44146384604F1430240
:104AA000C847013023D02368226903F00603042B92
:104AB00014BF002533684FF0000608BFE56804F115
:104AC0001A0408BFED1A54F8123C08BF25EAE57530
:104AD0009342C4BF9B1AED18B5421AD1002008E0DA
:104AE0000123524641463846C847013003D14FF0B2
:104AF000FF30BDE8F0870135C1E73020E11881F8CB
:104B000043005A1C94F845102244023382F84310A3
:104B1000C2E70123224641463846C8470130E6D065
:104B20000136D9E72DE9FF470F7E9146782F804661
:104B30000C469A460C9E01F1430207D8622F0AD810
:104B4000002F00F0D180582F00F0B88004F1420609
:104B500084F842703AE0A7F16303152BF6D801A15F
:104B600051F823F0BD4B0008D14B00084D4B000815
:104B70004D4B00084D4B00084D4B0008D14B000831
:104B80004D4B00084D4B00084D4B00084D4B0008A5
:104B9000CF4C0008FB4B0008894C00084D4B000827
:104BA0004D4B0008F14C00084D4B0008FB4B000832
:104BB0004D4B00084D4B0008914C000833681A1DFE
:104BC0001B68326004F1420684F8423001239CE005
:104BD00033682068191D3160060601D51D6803E0A1
:104BE0004506FBD5B3F90050002D03DA2D236D42A5
:104BF00084F843300A23584811E0216833680806D6
:104C000053F8045B02D4490648BFADB26F2F33603E
:104C100014BF0A2308235048002184F84310666813
:104C2000002EA66005DB21682E4321F004012160DF
:104C30004BD01646B5FBF3F103FB1157C75D06F8E1
:104C4000017D2F46BB420D46F4D9082B0BD12368BA
:104C5000DF0708D5236961689942DEBF302306F873
:104C6000013C06F1FF36921B22614B46214640462D
:104C7000CDF800A003AAFFF7E3FE01304AD14FF0C0
:104C8000FF3004B0BDE8F087236843F020032360C1
:104C90007827324884F84570236831681F0651F838
:104CA000045B02D45F0648BFADB23160D90744BF90
:104CB00043F0200323601DB11023ADE72648E9E748
:104CC000236823F020032360F6E71646BDE7336828
:104CD0002568181D616930602E061B6801D51960B2
:104CE00002E06806FBD51980002316462361BCE765
:104CF000336800211A1D32601E686268304600F079
:104D0000E6FB08B1801B606063682361002384F8C0
:104D10004330AAE73246494640462369D04701302E
:104D2000ADD023689B0713D4E068039B9842B8BFBB
:104D30001846A6E70123324649464046D04701308F
:104D40009DD00135E36803995B1AAB42F2DCEBE7D7
:104D5000002504F11906F5E7B7930008C893000889
:104D60002DE9F04F87B003938B6817465A1EB2F5B2
:104D7000AE7F82BF6FF4AE7503EB050B40F25D139F
:104D80000A464FF0000588BF8B600B68804643F4ED
:104D9000F06342F81C3B0C4698BF4FF0000B1646E0
:104DA000AA46A946CDE9045501920295A26852B1DE
:104DB0003B681B784E2B65D8402B3DD8A3F12B01C7
:104DC000C8B20E283BD9B9F1000F03D0236823F4F1
:104DD000807323600AF1FF3ABAF1010F00F21881E3
:104DE000019B9E4200F20981012007B0BDE8F08FCF
:104DF000A3F161020D2AE6D801A151F822F000BF0B
:104E0000474F0008C74D0008C74D0008C74D0008B0
:104E1000A74F00087F4F0008C74D0008C74D000886
:104E2000554F0008C74D0008C74D0008C74D000882
:104E3000C74D00080D4F0008A3F14102DAE70E2923
:104E4000C1D801A050F821F0FD4E0008C74D000860
:104E5000FD4E0008934F0008C74D0008A54E0008FE
:104E6000E34E0008E34E0008E34E0008E34E00085E
:104E7000E34E0008E34E0008E34E0008E34E00084E
:104E8000E34E00086E2B09D8602BB1D8542B7BD091
:104E9000592B98D1072D96D108252CE0742B73D06F
:104EA000792BF6E72168C8051BD521F08001216028
:104EB00009F10109BBF1000F03D001320BF1FF3BF7
:104EC000A260A368013BA3602369013323617B686F
:104ED000013B002B7B6040F387803B6801333B60E4
:104EE00064E71AEB05017FF46EAF0D468A4622682F
:104EF00022F4C072226006F8013BE2E72268100645
:104F00007FF561AF22F080022260F4E7BAF1000F72
:104F10000ED1B9F1000F0ED1226802F4E061B1F5B3
:104F2000E06F08D122F4F0624FF0010A2260E2E75C
:104F3000BAF1020F55D0012D02D0042D7FF443AFFA
:104F40000135EDB2D7E7BAF1010F7FF43CAF4FF076
:104F5000020AD0E77DB9B9F1000F7FF437AF2268BC
:104F600002F4E061B1F5E06F40F0038122F4F062F9
:104F700001252260BFE7032DE2D0052DDEE7022DDB
:104F80007FF421AF0325B6E7062D7FF41CAF07257C
:104F9000B1E7226891057FF516AF22F420722260F6
:104FA000CDF80890A7E7226802F4A061B1F5806F00
:104FB00006D050057FF507AFB9F1000F00F0D9809A
:104FC000910558BF029922F4F06258BFA9EB010184
:104FD00042F4C0724FF0000958BFCDE904162260B8
:104FE00089E74FF0030A86E739464046D4F8803116
:104FF000984700283FF4DAAEE5E6D4F87C313A462B
:10500000404616F8011D98472369013B2361E7E6F6
:105010006B1E062B24D8022D36D8019B9E427FF6AC
:10502000E3AED4F87C313A46404616F8011D984765
:105030002369013B2361F0E7D4F87C313A464046CE
:105040001BF8011D98472369013B23610AF1FF3AD0
:105050005FFA8AFABAF1020FEED1033DEDB2761B88
:105060002368DA0530D55B0511D5019B9E427FF69A
:10507000BBAED4F87C313A46404616F8011D98473D
:105080002369013B2361F0E7AA46B346DEE716F841
:10509000011C2369652903F1FF3306F1FF35236104
:1050A0000CD045290AD0D4F87C313A46404698477E
:1050B000236916F8021C013BB51E23613A4640469F
:1050C000D4F87C3198472E46226812F0100201D0A5
:1050D00000208AE63270236803F4C063B3F5806F62
:1050E0001CD1029B9945A3EB090223D10022404623
:1050F000019902F0E1FB039B25681B6815F0020F84
:1051000006460F4603F104021FD003990A601B688C
:10511000C3E90067E3680133E360D9E7049B002B30
:10512000E4D005990A234046013102F045FC049B76
:10513000059EC21A04F26F139E4228BF04F5B7768B
:1051400030460D4900F0DEF8D0E76D07DDD4039D51
:105150002A601D6802460B46FBF738FC20B1074861
:1051600000F0C4F92860D5E730463946FBF78CFCDF
:10517000F8E74FF000092DE6D9930008EE940008F7
:10518000002310B50446C0E90033C0E9043383604E
:1051900081814366C2818361194608225C3000F038
:1051A00016F90D4B246263620C4BA3620C4BE36255
:1051B0000C4B23630C4B9C4206D003F168029442D3
:1051C00002D0D0339C4205D104F15800BDE8104014
:1051D00000F07AB910BD00BF495300086B530008B6
:1051E000A3530008C7530008CC030020024A034918
:1051F000034800F069B800BFA00000206D7D0008E2
:10520000B000002041680C4B10B59942044601D013
:1052100002F0ACFDA168094B994202D0204602F091
:10522000A5FDE168064B994204D02046BDE8104038
:1052300002F09CBD10BD00BFCC0300203404002050
:105240009C04002010B50B4B0B4C0C4A20461A60F6
:1052500004210022FFF794FF04F1680001220921D4
:10526000FFF78EFF04F1D0000222BDE810401221AA
:10527000FFF786BF04050020CC030020ED51000895
:10528000014800F022B900BF0D050020014800F0E0
:105290001DB900BF0D05002010B50446FFF7F0FF53
:1052A000236A1BB1BDE81040FFF7F0BF044B236237
:1052B000044B1B68002BF5D1FFF7C4FFF2E700BFDA
:1052C00005520008040500202DE9F84307468846EA
:1052D00014460026D4E90195B9F1010905D52468E1
:1052E000002CF7D13046BDE8F883AB89012B07D9F4
:1052F000B5F90E30013303D029463846C04706437E
:105300006835E9E70EB46FF0004110B500249DB098
:105310001FAB02900690079104910948094953F880
:10532000042B0591006802A901931B9402F0A2FBD3
:10533000029B1C701DB0BDE8104003B0704700BF59
:10534000AC0000200802FFFF10B50C46B1F90E10AA
:1053500000F06CF80028ABBF636DA3891B1823F421
:105360008053ACBF6365A38110BD2DE9F0411F469A
:105370008B890546DB050C46164605D5022300221F
:10538000B1F90E1000F040F8A389324623F480539F
:10539000A38128463B46B4F90E10BDE8F04100F069
:1053A00057B810B50C46B1F90E1000F02DF8431C9B
:1053B000A38915BF606523F4805343F48053A38110
:1053C00018BFA38110BDB1F90E1000F00DB803464F
:1053D0000244934200D1704703F8011BF9E7000033
:1053E00000487047EC01002038B50023054D044605
:1053F00008462B60FEF744F9431C02D12B6803B129
:10540000236038BD0805002038B50446084611461B
:105410000022054D2A601A46FEF73CF9431C02D1D2
:105420002B6803B1236038BD0805002038B5044659
:10543000084611460022054D2A601A46FEF702F979
:10544000431C02D12B6803B1236038BD080500203E
:1054500038B50446084611460022054D2A601A4612
:10546000FEF700F9431C02D12B6803B1236038BD5D
:1054700008050020014B1868704700BFAC000020F1
:1054800070B500260C4D0D4C641BA410A64209D12A
:1054900003F00EFF00260A4D0A4C641BA410A6421E
:1054A00005D170BD55F8043B98470136EEE755F835
:1054B000043B98470136F2E718980008189800084E
:1054C000189800081C9800087047704770470346FA
:1054D00010B5C9B202449342184601D1002003E03E
:1054E000047801338C42F6D110BD000000487047AB
:1054F0000000C07F2DE9F74F03690C690746A342FE
:105500007EDB013CA30000F1140501F114080093B7
:1055100005EB8403019358F8243055F82420013317
:105520009A42B2FBF3F608EB84092ED34FF0000A3F
:10553000C446AE46D3465CF8043B98B206FB00A0D6
:105540001B0C020C06FB0323DEF8002080B292B293
:10555000121A5A44DEF800004FEA134A9BB2C3EB1A
:10556000224303EB104392B242EA0342E1454FEA81
:10557000234B4EF8042BDED2009BEB582BB9019B3A
:10558000043B9D421A462FD33C61384601F0B4F9E2
:10559000002825DB2946002058F8042BD1F800C04C
:1055A0001FFA82FE1FFA8CF3A3EB0E030344120CC6
:1055B000C2EB234202EB1C429BB243EA0243C145C9
:1055C0004FEA224041F8043BE6D255F8242005EB8F
:1055D000840322B9043B9D421A460BD33C61013639
:1055E000304603B0BDE8F08F1268043B002ACBD1EF
:1055F000013CC6E71268043B002AEFD1013CEAE710
:105600000020EEE7000000002DE9F04F14461D4693
:10561000C76997B08346CDE90445239E7FB9102022
:1056200000F0F8FD0246CBF81C0020B9EF21A84B92
:10563000A84802F013FCC0E901770760C760DBF8F7
:105640001C30196859B15A68012393404A608B6035
:10565000584600F0D5FE0022DBF81C301A602B1EE5
:10566000AFBF0023012223F000430593A8BF33609E
:10567000DDF81480984BB8BF326033EA080312D1CA
:1056800042F20F73229A1360C8F31303234300F00E
:105690004685249BDFF844A2002B00F048850AF1E0
:1056A000030300F042BDDDE90423CDE90C23DDE96D
:1056B0000C0100220023FBF757F9074658B10123DC
:1056C000229A1360249B13B1854B249A1360DFF850
:1056D00014A200F02CBD14AB019315AB00935846F7
:1056E000DDE90C2301F020FAC8F30A568146002EAA
:1056F00077D0DDE90C010D9BA6F2FF36C3F313034F
:1057000043F07F5343F44013129719460022764B1F
:10571000FAF70AFD68A3D3E90023FAF7BDFE68A3F0
:10572000D3E90023FAF702FD044630460D46FAF7A6
:1057300049FE65A3D3E90023FAF7AEFE02460B4605
:1057400020462946FAF7F2FC04460D46FBF754F9C9
:1057500000220746002320462946FBF70FF940B1F7
:105760003846FAF72FFE22462B46FBF7FDF800B924
:10577000013F162F53D8DDE90C015C4B03EBC70347
:10578000D3E90023FBF7FAF800284AD00023013FB1
:105790000F93149B9B1B5A1E46BFC3F101080023A5
:1057A0004FF00008099248BF0993002F3BDB099B8B
:1057B0000E973B44099300230A93209B092B63D83F
:1057C000052BC4BF043B2093209BC8BF0024A3F13A
:1057D0000203D8BF0124032B62D8DFE803F0515342
:1057E000362BDDE914631E4406F23243202BC1BF81
:1057F000C3F1400308FA03F806F2124324FA03F354
:10580000D6BFC3F1200348EA030004FA03F0FAF715
:10581000C9FD0122A1F1F873013E129275E701233F
:10582000B6E70F90B5E77B420A930023A8EB070881
:105830000E93C2E701230B93219BFB1808930133BE
:10584000012B0393B8BF012306E001230B93219B97
:10585000002B28DD0893039300210422DBF81C00B1
:1058600002F114059D4223D94160584600F088FD9D
:10587000824600283ED1024640F2AF111C4BD7E6CB
:105880000023E3E70023D6E7012400230B942093B1
:105890004FF0FF3300220893039312232192DBE79A
:1058A00001230B93F4E701231A4608930393F5E7CA
:1058B00001315200D4E700BF61436F63A787D23F35
:1058C000B3C8608B288AC63FFB799F501344D33FEF
:1058D000EB930008029400080000F07FE7930008B3
:1058E000B6930008B59300080000F83F70950008D3
:1058F00044940008DBF81C301860039B0E2B00F268
:10590000A180002C00F09E80002F33DD9C4B07F01F
:105910000F0203EBC203F805D3E90034CDE90634E6
:105920004FEA271416D5DDE90C01964B0326D3E97F
:105930000823FAF7DBFECDE9040104F00F04914DD2
:1059400054B9DDE90623DDE90401FAF7CFFECDE91C
:10595000040128E00226F2E7E10708D5DDE90601A7
:10596000D5E90023FAF798FDCDE906010136641068
:105970000835E5E700F0AF80DDE90C017C42804BA3
:1059800004F00F0203EBC203D3E90023FAF784FD0E
:1059900002260023CDE904017A4D2411002C40F0A9
:1059A0008F80002BD3D1DDE904450F9B002B00F045
:1059B0009480002220462946734BFAF7DFFF002827
:1059C00000F08B80039B002B00F08780089B002B4E
:1059D00034DD7B1E20460693002229466B4BFAF7E6
:1059E0005BFDCDE90401089C01363046FAF7EAFC7C
:1059F000DDE90423FAF750FD0022654BFAF796FB28
:105A00000546A1F15076002C6AD1DDE9040100229F
:105A1000604BFAF789FB02460B46CDE904232A4680
:105A20003346FAF7C9FF002840F08682DDE9040119
:105A30002A4606F10043FAF7A1FF38BBDDE90C3432
:105A4000CDE90434159B002BC0F258810E2F00F3D2
:105A500055814B4B03EBC703D3E90034CDE9063442
:105A6000219B002B80F2E580039B002B00F3E1805B
:105A70000CD1DDE906010022464BFAF70DFDDDE908
:105A80000423FAF78FFF002800F0548200242546F3
:105A9000219B5646DB43069300272146584600F0DB
:105AA000AFFC002D00F0BD802FB1AF4203D03946CE
:105AB000584600F0A5FC2946584600F0A1FCB0E08D
:105AC000E20705D5D5E90023FAF7E6FC0123013604
:105AD0006410083562E7022665E7039C069784E7B1
