:020000040800F2
:10000000005000201D3E0008C90F0008CB0F00085B
:10001000CD0F0008CF0F0008D10F0008000000002E
:10002000000000000000000000000000D30F0008E6
:10003000D50F000800000000D70F0008D90F0008F6
:10004000653E0008653E0008653E0008653E000804
:10005000653E0008653E0008653E0008653E0008F4
:10006000653E0008653E0008653E0008653E0008E4
:10007000653E0008653E0008653E0008653E0008D4
:10008000653E0008653E0008653E0008653E0008C4
:10009000653E0008653E0008653E0008653E0008B4
:1000A000653E0008653E0008653E0008653E0008A4
:1000B000653E0008653E0008653E0008653E000894
:1000C000653E0008653E0008653E0008653E000884
:1000D000653E0008653E0008653E0008653E000874
:1000E000653E0008653E0008653E0008000000000F
:1000F0000000000000000000000000000000000000
:0C01000000000000000000005FF808F1A3
:1001100081F0004102E000BF83F0004330B54FEAB8
:1001200041044FEA430594EA050F08BF90EA020F25
:100130001FBF54EA000C55EA020C7FEA645C7FEAB8
:10014000655C00F0E2804FEA5454D4EB5555B8BFDB
:100150006D420CDD2C4480EA020281EA030382EA4C
:10016000000083EA010180EA020281EA0303362DDE
:1001700088BF30BD11F0004F4FEA01314FF4801CB1
:100180004CEA113102D0404261EB410113F0004FC3
:100190004FEA03334CEA133302D0524263EB43037A
:1001A00094EA050F00F0A780A4F10104D5F1200E18
:1001B0000DDB02FA0EFC22FA05F2801841F1000173
:1001C00003FA0EF2801843FA05F359410EE0A5F147
:1001D00020050EF1200E012A03FA0EFC28BF4CF078
:1001E000020C43FA05F3C01851EBE37101F000452E
:1001F00007D54FF0000EDCF1000C7EEB00006EEB3B
:100200000101B1F5801F1BD3B1F5001F0CD34908C4
:100210005FEA30004FEA3C0C04F101044FEA44521B
:1002200012F5800F80F09A80BCF1004F08BF5FEAA2
:10023000500C50F1000041EB045141EA050130BD82
:100240005FEA4C0C404141EB0101013C28BFB1F594
:10025000801FE9D291F0000F04BF01460020B1FADF
:1002600081F308BF2033A3F10B03B3F120020CDAB2
:100270000C3208DD02F1140CC2F10C0201FA0CF090
:1002800021FA02F10CE002F11402D8BFC2F1200CF5
:1002900001FA02F120FA0CFCDCBF41EA0C019040AB
:1002A000E41AA2BF01EB0451294330BD6FEA0404F4
:1002B0001F3C1CDA0C340EDC04F11404C4F12002DF
:1002C00020FA04F001FA02F340EA030021FA04F3F1
:1002D00045EA030130BDC4F10C04C4F1200220FA48
:1002E00002F001FA04F340EA0300294630BD21FA86
:1002F00004F0294630BD94F0000F83F4801306BF4C
:1003000081F480110134013D4EE77FEA645C18BF3F
:100310007FEA655C29D094EA050F08BF90EA020FD6
:1003200005D054EA000C04BF1946104630BD91EACE
:10033000030F1EBF0021002030BD5FEA545C05D1D1
:100340004000494128BF41F0004130BD14F5800410
:100350003CBF01F5801130BD01F0004545F0FE4184
:1003600041F470014FF0000030BD7FEA645C1ABFB9
:10037000194610467FEA655C1CBF0B46024650EAF0
:10038000013406BF52EA033591EA030F41F400211C
:1003900030BD00BF90F0000F04BF0021704730B5A2
:1003A0004FF4806404F132044FF000054FF0000177
:1003B00050E700BF90F0000F04BF0021704730B538
:1003C0004FF4806404F1320410F0004548BF40420D
:1003D0004FF000013EE700BF42004FEAE2014FEA62
:1003E00031014FEA02701FBF12F07F4393F07F4F3D
:1003F00081F06051704732F07F4208BF704793F040
:100400007F4F04BF41F40021704730B54FF4607452
:1004100001F0004521F000411CE700BF50EA010255
:1004200008BF704730B54FF000050AE050EA0102FE
:1004300008BF704730B511F0004502D5404261EB6E
:1004400041014FF4806404F132045FEA915C3FF4AF
:10045000D8AE4FF003025FEADC0C18BF03325FEA4C
:10046000DC0C18BF033202EBDC02C2F1200300FAFD
:1004700003FC20FA02F001FA03FE40EA0E0021FA22
:1004800002F11444BDE600BF70B54FF0FF0C4CF410
:10049000E06C1CEA11541DBF1CEA135594EA0C0FC2
:1004A00095EA0C0F00F0DEF82C4481EA030621EAFD
:1004B0004C5123EA4C5350EA013518BF52EA033538
:1004C00041F4801143F4801338D0A0FB02CE4FF0EA
:1004D0000005E1FB02E506F00042E0FB03E54FF01A
:1004E0000006E1FB03569CF0000F18BF4EF0010E12
:1004F000A4F1FF04B6F5007F64F5407404D25FEA0E
:100500004E0E6D4146EB060642EAC62141EA5551C0
:100510004FEAC52040EA5E504FEACE2EB4F1FD0C02
:1005200088BFBCF5E06F1ED8BEF1004F08BF5FEA80
:10053000500E50F1000041EB045170BD06F0004632
:1005400046EA010140EA020081EA0301B4EB5C04DF
:10055000C2BFD4EB0C0541EA045170BD41F48011D7
:100560004FF0000E013C00F3AB8014F1360FDEBFFC
:10057000002001F0004170BDC4F10004203C35DAD8
:100580000C341BDC04F11404C4F1200500FA05F35B
:1005900020FA04F001FA05F240EA020001F00042FC
:1005A00021F0004110EBD37021FA04F642EB060172
:1005B0005EEA430E08BF20EAD37070BDC4F10C049C
:1005C000C4F1200500FA04F320FA05F001FA04F260
:1005D00040EA020001F0004110EBD37041F100014C
:1005E0005EEA430E08BF20EAD37070BDC4F1200557
:1005F00000FA05F24EEA020E20FA04F301FA05F2BF
:1006000043EA020321FA04F001F0004121FA04F266
:1006100020EA020000EBD3705EEA430E08BF20EA36
:10062000D37070BD94F0000F0FD101F00046400070
:1006300041EB010111F4801F08BF013CF7D041EAF2
:10064000060195F0000F18BF704703F000465200F6
:1006500043EB030313F4801F08BF013DF7D043EAC7
:100660000603704794EA0C0F0CEA135518BF95EA7D
:100670000C0F0CD050EA410618BF52EA4306D1D104
:1006800081EA030101F000414FF0000070BD50EA23
:10069000410606BF1046194652EA430619D094EAAD
:1006A0000C0F02D150EA013613D195EA0C0F05D197
:1006B00052EA03361CBF104619460AD181EA0301EB
:1006C00001F0004141F0FE4141F470014FF00000A3
:1006D00070BD41F0FE4141F4780170BD70B54FF03E
:1006E000FF0C4CF4E06C1CEA11541DBF1CEA1355BE
:1006F00094EA0C0F95EA0C0F00F0A7F8A4EB0504A0
:1007000081EA030E52EA03354FEA013100F0888096
:100710004FEA03334FF0805545EA131343EA12635F
:100720004FEA022245EA111545EA10654FEA002614
:100730000EF000419D4208BF964244F1FD0404F5CD
:10074000407402D25B084FEA3202B61A65EB030529
:100750005B084FEA32024FF480104FF4002CB6EBE6
:10076000020E75EB030E22BFB61A754640EA0C0066
:100770005B084FEA3202B6EB020E75EB030E22BFA6
:10078000B61A754640EA5C005B084FEA3202B6EBE7
:10079000020E75EB030E22BFB61A754640EA9C00A6
:1007A0005B084FEA3202B6EB020E75EB030E22BF76
:1007B000B61A754640EADC0055EA060E18D04FEA34
:1007C000051545EA16754FEA06164FEAC30343EAD4
:1007D00052734FEAC2025FEA1C1CC0D111F4801FA1
:1007E0000BD141EA00014FF000004FF0004CB6E79A
:1007F00011F4801F04BF01430020B4F1FD0C88BF39
:10080000BCF5E06F3FF6AFAEB5EB030C04BFB6EB43
:10081000020C5FEA500C50F1000041EB045170BD36
:100820000EF0004E4EEA113114EB5C04C2BFD4EB63
:100830000C0541EA045170BD41F480114FF0000EE7
:10084000013C90E645EA060E8DE60CEA135594EA63
:100850000C0F08BF95EA0C0F3FF43BAF94EA0C0F66
:100860000AD150EA01347FF434AF95EA0C0F7FF4DB
:1008700025AF104619462CE795EA0C0F06D152EA2F
:1008800003353FF4FDAE1046194622E750EA410613
:1008900018BF52EA43067FF4C5AE50EA41047FF424
:1008A0000DAF52EA43057FF4EBAE12E74FF0FF3C89
:1008B00006E000BF4FF0010C02E000BF4FF0010C5A
:1008C0004DF804CD4FEA410C7FEA6C5C4FEA430CD3
:1008D00018BF7FEA6C5C1BD001B050EA410C0CBF22
:1008E00052EA430C91EA030F02BF90EA020F002084
:1008F000704710F1000F91EA030F58BF994208BFEB
:1009000090422CBFD8176FEAE37040F001007047A7
:100910004FEA410C7FEA6C5C02D150EA013C07D1FE
:100920004FEA430C7FEA6C5CD6D152EA033CD3D049
:100930005DF8040B704700BF8446104662468C4643
:100940001946634600E000BF01B5FFF7B7FF002876
:1009500048BF10F1000F01BD4DF808EDFFF7F4FF9F
:100960000CBF012000205DF808FB00BF4DF808ED2A
:10097000FFF7EAFF34BF012000205DF808FB00BF4D
:100980004DF808EDFFF7E0FF94BF012000205DF86F
:1009900008FB00BF4DF808EDFFF7CEFF94BF012024
:1009A00000205DF808FB00BF4DF808EDFFF7C4FF1D
:1009B00034BF012000205DF808FB00BF4FEA410C66
:1009C0007FEA6C5C02D150EA013C0AD14FEA430C49
:1009D0007FEA6C5C02D152EA033C02D14FF0000086
:1009E00070474FF00100704780F0004002E000BF08
:1009F00081F0004142001FBF5FEA410392EA030F0A
:100A00007FEA226C7FEA236C6AD04FEA1262D2EB53
:100A10001363C1BFD218414048404140B8BF5B4258
:100A2000192B88BF704710F0004F40F4000020F0F1
:100A30007F4018BF404211F0004F41F4000121F007
:100A40007F4118BF494292EA030F3FD0A2F1010251
:100A500041FA03FC10EB0C00C3F1200301FA03F18F
:100A600000F0004302D5494260EB4000B0F5000FB2
:100A700013D3B0F1807F06D340084FEA310102F171
:100A80000102FE2A51D2B1F1004F40EBC25008BF23
:100A900020F0010040EA03007047490040EB0000ED
:100AA000013A28BFB0F5000FEDD2B0FA80FCACF1EE
:100AB000080CB2EB0C0200FA0CF0AABF00EBC2501B
:100AC00052421843BCBFD0401843704792F0000F09
:100AD00081F4000106BF80F400000132013BB5E75C
:100AE0004FEA41037FEA226C18BF7FEA236C21D0D2
:100AF00092EA030F04D092F0000F08BF0846704737
:100B000090EA010F1CBF0020704712F07F4F04D104
:100B1000400028BF40F00040704712F100723CBF17
:100B200000F50000704700F0004343F0FE4040F441
:100B3000000070477FEA226216BF08467FEA2363FF
:100B40000146420206BF5FEA412390EA010F40F4EA
:100B5000800070474FF0000304E000BF10F0004336
:100B600048BF40425FEA000C08BF704743F096431D
:100B700001464FF000001CE050EA010208BF704738
:100B80004FF000030AE000BF50EA010208BF7047BF
:100B900011F0004302D5404261EB41015FEA010CD4
:100BA00002BF84460146002043F0B64308BFA3F1CC
:100BB0008053A3F50003BCFA8CF2083AA3EBC253AE
:100BC00010DB01FA02FC634400FA02FCC2F12002CD
:100BD000BCF1004F20FA02F243EB020008BF20F004
:100BE0000100704702F1200201FA02FCC2F120026A
:100BF00050EA4C0021FA02F243EB020008BF20EA5F
:100C0000DC7070474FF0FF0C1CEAD0521EBF1CEA8C
:100C1000D15392EA0C0F93EA0C0F6FD01A4480EA7A
:100C2000010C400218BF5FEA41211ED04FF0006363
:100C300043EA501043EA5111A0FB01310CF000408F
:100C4000B1F5000F3EBF490041EAD3715B0040EAB5
:100C5000010062F17F02FD2A1DD8B3F1004F40EB85
:100C6000C25008BF20F00100704790F0000F0CF058
:100C7000004C08BF49024CEA502040EA51207F3A1C
:100C8000C2BFD2F1FF0340EAC250704740F40000F7
:100C90004FF00003013A5DDC12F1190FDCBF00F0E8
:100CA00000407047C2F10002410021FA02F1C2F196
:100CB000200200FA02FC5FEA310040F1000053EA32
:100CC0004C0308BF20EADC70704792F0000F00F080
:100CD000004C02BF400010F4000F013AF9D040EA86
:100CE0000C0093F0000F01F0004C02BF490011F41A
:100CF000000F013BF9D041EA0C018FE70CEAD15318
:100D000092EA0C0F18BF93EA0C0F0AD030F0004C97
:100D100018BF31F0004CD8D180EA010000F000404B
:100D2000704790F0000F17BF90F0004F084691F009
:100D3000000F91F0004F14D092EA0C0F01D1420243
:100D40000FD193EA0C0F03D14B0218BF084608D10C
:100D500080EA010000F0004040F0FE4040F4000056
:100D6000704740F0FE4040F4400070474FF0FF0CE9
:100D70001CEAD0521EBF1CEAD15392EA0C0F93EA30
:100D80000C0F69D0A2EB030280EA010C49024FEA82
:100D9000402037D04FF0805343EA111143EA10133B
:100DA0000CF000408B4238BF5B0042F17D024FF4F3
:100DB000000C8B4224BF5B1A40EA0C00B3EB510FCE
:100DC00024BFA3EB510340EA5C00B3EB910F24BFB7
:100DD000A3EB910340EA9C00B3EBD10F24BFA3EB3C
:100DE000D10340EADC001B0118BF5FEA1C1CE0D104
:100DF000FD2A3FF650AF8B4240EBC25008BF20F0B7
:100E0000010070470CF0004C4CEA50207F32C2BF0A
:100E1000D2F1FF0340EAC250704740F400004FF0A7
:100E20000003013A37E792F0000F00F0004C02BFD8
:100E3000400010F4000F013AF9D040EA0C0093F0A2
:100E4000000F01F0004C02BF490011F4000F013BFC
:100E5000F9D041EA0C0195E70CEAD15392EA0C0F64
:100E600008D142027FF47DAF93EA0C0F7FF470AF9C
:100E7000084676E793EA0C0F04D14B023FF44CAFDF
:100E800008466EE730F0004C18BF31F0004CCAD174
:100E900030F000427FF45CAF31F000437FF43CAFB0
:100EA0005FE700BF10B5054C237833B9044B13B18D
:100EB0000448AFF300800123237010BDF000002030
:100EC00000000000CC45000808B5034B1BB10349E6
:100ED0000348AFF3008008BD00000000F4000020CC
:100EE000CC45000872B6FEE710B590B006AC2822DB
:100EF0000021204602F0B7FF0023019302930393E1
:100F0000049305930223069301230A9310230B9362
:100F1000204600F09DFC60B90F230193002102914F
:100F200003910491059101A800F0C4FE18B910B016
:100F300010BDFFF7D7FFFFF7D5FF000008B500F0A1
:100F400039FC1D4801F0B6FA0021082001F0C3FA6F
:100F50001D2001F0E3FA022001F0E8FA4FF4FD60F1
:100F600001F0ECFA042001F0D1FA172001F0FEFAAA
:100F70003B2001F005FB1E2001F00AFB00210F4879
:100F800000F0D8FAFFF7B0FF01F0ECF801F0F8F943
:100F900001F064F901F080F902F0EAFE084801F07E
:100FA00004FB0128FAD00749054801F051FC6420F0
:100FB00000F024FCF7E700BFC0010020640200201D
:100FC0006C01002010010020FEE7FEE7FEE7FEE7CF
:100FD000FEE770477047704708B500F0FDFB08BD9D
:100FE00082B00E4B9A6942F001029A619A6902F04E
:100FF00001020092009ADA6942F08052DA61DB69FC
:1010000003F080530193019B054A536823F0E0638A
:1010100043F00073536002B0704700BF00100240FD
:101020000000014030B4026A036A23F00103036246
:101030004568836923F073030C681C4322F00202A5
:101040008B6813430B4A904206D0456084614A681E
:101050004263036230BC704723F00803CA681A4336
:1010600022F0040325F440754A692A438D6915432B
:10107000EBE700BF002C014030B4036A026A22F49F
:10108000807202624468C26922F073020D681543DF
:1010900023F400738A6843EA02230D4A904206D083
:1010A0004460C5614A68C263036230BC704723F480
:1010B0000063CA6843EA022323F4806324F44054A3
:1010C0004A6944EA02148A6944EA0214E8E700BF64
:1010D000002C014030B4036A026A22F4805202629A
:1010E0004468C26922F4E6420D6842EA052223F40C
:1010F00000538D6843EA0533074DA84206D044608B
:10110000C2614A680264036230BC704724F48044C0
:101110004D6944EA8514F2E7002C014010B4036ADB
:10112000046A24F001040462846924F0F00C4CEA9F
:10113000021223F00A030B438261036210BC704762
:1011400010B4036A046A24F010040462846924F46D
:10115000704C4CEA023223F0A00343EA011382618F
:10116000036210BC7047836823F070030B4343F0A5
:10117000070383607047704703681B4A90420AD098
:10118000B0F1804F07D0A2F59432904203D002F51F
:101190008062904203D123F070034A681343124ADD
:1011A00090420AD0B0F1804F07D0A2F5943290421D
:1011B00003D002F58062904203D123F44073CA68E1
:1011C000134323F080034A69134303608B68C362AF
:1011D0000B688362044B984202D00123436170473D
:1011E0000B690363F9E700BF002C014040B310B561
:1011F000044690F83D30F3B1022384F83D30214697
:1012000051F8040BFFF7B8FF012384F8463084F847
:101210003E3084F83F3084F8403084F8413084F820
:10122000423084F8433084F8443084F8453084F800
:101230003D30002010BD80F83C3002F05FFDDBE760
:101240000120704740B310B5044690F83D30F3B12B
:10125000022384F83D30214651F8040BFFF78CFF40
:10126000012384F8463084F83E3084F83F3084F817
:10127000403084F8413084F8423084F8433084F8B8
:10128000443084F8453084F83D30002010BD80F8AB
:101290003C30FFF770FFDBE70120704730B4036A92
:1012A000026A22F0100202624468826922F4E64275
:1012B0000D6842EA052223F020038D6843EA0513F6
:1012C0000C4DA84206D0446082614A688263036282
:1012D00030BC704723F08003CD6843EA051323F048
:1012E000400324F440644D6944EA85048D6944EA6E
:1012F0008504E8E7002C014038B590F83C30012B1C
:101300007BD004460D46012380F83C300C2A6FD870
:1013100001A353F822F000BF4D130008F113000899
:10132000F1130008F113000875130008F113000809
:10133000F1130008F11300089F130008F1130008CF
:10134000F1130008F1130008C71300080068FFF745
:1013500069FE2268936943F00803936122689369E8
:1013600023F0040393612268936929690B43936115
:1013700000203EE00068FFF791FF2268936943F484
:10138000006393612268936923F480639361226808
:101390009369296943EA01239361002029E00068E9
:1013A000FFF76AFE2268D36943F00803D36122681D
:1013B000D36923F00403D3612268D36929690B43FD
:1013C000D361002015E00068FFF784FE2268D3692E
:1013D00043F40063D3612268D36923F48063D3614B
:1013E0002268D369296943EA0123D361002000E020
:1013F0000120002384F83C3038BD0220FCE700BF08
:1014000010B4846824F47F4C42EA03220A4342EA7F
:101410000C02826010BC704790F83C30012B78D0F1
:1014200010B50446012380F83C30022380F83D309B
:101430000268936823F47F4323F0770393600B687B
:10144000602B4CD023D8402B54D011D8202B03D064
:101450000AD80BB1102B05D119462068FFF783FE7F
:10146000002028E0012026E0302BF5D0012022E0EA
:10147000502B0AD1CA6849680068FFF74FFE502117
:101480002068FFF770FE002015E0012013E0B3F59F
:10149000805F3AD0B3F5005F14D0702B37D1CB68A2
:1014A0004A6889680068FFF7ABFF2268936843F0D9
:1014B000770393600020012384F83D30002384F8F3
:1014C0003C3010BDCB684A6889680068FFF798FF18
:1014D0002268936843F4804393600020EBE7CA6876
:1014E00049680068FFF72CFE60212068FFF73BFE8B
:1014F0000020E0E7CA6849680068FFF70FFE402156
:101500002068FFF730FE0020D5E70020D3E7012058
:10151000D1E70220704701F01F014FF0010C0CFAD7
:1015200001FC036A23EA0C030362036A8A40134343
:101530000362704710B50446084649BB94F83E3034
:10154000013B18BF0123002B58D1002836D10223BC
:1015500084F83E30012201462068FFF7DCFF236853
:10156000284A93423AD02368264A93423BD0B3F1AB
:10157000804F38D0A2F59432934234D002F5806285
:10158000934230D01A6842F001021A60002036E01F
:10159000042907D008290BD094F84130013B18BF2B
:1015A0000123D0E794F83F30013B18BF0123CAE77D
:1015B00094F84030013B18BF0123C4E7042805D04C
:1015C000082807D0022384F84130C3E7022384F8B7
:1015D0003F30BFE7022384F84030BBE75A6C42F447
:1015E00000425A64BFE79A6802F00702062A07D051
:1015F0001A6842F001021A60002000E0012010BDCC
:101600000020FCE7002C014090F83C20012A2CD05F
:1016100010B40346012280F83C20022280F83D20CD
:1016200002685068946820F0700C086840EA0C006A
:1016300050601A680E4882420AD0B2F1804F07D03B
:10164000A0F59430824203D000F58060824204D13C
:1016500024F08004496821439160012283F83D20F1
:10166000002083F83C0010BC70470220704700BF88
:10167000002C014010B504460268136923F440535E
:10168000C1680B43136183680269134342691A43BB
:101690000168CB6823F4B05323F00C031343CB60F1
:1016A0000268536923F4407381690B4353610268F4
:1016B000134B9A4220D000F0B9FB024602EB8202A3
:1016C00002EB820263689B00B2FBF3F20D48A0FBC1
:1016D00002314909642303FB11231B013233A0FBB0
:1016E00003035B0903F0F00202EB011203F00F03A6
:1016F000216813448B6010BD00F0A8FB0246DDE7B3
:10170000003801401F85EB5160B310B5044690F8D6
:10171000413013B3242384F841302268D36823F482
:101720000053D3602046FFF7A5FF2268136923F416
:10173000904313612268536923F02A03536122689E
:10174000D36843F40053D36000206064202384F8FE
:10175000413084F84230606310BD80F8403000F0C2
:1017600029FED7E70120704710B504460E4B1A78C2
:101770004FF47A73B3FBF2F30C4A1068B0FBF3F04A
:1017800000F0DAFC68B90F2C01D901200AE0002230
:1017900021464FF0FF3000F0BFFC054B1C600020DD
:1017A00000E0012010BD00BF000000200800002064
:1017B0000400002008B5074A136843F010031360C3
:1017C000032000F097FC0F20FFF7CEFFFFF708FC87
:1017D000002008BD00200240034A1168034B1B781B
:1017E0000B441360704700BF680100200000002018
:1017F000014B1868704700BF6801002038B50446E7
:10180000FFF7F6FF0546B4F1FF3F02D0044B1B780B
:101810001C44FFF7EDFF401BA042FAD338BD00BFC8
:101820000000002082B0084B1B68084AA2FB03237B
:101830005B0A00FB03F3019300BF019B5A1E019258
:10184000002BF9D102B0704708000020D34D621080
:10185000002800F0F18170B582B00446036813F0EF
:10186000010F2CD0994B5B6803F00C03042B1DD0A7
:10187000964B5B6803F00C03082B12D06368B3F53A
:10188000803F41D0002B55D103F1804303F5043351
:101890001A6822F480321A601A6822F480221A60D0
:1018A00037E08A4B5B6813F4803FE7D0874B1B68B7
:1018B00013F4003F03D06368002B00F0BF8123685E
:1018C00013F0020F75D0814B5B6813F00C0F5FD0E3
:1018D0007E4B5B6803F00C03082B54D02369002B6C
:1018E00000F08A807A4B01221A60FFF781FF0546DB
:1018F000764B1B6813F0020F75D1FFF779FF401B81
:101900000228F5D903209EE1704A136843F480331E
:101910001360636843B3FFF76BFF05466B4B1B68AF
:1019200013F4003FCBD1FFF763FF401B6428F5D9C8
:10193000032088E1B3F5A02F09D0644B1A6822F484
:1019400080321A601A6822F480221A60E1E703F1FB
:101950008043A3F53C331A6842F480221A601A6867
:1019600042F480321A60D4E7FFF742FF0546574B36
:101970001B6813F4003FA2D0FFF73AFF401B642816
:10198000F5D903205FE1514B5B6813F4803FA5D18B
:101990004E4B1B6813F0020F03D02369012B40F05C
:1019A0004F814A4A136823F0F803616943EAC1038F
:1019B0001360236813F0080F33D0A369002B5CD0A9
:1019C000434B0122C3F88024FFF712FF05463F4B2B
:1019D0005B6A13F0020F21D1FFF70AFF401B0228B8
:1019E000F5D903202FE1394A136823F0F803616920
:1019F00043EAC1031360DCE7354B00221A60FFF7AE
:101A0000F7FE0546314B1B6813F0020FD1D0FFF7EC
:101A1000EFFE401B0228F5D9032014E10120FFF757
:101A200001FF236813F0040F00F09680274BDB6959
:101A300013F0805F34D1254BDA6942F08052DA61CD
:101A4000DB6903F080530193019B0125214B1B6847
:101A500013F4807F26D0E368012B3DD0002B53D1B7
:101A600003F1804303F504331A6A22F001021A627B
:101A70001A6A22F004021A6233E0154B0022C3F8FE
:101A80008024FFF7B5FE0546104B5B6A13F0020F8A
:101A9000C7D0FFF7ADFE401B0228F5D90320D2E0E6
:101AA0000025D3E70B4A136843F480731360FFF7F4
:101AB0009FFE0646074B1B6813F4807FCBD1FFF7D0
:101AC00097FE801B6428F5D90320BCE0001002407B
:101AD00000004242007000405F4A136A43F0010375
:101AE0001362E36833B3FFF783FE06465A4B1B6A63
:101AF00013F0020F2FD1FFF77BFE801B41F28833DA
:101B00009842F3D903209EE0052B09D0524B1A6A64
:101B100022F001021A621A6A22F004021A62E0E755
:101B20004D4B1A6A42F004021A621A6A42F001022C
:101B30001A62D6E7FFF75CFE0646474B1B6A13F0B6
:101B4000020F08D0FFF754FE801B41F28833984201
:101B5000F3D9032077E0E5B9E369002B72D03E4A60
:101B6000526802F00C02082A56D0022B17D03B4BC9
:101B700000221A66FFF73CFE0446374B1B6813F041
:101B8000007F47D0FFF734FE001B0228F5D9032061
:101B900059E0314AD36923F08053D361DCE72F4BFE
:101BA00000221A66FFF724FE05462B4B1B6813F034
:101BB000007F06D0FFF71CFE401B0228F5D903204A
:101BC00041E0236AB3F5803F1AD023494B6823F4E0
:101BD0007413226A606A024313434B601F4B012255
:101BE0001A66FFF705FE04461B4B1B6813F0007FC7
:101BF0000ED1FFF7FDFD001B0228F5D9032022E0DE
:101C0000154A536823F40033A1680B435360DCE7A3
:101C1000002018E0002016E0012B16D00E4B5B6868
:101C200003F48031226A914211D103F47013626A85
:101C300093420ED1002006E001207047012002E00F
:101C4000012000E0002002B070BD0120FBE7012070
:101C5000F9E70120F7E700BF001002400000424210
:101C60000F4B5B6803F00C02082A01D00D48704747
:101C7000C3F383420C49885C13F4803F0BD0084BBC
:101C80005B68C3F34043094AD35C064A02FB00F099
:101C9000B0FBF3F07047064B03FB00F0704700BF4A
:101CA0000010024000127A00EC450008E8450008E8
:101CB00000093D00002800F0A08070B50D460446E4
:101CC000524B1B6803F007038B420BD24F4A136839
:101CD00023F007030B431360136803F007038B42E1
:101CE00040F08D80236813F0020F17D013F0040F1B
:101CF00004D0474A536843F4E0635360236813F009
:101D0000080F04D0424A536843F460535360404A7A
:101D1000536823F0F003A1680B435360236813F06A
:101D2000010F31D06368012B20D0022B25D0384A17
:101D3000126812F0020F64D035494A6822F003029B
:101D400013434B60FFF754FD0646314B5B6803F0CD
:101D50000C036268B3EB820F16D0FFF749FD801BBE
:101D600041F288339842F0D9032045E0284A1268AE
:101D700012F4003FE0D101203EE0254A126812F043
:101D8000007FD9D1012037E0204B1B6803F0070307
:101D9000AB420AD91D4A136823F007032B43136093
:101DA000136803F00703AB422DD1236813F0040F2F
:101DB00006D0174A536823F4E063E1680B4353608D
:101DC000236813F0080F07D0114A536823F46053B7
:101DD000216943EAC1035360FFF742FF0C4B5B6884
:101DE000C3F303130B4AD35CD8400B4B18600B4B67
:101DF0001868FFF7B9FC002070BD01207047012072
:101E0000FAE70120F8E70120F6E700BF00200240D2
:101E100000100240044600080800002004000020D2
:101E2000014B1868704700BF0800002008B5FFF795
:101E3000F7FF044B5B68C3F30223034AD35CD8402B
:101E400008BD00BF00100240FC45000808B5FFF7C0
:101E5000E7FF044B5B68C3F3C223034AD35CD8405B
:101E600008BD00BF00100240FC45000870B582B0FC
:101E70000024A4469EE07C4DAB4214D00CD8A5F5BE
:101E80008015AB420FD005F57025AB420BD0A5F500
:101E90008015AB421FD106E0744DAB4203D005F56F
:101EA0008035AB4217D18B68A3B1012B0DD04261B5
:101EB000082410E0CC680EE0CC6804340BE0CC6859
:101EC000083408E0CC680C3405E00261082402E024
:101ED000002400E00424BEF1FF0F37D806464FEA85
:101EE0008C0233680F25954023EA050304FA02F2B9
:101EF000134333604B6813F0805F59D05C4B9A6991
:101F000042F001029A619B6903F001030193019B76
:101F10004FEA9C02951C574B53F825600CF00305C3
:101F2000AD000F23AB4026EA0306534B984214D072
:101F300003F58063984279D003F58063984277D0A7
:101F400003F58063984206D0042307E0061DACF138
:101F500008029200C5E7032300E00023AB403343AF
:101F60000232444D45F822304B6813F4801F61D093
:101F7000424A936843EA0E0393604B6813F4001FD0
:101F80005ED03E4AD36843EA0E03D3604B6813F435
:101F9000003F5BD0394A536843EA0E0353604B68F5
:101FA00013F4803F58D0354A136843EA0E03136098
:101FB0000CF1010C0B6833FA0CF253D0012202FA37
:101FC0000CF203EA020E32EA0303F1D14B68122B42
:101FD0003FF651AF122B3FF67EAF01A555F823F027
:101FE000A71E0008B51E0008BF1E0008D11E00086D
:101FF000D71E0008D71E0008D71E0008D71E0008ED
:10200000D71E0008D71E0008D71E0008D71E0008DC
:10201000D71E0008D71E0008D71E0008D71E0008CC
:10202000D71E0008B91E0008C51E0008012395E749
:10203000022393E7114A936823EA0E0393609CE717
:102040000E4AD36823EA0E03D3609FE70B4A536816
:1020500023EA0E035360A2E7084A136823EA0E033B
:102060001360A5E702B070BD00002210000031101F
:10207000001002400000014000080140000401403F
:102080000AB101617047090401617047002808DB4B
:102090000901C9B200F1604000F5614080F8001309
:1020A000704700F00F000901C9B2014B1954704785
:1020B00014ED00E000B500F00700C0F1070CBCF122
:1020C000040F28BF4FF0040C031D062B0FD9C31EAD
:1020D0004FF0FF3E0EFA0CF021EA000199400EFA93
:1020E00003FE22EA0E0241EA02005DF804FB00232F
:1020F000EEE70000074AD36823F4E0631B041B0CDF
:10210000000200F4E060034343F0BF6343F4003394
:10211000D360704700ED00E010B50446054BD86869
:10212000C0F30220FFF7C6FF01462046FFF7AEFFCF
:1021300010BD00BF00ED00E00138B0F1807F0BD290
:102140004FF0E0235861054AF02182F82310002067
:10215000986107221A6170470120704700ED00E086
:10216000704700002DE9F04788B004AD00240494C6
:10217000059406940794354B9A6942F010029A61CF
:102180009A6902F010020092009A9A6942F02002C5
:102190009A619A6902F020020192019A9A6942F0CA
:1021A00004029A619A6902F004020292029A9A6900
:1021B00042F008029A619B6903F008030393039BB2
:1021C000DFF88CA022464FF400515046FFF758FF2D
:1021D000DFF8809022464FF400414846FFF750FF59
:1021E0001D4E224618213046FFF74AFF4FF4005398
:1021F00004934FF00108CDF8148006940227079746
:1022000029465046FFF732FE4FF400430493CDF8C1
:1022100014800694079729464846FFF727FE18239F
:102220000493CDF814800694079729463046FFF7AB
:102230001DFE4FF4407304930594069429463046DE
:10224000FFF714FE08B0BDE8F08700BF00100240A1
:102250000010014000080140000C014008B50B4887
:102260000B4B03600B4B436000238360C3604FF450
:102270008042026143618361C361036200F0ACFF8D
:1022800000B908BDFEF72EFEFBE700BFC00100202D
:1022900000540040A086010008B50B480B4B0360BA
:1022A0000B4B436000238360C3604FF480420261A4
:1022B00043618361C361036200F08EFF00B908BD12
:1022C000FEF710FEFBE700BF6C0100200058004045
:1022D000A086010010B588B00023049305930693EF
:1022E00007930368224A934204D0224A93421FD0A4
:1022F00008B010BD204CA36943F00803A361A36993
:1023000003F008030093009BC0230493122305935A
:102310000323079304A91948FFF7A8FDE36943F4D1
:102320000013E361E36903F400130193019BDFE70A
:10233000114CA36943F00803A361A36903F00803E8
:102340000293029B4FF440630493122305930323EB
:10235000079304A90948FFF789FDE36943F4800363
:10236000E361E36903F480030393039BC0E700BFC9
:10237000005400400058004000100240000C014092
:1023800008B50A480A4B03604FF4E1334360002369
:102390008360C36003610C2242618361C361FFF704
:1023A000B3F900B908BDFEF79DFDFBE7140200205C
:1023B0000038014030B587B00023029303930493A3
:1023C00005930268184B9A4201D007B030BD03F55F
:1023D00058439A6942F480429A619A6902F48042B1
:1023E0000092009A9A6942F004029A619B6903F094
:1023F00004030193019B4FF40073029302230393A0
:102400000323059302AD094C29462046FFF72EFD14
:102410004FF48063029300230393049329462046DC
:10242000FFF724FDD1E700BF00380140000801405C
:1024300000B585B08DF80C008DF80D104FF47A734F
:102440000093022303AAD0210348006800F0A2FFF2
:1024500005B05DF804FB00BF5C02002030B587B01A
:102460008DF80F000B4C4FF47A75009501230DF198
:102470000F02D021206800F08DFF009501230DF19F
:102480001702D021206801F03FF89DF8170007B02F
:1024900030BD00BF5C02002010B5044600B18024AE
:1024A0000020FFF7DBFF00F07F0121430020FFF752
:1024B000BFFF10BD08B5034B18600020FFF7ECFF0D
:1024C00008BD00BF5C02002008B50020FFF7C6FF72
:1024D000C0F3C01008BD10B50C46C1B20820FFF70C
:1024E000A7FF21460920FFF7A3FF10BD064BA3FB62
:1024F0000023DB081A01D2B203EB8303A0EB4300F5
:102500001044C0B2704700BFCDCCCCCC08B5FFF7AB
:10251000EDFF01460320FFF78BFF08BD08B5FFF76D
:10252000E5FF01460420FFF783FF08BD08B5FFF76C
:10253000DDFF01460520FFF77BFF08BD38B50446E7
:102540000949A1FB00314D09C1F347111020FFF7E4
:102550006FFF642303FB1540C0B2FFF7C7FF0146BE
:102560000620FFF765FF38BD1F85EB5108B500F069
:102570003F00FFF7BBFF01460220FFF759FF08BDF0
:1025800008B5FFF7B3FF01460120FFF751FF08BD73
:1025900010B50446FFF798FF2043C0B2FFF7A6FF2F
:1025A00001460020FFF744FF10BD2DE9F04186B041
:1025B000054664230293012301930DF11702009253
:1025C0007522D02101F0FAF99DF81730682B03D05D
:1025D000012006B0BDE8F08100248DF816404FF0D0
:1025E0006408CDF80880012601960DF116070097C2
:1025F00033466B22D021284601F030F907238DF8AD
:102600001630CDF808800196009733461922D02164
:10261000284601F023F98DF81640CDF80880019680
:10262000009733461C22D021284601F017F98DF877
:102630001640CDF808800196009733461B22D02122
:10264000284601F00BF92046C3E72DE9F04792B088
:102650008246CDE90C23D0E90834CDE904341A468A
:102660002346DDE91A01FDF757FDDAE90645DDE904
:102670001C23FDF709FF02460B4620462946FDF7BD
:102680004DFD06460F46CDE90667CAE90667DAE959
:102690000A89DAE910120C461546DDE91C23CDE95A
:1026A000004520462946FDF7EFFE02460B46CDE9E0
:1026B0000223DAE90C6732463B46FDF72DFDDAE9E5
:1026C0000E4522462B46FDF727FDDAE90023FDF7EC
:1026D00025FDDDE91C23FDF7D7FE02460B464046EB
:1026E0004946FDF71BFD80468946CAE90A89DDE9AE
:1026F000022330463946FDF70FFD0A460146CDE973
:102700000812CAE90C12DDE9022320462946FDF72A
:1027100003FD03460C46CDE90234CAE90E34DDE977
:102720001C23DAE90201FDF7AFFE02460B46DDE9A4
:102730000001FDF7F3FC05460E46CDE90A56CAE94D
:102740001056DAE9042340464946FDF7E7FC064601
:102750000F4602460B4640464946FDF7BFFF04467A
:102760000D46CDE90E4532463B46DDE90201FDF757
:10277000B5FF06460F46CDE90067CDE91067DDE9F4
:10278000066732463B46DDE90C01FDF7C5FC024613
:102790000B46CDE9062320462946FDF775FE024685
:1027A0000B4630463946FDF7B9FC06460F46CAE9E6
:1027B0000667DDE90623DDE90001FDF765FE024657
:1027C0000B46DDE90401FDF7A9FCCAE90801224630
:1027D0002B4640464946FDF757FE02460B4640460B
:1027E0004946FDF799FCCAE90A0122462B46DDE974
:1027F000084520462946FDF747FE02460B4620467F
:102800002946FDF789FCCAE90C01DDE900234046B1
:102810004946FDF739FE02460B46DDE90201FDF7A8
:102820007BFCCAE90E01DDE9002320462946FDF7BD
:102830002BFE02460B46DDE90A01FDF76DFCCAE9F5
:1028400010013046394612B0BDE8F08700000000A4
:102850002DE9F04F89B00C46642302930E230193B7
:1028600004AB009301233B22D02101F0A7F89DF88F
:1028700010309DF8110040EA032000B220809DF83E
:1028800012309DF8138048EA03280FFA88F8A4F85C
:1028900002809DF814309DF8157047EA03273FB277
:1028A000A7809DF816502D022DB29DF817301D43BC
:1028B0009DF818309DF819A04AEA032A0FFA8AFAFF
:1028C000A4F820A09DF81A309DF81B9049EA03292E
:1028D0000FFA89F9A4F822909DF81C309DF81D602C
:1028E00046EA032636B2A684FDF764FD0022764B45
:1028F000FDF7CAFDC4E902014046FDF75BFD002279
:10290000714BFDF7C1FDC4E904013846FDF752FDE6
:1029100067A3D3E90023FDF7E1FEC4E906012846D9
:10292000FEF71CF96949FEF721FA6949FEF762F8DA
:1029300020645046FDF73EFD5FA3D3E90023FDF779
:10294000CDFEC4E90A014846FDF734FD5AA3D3E998
:102950000023FDF7C3FEC4E90C013046FDF72AFD54
:1029600055A3D3E90023FDF7B9FEC4E90E01FEF734
:102970003FFF584D2B68C01AFDF70CFD0022564B47
:10298000FDF7ACFE80468946FEF732FF2860B4F9B9
:102990000050B4F9046006FB06F005FB0500FDF7E6
:1029A00009FD01F095FA82468B4600220023FDF7CF
:1029B000D3FF002866D1B4F90200FDF7FBFC5246B4
:1029C0005B46FDF78BFE01F0ABFA3DA3D3E9002394
:1029D000FDF75AFD82468B466D423046FDF7EAFC14
:1029E00006460F462846FDF7E5FC32463B4601F019
:1029F0006DFA33A3D3E90023FDF746FD06460F46E3
:102A00000022364BFDF7B2FF30B10022344BD4E93F
:102A10001401FDF7C9FF78B90022314B3046394621
:102A2000FDF7C2FF002832D000222C4BD4E914015C
:102A3000FDF79CFF00282AD02A4BC3E90667C4E9AA
:102A40001467D4E91423104623F000410022244BDC
:102A5000FDF7AAFF30B1D4E90A23104603F1004183
:102A6000C4E90A01CDE90289D4E90A23CDE90023AA
:102A700052465B461C48FFF7E8FDC4E9120109B065
:102A8000BDE8F08F4FF0000A4FF0000BA4E7CDE94E
:102A90000289D4E90C23CDE9002332463B46114894
:102AA000FFF7D3FDC4E91401CBE700BFAFF300800B
:102AB000000000000029CC400000000000606040E1
:102AC000F8C1631ADCA54C400000103F0000AA4387
:102AD000B81E12426002002000408F40008056C0A5
:102AE00000805640100000205800002003685A69FA
:102AF00012F4806F01D1002070476FF480625A6138
:102B000000230363202280F83D2080F83E30026CD1
:102B100042F00402026480F83C30012070472DE945
:102B2000F04106460C46174698463BE0FEF760FE2D
:102B3000069BC01A404502D8B8F1000F32D1012DD2
:102B400018D033689B6924EA03039BB2B3FA83F37A
:102B50005B099F4226D100233363202286F83D2063
:102B600086F83E30326C42F02002326486F83C3007
:102B7000012027E033685B6924EA03039BB2B3FAC0
:102B800083F35B09E5E733685B6924EA030C1FFA0A
:102B90008CFCBCFA8CFC4FEA5C1C674511D1B8F187
:102BA000FF3FC3D1C4F30745012DECD033689B69C7
:102BB00024EA030C1FFA8CFCBCFA8CFC4FEA5C1C68
:102BC000EBE70020BDE8F0812DE9F84305460E460D
:102BD0009046994653E01A6842F400721A602B68D6
:102BE0006FF480625A6100232B63202285F83D2018
:102BF00085F83E302A6C42F004022A6485F83C30A5
:102C000001204AE0FEF7F4FDA0EB0900404502D8A0
:102C1000B8F1000F33D1012F17D02B689B6926EA3A
:102C200003039BB2003B18BF012343B300232B6374
:102C3000202285F83D2085F83E302A6C42F02002A3
:102C40002A6485F83C30012027E02B685B6926EA7E
:102C500003039BB2003B18BF0123E6E72B689C6986
:102C600026EA0404A4B2003C18BF0124A4B12B68D6
:102C70005A6912F4806FAED1B8F1FF3FC2D1C6F3EA
:102C80000747012FEAD12B685C6926EA0404A4B245
:102C9000003C18BF0124E9E70020BDE8F8830000EC
:102CA000F0B583B004460D4616461F46C36A082B8E
:102CB0000DD0012B0BD013F5803F08D0036B122BE6
:102CC0000AD10268136843F48073136004E0226839
:102CD000136843F4807313600097334600224FF06B
:102CE00001112046FFF71BFF80B92369B3F5804F20
:102CF00016D1236805F0FE051D613B463246134997
:102D00002046FFF761FFF8B903B0F0BD23681B68E8
:102D100013F4807F02D04FF4007323640320F3E7A1
:102D2000EB11226803F0060343F0F00313613B4606
:102D3000324607492046FFF747FF18B92368EDB22E
:102D40001D61DAE70120DFE70120DDE70200010075
:102D5000080001002DE9F04184B004460D461646F6
:102D60001F46C26A01680B6843F480630B60082A3F
:102D70000DD0012A0BD012F5803F08D0036B112B28
:102D80000AD10268136843F48073136004E0226878
:102D9000136843F4807313600097334600224FF0AA
:102DA00001112046FFF7BBFE98B92369B3F5804FA8
:102DB00019D1236845F00105EDB21D613B4632464D
:102DC0002A492046FFF700FF00284CD104B0BDE897
:102DD000F08123681B6813F4807F02D04FF40073E6
:102DE00023640320F2E74FEAE51808F00608236899
:102DF00048F0F0021A613B4632461D492046FFF773
:102E0000E3FE08B10120E1E72368EDB21D613B4616
:102E1000324616492046FFF7D7FE08B10120D5E714
:102E200000220392236859690391996903910399D8
:102E3000196841F480711960009733464FF0011111
:102E40002046FFF76CFE20B9226848F0F1031361B9
:102E5000B4E723681B6813F4807F02D04FF400733B
:102E600023640320B2E70120B0E700BF02000100A5
:102E70000800010070B504460D46164623685B69DC
:102E800013F0800F21D12046FFF730FEF8B9B5F1DD
:102E9000FF3FF3D0FEF7ACFC801BA84201D8002D09
:102EA000ECD123685B6913F0800FE7D10023236323
:102EB000202284F83D2084F83E30226C42F020022B
:102EC000226484F83C30012000E0002070BD012025
:102ED000FCE700002DE9F04385B004460D4691461D
:102EE0001F46DDF830800D9E0368196841F480713B
:102EF00019600096434600224FF00111FFF70FFEC4
:102F000060B9236805F0FE051D6133464246264937
:102F10002046FFF759FE68B1012008E023681B68CE
:102F200013F4807F02D04FF400732364032005B0B4
:102F3000BDE8F0830023039323685A6903929B69D9
:102F40000393039B324641462046FFF793FF30B977
:102F5000012F0FD123685FFA89F61E61E7E7236C22
:102F6000042B01D00120E2E72268136843F40073C8
:102F70001360F7E723684FEA19221A613246414687
:102F80002046FFF777FF20B923685FFA89F61E61B4
:102F9000CDE7236C042B01D00120C8E72268136819
:102FA00043F400731360F7E7020001002DE9F047D6
:102FB00084B004460D46164699460C9FDDF83480D1
:102FC0000268136843F4806313600368196841F46E
:102FD00080711960CDF800803B4600224FF001114E
:102FE000FFF79DFD70B95FFA85FA236805F0FE05CD
:102FF0001D6143463A4641492046FFF7E5FD68B169
:10300000012008E023681B6813F4807F02D04FF48E
:1030100000732364032004B0BDE8F087002303930A
:1030200023685A6903929B690393039B424639467E
:103030002046FFF71FFF80B9B9F1010F18D12368AF
:10304000F6B21E61424639462046FFF713FF68B3C9
:10305000236C042B24D00120DDE7236C042B01D04A
:103060000120D8E72268136843F400731360F7E780
:103070002368320A1A61424639462046FFF7FAFEB3
:1030800018B92368F6B21E61DCE7236C042B01D06B
:103090000120C0E72268136843F400731360F7E768
:1030A0002268136843F400731360D4E7226813683E
:1030B00043F480731360CDF800803B4600224FF04C
:1030C00001112046FFF72BFD68B922684AF0010381
:1030D000136143463A4609492046FFF775FD00282B
:1030E00099D0012097E723681B6813F4807F02D0F2
:1030F0004FF40073236403208DE700BF020001003A
:1031000070B504460D46164623685B6913F0040F3C
:1031100021D12046FFF7EAFCF8B9B5F1FF3FF3D023
:10312000FEF766FB801BA84201D8002DECD1236876
:103130005B6913F0040FE7D100232363202284F896
:103140003D2084F83E30226C42F02002226484F854
:103150003C30012000E0002070BD0120FCE770B58C
:1031600004460D46164614E06FF010025A61002323
:103170002363202284F83D2084F83E30226C2264B0
:1031800084F83C30012025E023685B6913F0400F90
:1031900010D02368586910F0400F1AD1586910F008
:1031A000100FE1D1FEF724FB801BA842ECD8002DC4
:1031B000EFD1E9E700232363202284F83D2084F83F
:1031C0003E30226C42F02002226484F83C30012020
:1031D00000E0002070BD0000002800F0CC8070B539
:1031E000044690F83D30002B77D0242384F83D30FE
:1031F0002268136823F0010313602268136843F404
:10320000004313602268136823F400431360FEF741
:103210000DFE62685A4B9A4264D85A4B98428CBF52
:1032200000230123002B40F0A8805749A1FB003167
:103230008B0C25686A6822F03F0242EA91426A607C
:1032400021680A6A22F03F0266684D4DAE424FD8AF
:10325000013313430B622168CA6922F44F4222F002
:10326000FF026568464B9D424CD8431E6D00B3FB80
:10327000F5F3013340F6FC70034278D0C3F30B033F
:103280001A43CA6121680B6823F0C003E269206A0F
:10329000024313430B6021688B6823F4034323F03C
:1032A000FF032269E068024313438B602168CB6807
:1032B00023F0FF036269A06902431343CB602268D5
:1032C000136843F00103136000202064202384F876
:1032D0003D30206384F83E0070BD80F83C30FEF73E
:1032E000F9FF82E7294B98428CBF0023012399E71D
:1032F0004FF4967505FB03F3254DA5FB03539B097E
:103300000133A6E7A668BEB9431E05EB450CB3FB27
:10331000FCF30133C3F30B03B3FA83F35B0943BB41
:10332000C6B9431E05EB4505B3FBF5F30133C3F303
:103330000B0343F40043A3E7431E05EB850C0CEBA2
:103340008C0CB3FBFCF30133C3F30B03B3FA83F32D
:103350005B09E4E7431E05EB850505EB8505B3FB3B
:10336000F5F30133C3F30B0343F4404388E704232D
:1033700086E7012384E7012070470120ACE700BF06
:10338000A08601007F841E0083DE1B43FF083D00F2
:10339000D34D62102DE9F04385B004460F469046A8
:1033A00099460C9EFEF724FA94F83D10202904D08B
:1033B0000227384605B0BDE8F08305460090192382
:1033C00001224F492046FFF7AAFB002840F09280D7
:1033D00094F83C30012B00F08F80012384F83C30BE
:1033E00023681A6812F0010F03D11A6842F0010233
:1033F0001A602268136823F400631360212384F8A1
:103400003D30102384F83E3000232364C4F8248028
:10341000A4F82A90638D23853A4BE3622B4632460B
:1034200039462046FFF73CFC0746002866D10023BA
:10343000039323685A6903929B690393039B11E0EA
:10344000236C042B01D00127B3E72268136843F4EF
:1034500000731360F7E72A4631462046FFF750FE17
:1034600000282ED1238D002B36D02A463146204607
:10347000FFF700FD0028E3D1626A236812781A6121
:10348000606A431C6362618D89B2013989B26185CA
:10349000238D013B9BB223852268516911F0040FF3
:1034A000D9D0002BD7D043781361636A01336362AC
:1034B000638D9BB2013B9BB26385238D013B2385CA
:1034C000C9E7236C042B01D0012772E72268136837
:1034D00043F400731360F7E72268136843F4007342
:1034E0001360202384F83D30002384F83E3084F8B4
:1034F0003C305EE702275CE702275AE7012758E7DE
:10350000020010000000FFFF2DE9F04389B00446DF
:103510000F4691469846109E00230793FEF768F9E0
:1035200094F83D30202B04D00227384609B0BDE87E
:10353000F08305460090192301229E492046FFF79B
:10354000EEFA002840F07D8194F83C30012B00F029
:103550007A81012384F83C3023681A6812F0010F45
:1035600003D11A6842F001021A602268136823F43A
:1035700000631360222384F83D30102384F83E302A
:1035800000232364C4F82490A4F82A80638D238543
:10359000894BE3622B46324639462046FFF7DAFB79
:1035A0000746002840F05181238D5BB903932368BF
:1035B0005A6903929A690392039A1A6842F4007254
:1035C0001A6076E0012B0FD0022B21D022681368FD
:1035D00043F4806313600023069323685A690692BC
:1035E0009B690693069B64E02268136823F480635A
:1035F000136072B60023049323685A6904929A698F
:103600000492049A1A6842F400721A6062B650E09A
:103610002268136843F40063136072B600230593B5
:1036200023685A6905929A690592059A1A6822F4E4
:1036300080621A6062B63CE02A4631462046FFF7B7
:103640008EFD002840F0038123681A69636A1A70AE
:10365000636A01336362238D013B2385638D9BB2D3
:10366000013B9BB2638524E072B62268136843F481
:103670000073136023681A69636A1A70636A0133FE
:103680006362238D013B2385638D9BB2013B9BB21B
:10369000638562B623681A69636A1A70636A0133C4
:1036A0006362238D013B2385638D9BB2013B9BB2FB
:1036B0006385218D002900F0BB80032900F28480FE
:1036C0000129B9D002290AD10095334600223B498D
:1036D0002046FFF724FA0028C6D0012725E70095E9
:1036E0003346002235492046FFF719FA002840F0FA
:1036F000B0802268136823F48063136072B6236875
:103700001A69636A1A70636A01336362238D013B2D
:103710002385638D9BB2013B9BB26385284B1B685D
:10372000DB08284AA2FB03231B0A03EB8303C3EB3A
:10373000C30307930799013907910799002928D0F6
:1037400023685A6912F0040FF4D01A6842F4007228
:103750001A6023681A69636A1A70636A01336362C4
:10376000238D013B2385638D9BB2013B9BB2638517
:1037700062B623681A69636A1A70636A0133636206
:10378000238D013B2385638D9BB2013B9BB26385F7
:103790008FE700232363202284F83D2084F83E3005
:1037A000226C42F02002226462B684F83C30012789
:1037B000BBE600BF020010000000FFFF0400010094
:1037C0000800002089B5F8142A4631462046FFF744
:1037D000C6FC00283FD123681A69636A1A70636ABD
:1037E00001336362228D013A92B22285638D9BB2CE
:1037F000013B9BB263852368596911F0040F3FF4C4
:1038000058AF032A0FD023681A69636A1A70636A73
:1038100001336362238D013B2385638D9BB2013BA2
:103820009BB2638545E71A6822F480621A60EAE772
:10383000202384F83D30002384F83E3084F83C3067
:1038400073E6022771E602276FE601276DE601277E
:103850006BE6012769E6012767E600BF2DE9F04323
:1038600083B004460F46904699460C9EFDF7C0FF74
:1038700094F83D20202A03D0022003B0BDE8F08355
:1038800005460090192301224A492046FFF747F9CF
:10389000002840F0898094F83C30012B00F08680AD
:1038A000012384F83C3023681A6812F0010F03D119
:1038B0001A6842F001021A602268136823F4006358
:1038C0001360212384F83D30402384F83E300023E8
:1038D00023640A9B6362BDF82C306385638D238566
:1038E000354BE362019500964B46424639462046E9
:1038F000FFF7F0FA00285BD1238D002B35D02A4644
:1039000031462046FFF7B6FA20BB626A2368127878
:103910001A61626A531C6362218D013989B2218563
:10392000638D9BB2013B9BB263852368586910F09D
:10393000040FE1D00029DFD052781A61636A0133A5
:103940006362238D013B2385638D9BB2013B9BB258
:103950006385D1E7236C042B01D001208DE7226819
:10396000136843F400731360F7E72A463146204694
:10397000FFF7C6FB50B1236C042B01D001207CE77C
:103980002268136843F400731360F7E72268136832
:1039900043F400731360202384F83D30002384F83F
:1039A0003E3084F83C3068E7022066E7022064E796
:1039B000012062E7020010000000FFFF2DE9F04344
:1039C00089B004460F4690469946129E00230793FD
:1039D000FDF70EFF94F83D30202B04D00227384627
:1039E00009B0BDE8F08305460090192301229749EC
:1039F0002046FFF794F8002840F0748194F83C309A
:103A0000012B00F07181012384F83C3023681A688F
:103A100012F0010F03D11A6842F001021A60226805
:103A2000136823F400631360222384F83D3040239D
:103A300084F83E3000232364109B6362BDF8443059
:103A40006385638D2385824BE362019500964B4627
:103A5000424639462046FFF7A9FA0746002840F0BB
:103A60004581238D5BB9039323685A6903929A6950
:103A70000392039A1A6842F400721A6076E0012BEE
:103A80000FD0022B21D02268136843F480631360A7
:103A90000023069323685A6906929B690693069B46
:103AA00064E02268136823F48063136072B6002315
:103AB000049323685A6904929A690492049A1A68D2
:103AC00042F400721A6062B650E02268136843F450
:103AD0000063136072B60023059323685A69059248
:103AE0009A690592059A1A6822F480621A6062B691
:103AF0003CE02A4631462046FFF731FB002840F0E3
:103B0000F78023681A69636A1A70636A0133636213
:103B1000238D013B2385638D9BB2013B9BB2638563
:103B200024E072B62268136843F4007313602368BC
:103B30001A69636A1A70636A01336362238D013BF9
:103B40002385638D9BB2013B9BB2638562B623687C
:103B50001A69636A1A70636A01336362238D013BD9
:103B60002385638D9BB2013B9BB26385238D002B24
:103B700000F0AF80032B00F28280012BB9D0022B22
:103B80000AD100953346002232492046FEF7C7FF8E
:103B90000028C6D0012722E70095334600222D4990
:103BA0002046FEF7BCFF002840F0A480226813687E
:103BB00023F48063136072B623681A69636A1A700B
:103BC000636A01336362238D013B2385638D9BB25E
:103BD000013B9BB26385204B1B68DB081F4AA2FB9D
:103BE00003231B0A03EB8303C3EBC3030793079B66
:103BF000013B0793079B002B32D023685A6912F0D0
:103C0000040FF4D01A6842F400721A6023681A692B
:103C1000636A1A70636A01336362238D013B2385F3
:103C2000638D9BB2013B9BB2638562B623681A69C0
:103C3000636A1A70636A01336362238D013B2385D3
:103C4000638D9BB2013B9BB263858FE7020010003E
:103C50000000FFFF040001000800002089B5F814EF
:103C60002363202284F83D2084F83E30226C42F009
:103C70002002226462B684F83C300127AFE62A466F
:103C800031462046FFF76BFA002835D123681A69C0
:103C9000636A1A70626A531C6362238D013B238539
:103CA000638D9BB2013B9BB263852368596911F018
:103CB000040F3FF45BAF1B695370636A01336362A7
:103CC000238D013B2385638D9BB2013B9BB26385B2
:103CD0004CE7202384F83D30002384F83E3084F8FC
:103CE0003C307CE602277AE6022778E6012776E672
:103CF000012774E6012772E6012770E60368B3F135
:103D0000804F00D0704782B003F50433DA6942F087
:103D10000102DA61DB6903F001030193019B02B048
:103D20007047000000B587B000230293039304930B
:103D300005930368B3F1804F02D007B05DF804FB30
:103D400003F504339A6942F004029A619B6903F017
:103D500004030193019B0123029302230393059320
:103D600002A90248FEF782F8E7E700BF0008014019
:103D700000B58FB000230A930B930C930D93089317
:103D80000993019302930393049305930693079376
:103D900021484FF08042026007224260836040F277
:103DA000E732C260036180238361FDF71FFA20BB05
:103DB0004FF480530A930AA91748FDF72DFBF8B971
:103DC0001548FDF73FFAF0B900230893099308A9B5
:103DD0001148FDF719FCC8B9602301930022029233
:103DE0000392059201A90C48FDF786FA88B90A48A2
:103DF000FFF798FF0FB05DF804FBFDF773F8D7E706
:103E0000FDF770F8DCE7FDF76DF8DDE7FDF76AF820
:103E1000E2E7FDF767F8EAE764020020FEF7A0F9A1
:103E20000B480C490C4A002302E0D458C450043318
:103E3000C4188C42F9D3094A094C002301E01360ED
:103E40000432A242FBD300F01DF8FDF777F870476B
:103E500000000020F0000020A0460008F000002034
:103E6000E4030020FEE703460244934200D170477A
:103E700003F8011BF9E70000014B1868704700BF09
:103E8000A000002070B500260C4D0D4C641BA41042
:103E9000A64209D100F09AFB00260A4D0A4C641B89
:103EA000A410A64205D170BD55F8043B98470136D1
:103EB000EEE755F8043B98470136F2E798460008CC
:103EC00098460008984600089C46000800F0B4BADE
:103ED000F8B504460D4600F0BFF9224606460F46E7
:103EE0002B4620462946FCF769FD30B92046294675
:103EF00000220023FCF73AFD10B930463946F8BDE0
:103F0000FFF7BAFF00220023212101601046194665
:103F1000FCF7E4FB06460F4630463946F8BD00BFC5
:103F20002DE9F84FC04B21F000469E4204460D4655
:103F30008A4616D9BD4B9E420BD808D0BAF1000F65
:103F400040F3C2809CA1D1E90001BDE8F88F0028B0
:103F5000F4D022462B4620462946FCF7DFF8BDE880
:103F6000F88FB34B9E4200F2B480A3F1DE739E4201
:103F700040F29B804FF0FF3B22462B4620462946CD
:103F8000FCF782FA02460B4680468946FCF77CFA2B
:103F90008BA3D3E9002306460F46FCF775FA8AA3E4
:103FA000D3E90023FCF7BAF832463B46FCF76CFA3B
:103FB00087A3D3E90023FCF7B1F832463B46FCF770
:103FC00063FA85A3D3E90023FCF7A8F832463B4601
:103FD000FCF75AFA82A3D3E90023FCF79FF8324694
:103FE0003B46FCF751FA80A3D3E90023FCF796F88F
:103FF00042464B46FCF748FA7DA3D3E900238046AE
:10400000894630463946FCF73FFA7BA3D3E90023C3
:10401000FCF782F832463B46FCF736FA78A3D3E940
:104020000023FCF779F832463B46FCF72DFA76A3DD
:10403000D3E90023FCF770F832463B46FCF724FA3C
:1040400073A3D3E90023FCF767F832463B46FCF73D
:104050001BFA02460B4640464946FCF75FF82246EB
:104060002B46FCF711FABBF1FF3F02460B4659D035
:10407000704B714E03EBCB03D3E90023FCF74CF8F4
:1040800022462B46FCF748F806EBCB0602460B46C9
:10409000D6E90001FCF740F8BAF1000FBFF65FAFB8
:1040A00001F100431946BDE8F88F5BA3D3E9002373
:1040B000FCF734F80022614BFCF776FC00283FF453
:1040C00059AF204629464AE755A1D1E90001BDE88C
:1040D000F88F00F0BDF85A4B04469E420D4627D893
:1040E000A3F550239E424ED802460B46FCF716F825
:1040F0000022524BFCF710F802460B462046294698
:1041000014461D4600224FF08043FCF707F8024694
:104110000B4620462946FCF7E1FA4FF0000B044617
:104120000D4629E720462946FBF7F6FFBDE8F88F44
:10413000444B9E421CD20022434BFBF7EDFF02464C
:104140000B462046294614461D4600223E4BFCF7EE
:104150009BF90022394BFBF7E1FF02460B46204654
:104160002946FCF7BBFA4FF0020B04460D4603E765
:1041700002460B4600203549FCF7B0FA4FF0030B1E
:1041800004460D46F8E600222C4BFBF7C5FF02461D
:104190000B462046294614461D460022274BFBF7B6
:1041A000BDFF02460B4620462946FCF797FA4FF022
:1041B000010B04460D46DFE6182D4454FB21F93F60
:1041C00011DA22E33AAD903FEB0D76244B7BA93F09
:1041D000513DD0A0660DB13F6E204CC5CD45B73FD7
:1041E000FF8300922449C23F0D5555555555D53F83
:1041F0002F6C6A2C44B4A2BF9AFDDE522DDEAD3F77
:104200006D9A74AFF2B0B33F711623FEC671BC3F16
:10421000C4EB98999999C93F9C7500883CE4377E16
:10422000182D4454FB21F9BFFFFF0F440000F07F1D
:10423000FFFFDB3F18460008384600080000F03F4B
:10424000FFFFF23F008003400000F83F0000F0BF96
:1042500021F00043194670472DE9F84F724D06468C
:104260008D430F4600F0A48000290C460246034609
:1042700056DD081500F0C780C4F31302C107A0F291
:10428000FF3742F4801203D4D90F01EB42025B00E6
:10429000002616244FF40011B446520002EBD372EC
:1042A0007F105B000CEB010090424FEAD3754FEAA0
:1042B000430303DC00EB010C121A0E44013C05EB36
:1042C00042024FEA5101EDD120254FF00040A046B7
:1042D0000AE03CD0510001EBD371013D0A464FEAA0
:1042E00043034FEA50003ED0944508EB000EF0DA4D
:1042F000BEF1000F0EEB00080CDBE146A2EB0C0157
:10430000CC469E4588BF01F1FF314900A3EB0E0367
:104310000444E0E7B8F1000FEFDB0CF10109EDE731
:1043200021F0004505433DD0002964D1DA0A153C4F
:104330005B05002AFAD0D60220461946144663D5FA
:1043400020254FF0FF32E940801A0C4394E79E4548
:1043500002D94FEA4C01BEE7BEF1000F0EEB000898
:1043600022DB0021D2E7194312D0DFF8C0A0DFF82A
:10437000C0B0DAE90001DBE90023FBF7CDFEDAE9A2
:10438000008902460B4640464946FCF7F9FAC8B98F
:104390006508731003F17F5303F5001303EB075116
:1043A00045EAC670BDE8F88FB8F1000FB5DAD8E776
:1043B00002460B46FCF768F832463B46FBF7AEFE7A
:1043C000BDE8F88FB4F1FF3FDAE90001DBE9002333
:1043D00026D0DAE90089FBF7A1FE02460B464046EB
:1043E0004946FCF7C3FAE8B1A31C04F1020508BF73
:1043F00001366D08CDE70B46FBF78EFE02460B46F5
:10440000FCF76CF9CEE7314600236400E5021A465A
:1044100003F10103F9D5C3F1200501FA03F392E793
:104420000136B6E70134B3E70000F07F60460008CC
:1044300058460008000000002DE9F84F9946534205
:104440005F4F134329F0004E4EEAD373BB4204463C
:104450000D4690463DD84642064321F0004A4AEABE
:10446000D676BE4203468B4633D809F1404606F560
:10447000801616433DD04FEAA97606F002065AEAA6
:10448000030346EAD1762CD05EEA020235D0BE455F
:1044900046D0BA4531D0AAEB0E0ABAF1747F4FEA82
:1044A0002A5339DAB9F1000F46DA3C3344DA0020F6
:1044B0000021012E58D0022E49D086B134A3D3E971
:1044C0000023FBF729FE34A3D3E90023FBF724FEE6
:1044D00005E022462B4640464946FBF71FFEBDE855
:1044E000F88F022E10D0032EF9D12DA1D1E90001B1
:1044F000F5E7BDE8F84FFFF713BDBBF1000F07DB91
:1045000029A1D1E90001EAE723A1D1E90001E6E709
:1045100027A1D1E90001E2E723A1D1E90001C8E721
:10452000F24506F1FF3623D0022E29D8254B03EBA6
:10453000C603D3E90001D2E742464B46204629464E
:10454000FCF7CCF8FFF784FEFFF7EAFCB1E710A315
:10455000D3E90023FBF7E0FD02460B460EA1D1E9AB
:104560000001FBF7D9FDBAE701F100431946B6E7B0
:10457000022E08D8144B03EBC603D3E90001AEE7C3
:1045800000200021ABE70CA1D1E90001A7E700BFA3
:10459000075C143326A6A13C182D4454FB21094086
:1045A000182D4454FB2109C0182D4454FB21F93F18
:1045B000182D4454FB21F9BF182D4454FB21E93F29
:1045C0000000F07F6846000880460008F8B500BF8C
:1045D000F8BC08BC9E467047F8B500BFF8BC08BCE4
:0445E0009E4670473C
:1045E8000102000002030405060708090A0B0C0D66
:1045F8000E0F10100000000001020304000000006C
:10460800000000000102030406070809000000007A
:10461800E2652F227F2B7A3C075C143326A6813C67
:10462800BDCBF07A8807703C075C143326A6913C12
:104638004FBB610567ACDD3F182D4454FB21E93FB2
:104648009BF681D20B73EF3F182D4454FB21F93FA1
:1046580059F3F8C21F6EA501000000000000F03FEA
:104668000000000000000080182D4454FB21094080
:10467800182D4454FB2109C0182D4454FB21E9BFCF
:10468800D221337F7CD90240D221337F7CD902C02A
:04469800C90E00083F
:04469C00A50E00085F
:1046A00001000000100000000024F40000000000E1
:1046B000000000E04D62503F000000C07493683F6E
:1046C000000000E051B89E3F000000000000000024
:1046D00000000000000000000000000000000000DA
:1046E00000000000000000000000000000000000CA
:1046F0000000000000000000000000E04D62503F9C
:10470000000000C07493683F000000E051B89E3F75
:104710000000000000000000000000000000000099
:104720000000000000000000000000000000000089
:104730000000000000000000000000000000000079
:10474000A400002000000000AC02002014030020A0
:104750007C030020000000000000000000000000BA
:104760000000000000000000000000000000000049
:104770000000000000000000000000000000000039
:104780000000000000000000000000000000000029
:0400000508003E1D94
:00000001FF
